{
  "contractName": "PresaleSettings",
  "abi": [
    {
      "inputs": [],
      "stateMutability": "nonpayable",
      "type": "constructor"
    },
    {
      "anonymous": false,
      "inputs": [
        {
          "indexed": true,
          "internalType": "address",
          "name": "previousOwner",
          "type": "address"
        },
        {
          "indexed": true,
          "internalType": "address",
          "name": "newOwner",
          "type": "address"
        }
      ],
      "name": "OwnershipTransferred",
      "type": "event"
    },
    {
      "inputs": [],
      "name": "SETTINGS",
      "outputs": [
        {
          "internalType": "uint256",
          "name": "BASE_FEE",
          "type": "uint256"
        },
        {
          "internalType": "uint256",
          "name": "TOKEN_FEE",
          "type": "uint256"
        },
        {
          "internalType": "address payable",
          "name": "ETH_FEE_ADDRESS",
          "type": "address"
        },
        {
          "internalType": "address payable",
          "name": "TOKEN_FEE_ADDRESS",
          "type": "address"
        },
        {
          "internalType": "uint256",
          "name": "ETH_CREATION_FEE",
          "type": "uint256"
        }
      ],
      "stateMutability": "view",
      "type": "function"
    },
    {
      "inputs": [],
      "name": "owner",
      "outputs": [
        {
          "internalType": "address",
          "name": "",
          "type": "address"
        }
      ],
      "stateMutability": "view",
      "type": "function"
    },
    {
      "inputs": [],
      "name": "renounceOwnership",
      "outputs": [],
      "stateMutability": "nonpayable",
      "type": "function"
    },
    {
      "inputs": [
        {
          "internalType": "address",
          "name": "newOwner",
          "type": "address"
        }
      ],
      "name": "transferOwnership",
      "outputs": [],
      "stateMutability": "nonpayable",
      "type": "function"
    },
    {
      "inputs": [],
      "name": "getBaseFee",
      "outputs": [
        {
          "internalType": "uint256",
          "name": "",
          "type": "uint256"
        }
      ],
      "stateMutability": "view",
      "type": "function"
    },
    {
      "inputs": [],
      "name": "getTokenFee",
      "outputs": [
        {
          "internalType": "uint256",
          "name": "",
          "type": "uint256"
        }
      ],
      "stateMutability": "view",
      "type": "function"
    },
    {
      "inputs": [],
      "name": "getEthCreationFee",
      "outputs": [
        {
          "internalType": "uint256",
          "name": "",
          "type": "uint256"
        }
      ],
      "stateMutability": "view",
      "type": "function"
    },
    {
      "inputs": [],
      "name": "getEthAddress",
      "outputs": [
        {
          "internalType": "address payable",
          "name": "",
          "type": "address"
        }
      ],
      "stateMutability": "view",
      "type": "function"
    },
    {
      "inputs": [],
      "name": "getTokenAddress",
      "outputs": [
        {
          "internalType": "address payable",
          "name": "",
          "type": "address"
        }
      ],
      "stateMutability": "view",
      "type": "function"
    },
    {
      "inputs": [
        {
          "internalType": "address payable",
          "name": "_ethAddress",
          "type": "address"
        },
        {
          "internalType": "address payable",
          "name": "_tokenFeeAddress",
          "type": "address"
        }
      ],
      "name": "setFeeAddresses",
      "outputs": [],
      "stateMutability": "nonpayable",
      "type": "function"
    },
    {
      "inputs": [
        {
          "internalType": "uint256",
          "name": "_baseFee",
          "type": "uint256"
        },
        {
          "internalType": "uint256",
          "name": "_tokenFee",
          "type": "uint256"
        },
        {
          "internalType": "uint256",
          "name": "_ethCreationFee",
          "type": "uint256"
        }
      ],
      "name": "setFees",
      "outputs": [],
      "stateMutability": "nonpayable",
      "type": "function"
    }
  ],
  "bytecode": "0x608060405234801561001057600080fd5b5061002d6100226100fb60201b60201c565b61010360201b60201c565b6032600160000181905550600060018001819055506706f05b59d3b200006001600401819055506100626100fb60201b60201c565b600160020160006101000a81548173ffffffffffffffffffffffffffffffffffffffff021916908373ffffffffffffffffffffffffffffffffffffffff1602179055506100b36100fb60201b60201c565b600160030160006101000a81548173ffffffffffffffffffffffffffffffffffffffff021916908373ffffffffffffffffffffffffffffffffffffffff1602179055506101c7565b600033905090565b60008060009054906101000a900473ffffffffffffffffffffffffffffffffffffffff169050816000806101000a81548173ffffffffffffffffffffffffffffffffffffffff021916908373ffffffffffffffffffffffffffffffffffffffff1602179055508173ffffffffffffffffffffffffffffffffffffffff168173ffffffffffffffffffffffffffffffffffffffff167f8be0079c531659141344cd1fd0a4f28419497f9722a3daafe3b4186f6b6457e060405160405180910390a35050565b610a65806101d66000396000f3fe608060405234801561001057600080fd5b50600436106100a95760003560e01c8063715018a611610071578063715018a6146101425780638da5cb5b1461014c578063ade97ab51461016a578063cec10c111461018c578063e38ef7a3146101a8578063f2fde38b146101c6576100a9565b806310fe9ae8146100ae57806311c84120146100cc57806315e812ad146100e857806324785172146101065780633554685014610124575b600080fd5b6100b66101e2565b6040516100c391906108c2565b60405180910390f35b6100e660048036038101906100e19190610749565b61020f565b005b6100f0610317565b6040516100fd919061091d565b60405180910390f35b61010e610324565b60405161011b91906108c2565b60405180910390f35b61012c610351565b604051610139919061091d565b60405180910390f35b61014a61035d565b005b6101546103e5565b60405161016191906108a7565b60405180910390f35b61017261040e565b604051610183959493929190610938565b60405180910390f35b6101a660048036038101906101a19190610785565b610472565b005b6101b0610510565b6040516101bd919061091d565b60405180910390f35b6101e060048036038101906101db9190610720565b61051d565b005b6000600160030160009054906101000a900473ffffffffffffffffffffffffffffffffffffffff16905090565b610217610615565b73ffffffffffffffffffffffffffffffffffffffff166102356103e5565b73ffffffffffffffffffffffffffffffffffffffff161461028b576040517f08c379a0000000000000000000000000000000000000000000000000000000008152600401610282906108fd565b60405180910390fd5b81600160020160006101000a81548173ffffffffffffffffffffffffffffffffffffffff021916908373ffffffffffffffffffffffffffffffffffffffff16021790555080600160030160006101000a81548173ffffffffffffffffffffffffffffffffffffffff021916908373ffffffffffffffffffffffffffffffffffffffff1602179055505050565b6000600160000154905090565b6000600160020160009054906101000a900473ffffffffffffffffffffffffffffffffffffffff16905090565b60006001800154905090565b610365610615565b73ffffffffffffffffffffffffffffffffffffffff166103836103e5565b73ffffffffffffffffffffffffffffffffffffffff16146103d9576040517f08c379a00000000000000000000000000000000000000000000000000000000081526004016103d0906108fd565b60405180910390fd5b6103e3600061061d565b565b60008060009054906101000a900473ffffffffffffffffffffffffffffffffffffffff16905090565b60018060000154908060010154908060020160009054906101000a900473ffffffffffffffffffffffffffffffffffffffff16908060030160009054906101000a900473ffffffffffffffffffffffffffffffffffffffff16908060040154905085565b61047a610615565b73ffffffffffffffffffffffffffffffffffffffff166104986103e5565b73ffffffffffffffffffffffffffffffffffffffff16146104ee576040517f08c379a00000000000000000000000000000000000000000000000000000000081526004016104e5906108fd565b60405180910390fd5b8260016000018190555081600180018190555080600160040181905550505050565b6000600160040154905090565b610525610615565b73ffffffffffffffffffffffffffffffffffffffff166105436103e5565b73ffffffffffffffffffffffffffffffffffffffff1614610599576040517f08c379a0000000000000000000000000000000000000000000000000000000008152600401610590906108fd565b60405180910390fd5b600073ffffffffffffffffffffffffffffffffffffffff168173ffffffffffffffffffffffffffffffffffffffff161415610609576040517f08c379a0000000000000000000000000000000000000000000000000000000008152600401610600906108dd565b60405180910390fd5b6106128161061d565b50565b600033905090565b60008060009054906101000a900473ffffffffffffffffffffffffffffffffffffffff169050816000806101000a81548173ffffffffffffffffffffffffffffffffffffffff021916908373ffffffffffffffffffffffffffffffffffffffff1602179055508173ffffffffffffffffffffffffffffffffffffffff168173ffffffffffffffffffffffffffffffffffffffff167f8be0079c531659141344cd1fd0a4f28419497f9722a3daafe3b4186f6b6457e060405160405180910390a35050565b6000813590506106f0816109ea565b92915050565b60008135905061070581610a01565b92915050565b60008135905061071a81610a18565b92915050565b60006020828403121561073257600080fd5b6000610740848285016106e1565b91505092915050565b6000806040838503121561075c57600080fd5b600061076a858286016106f6565b925050602061077b858286016106f6565b9150509250929050565b60008060006060848603121561079a57600080fd5b60006107a88682870161070b565b93505060206107b98682870161070b565b92505060406107ca8682870161070b565b9150509250925092565b6107dd816109ae565b82525050565b6107ec8161099c565b82525050565b60006107ff60268361098b565b91507f4f776e61626c653a206e6577206f776e657220697320746865207a65726f206160008301527f64647265737300000000000000000000000000000000000000000000000000006020830152604082019050919050565b600061086560208361098b565b91507f4f776e61626c653a2063616c6c6572206973206e6f7420746865206f776e65726000830152602082019050919050565b6108a1816109e0565b82525050565b60006020820190506108bc60008301846107e3565b92915050565b60006020820190506108d760008301846107d4565b92915050565b600060208201905081810360008301526108f6816107f2565b9050919050565b6000602082019050818103600083015261091681610858565b9050919050565b60006020820190506109326000830184610898565b92915050565b600060a08201905061094d6000830188610898565b61095a6020830187610898565b61096760408301866107d4565b61097460608301856107d4565b6109816080830184610898565b9695505050505050565b600082825260208201905092915050565b60006109a7826109c0565b9050919050565b60006109b9826109c0565b9050919050565b600073ffffffffffffffffffffffffffffffffffffffff82169050919050565b6000819050919050565b6109f38161099c565b81146109fe57600080fd5b50565b610a0a816109ae565b8114610a1557600080fd5b50565b610a21816109e0565b8114610a2c57600080fd5b5056fea264697066735822122012518c17ffa69b80c1423d2762977d73f451ef8aa01873e967a6a230442c319f64736f6c63430008000033",
  "immutableReferences": {},
  "source": "// SPDX-License-Identifier: UNLICENSED\r\n\r\npragma solidity ^0.8.0;\r\n\r\nimport \"../Unitls/EnumerableSet.sol\";\r\nimport \"../Unitls/Ownable.sol\";\r\n\r\ncontract PresaleSettings is Ownable {\r\n    using EnumerableSet for EnumerableSet.AddressSet;\r\n\r\n    struct Settings {\r\n        uint256 BASE_FEE; // base fee divided by 1000\r\n        uint256 TOKEN_FEE; // token fee divided by 1000\r\n        address payable ETH_FEE_ADDRESS;\r\n        address payable TOKEN_FEE_ADDRESS;\r\n        uint256 ETH_CREATION_FEE; // fee to generate a presale contract on the platform\r\n    }\r\n\r\n    Settings public SETTINGS;\r\n\r\n    constructor() {\r\n        SETTINGS.BASE_FEE = 50; // 5%\r\n        SETTINGS.TOKEN_FEE = 0; // 0%\r\n        SETTINGS.ETH_CREATION_FEE = 500000000000000000; // 0.5 ETH\r\n        SETTINGS.ETH_FEE_ADDRESS = payable(_msgSender());\r\n        SETTINGS.TOKEN_FEE_ADDRESS = payable(_msgSender());\r\n    }\r\n\r\n    function getBaseFee() external view returns (uint256) {\r\n        return SETTINGS.BASE_FEE;\r\n    }\r\n\r\n    function getTokenFee() external view returns (uint256) {\r\n        return SETTINGS.TOKEN_FEE;\r\n    }\r\n\r\n    function getEthCreationFee() external view returns (uint256) {\r\n        return SETTINGS.ETH_CREATION_FEE;\r\n    }\r\n\r\n    function getEthAddress() external view returns (address payable) {\r\n        return SETTINGS.ETH_FEE_ADDRESS;\r\n    }\r\n\r\n    function getTokenAddress() external view returns (address payable) {\r\n        return SETTINGS.TOKEN_FEE_ADDRESS;\r\n    }\r\n\r\n    function setFeeAddresses(\r\n        address payable _ethAddress,\r\n        address payable _tokenFeeAddress\r\n    ) external onlyOwner {\r\n        SETTINGS.ETH_FEE_ADDRESS = _ethAddress;\r\n        SETTINGS.TOKEN_FEE_ADDRESS = _tokenFeeAddress;\r\n    }\r\n\r\n    function setFees(\r\n        uint256 _baseFee,\r\n        uint256 _tokenFee,\r\n        uint256 _ethCreationFee\r\n    ) external onlyOwner {\r\n        SETTINGS.BASE_FEE = _baseFee;\r\n        SETTINGS.TOKEN_FEE = _tokenFee;\r\n        SETTINGS.ETH_CREATION_FEE = _ethCreationFee;\r\n    }\r\n\r\n    \r\n}\r\n",
  "sourcePath": "C:\\Users\\Admin\\Desktop\\Test_DAOLaunch\\contracts\\common\\PresaleSettings.sol",
  "compiler": {
    "name": "solc",
    "version": "0.8.0+commit.c7dfd78e.Emscripten.clang"
  },
  "schemaVersion": "3.4.4",
  "updatedAt": "2022-04-13T11:10:13.358Z",
  "devdoc": {
    "kind": "dev",
    "methods": {
      "owner()": {
        "details": "Returns the address of the current owner."
      },
      "renounceOwnership()": {
        "details": "Leaves the contract without owner. It will not be possible to call `onlyOwner` functions anymore. Can only be called by the current owner. NOTE: Renouncing ownership will leave the contract without an owner, thereby removing any functionality that is only available to the owner."
      },
      "transferOwnership(address)": {
        "details": "Transfers ownership of the contract to a new account (`newOwner`). Can only be called by the current owner."
      }
    },
    "version": 1
  },
  "userdoc": {
    "kind": "user",
    "methods": {},
    "version": 1
  }
}