{
  "contractName": "PresaleFactory",
  "abi": [
    {
      "anonymous": false,
      "inputs": [
        {
          "indexed": true,
          "internalType": "address",
          "name": "previousOwner",
          "type": "address"
        },
        {
          "indexed": true,
          "internalType": "address",
          "name": "newOwner",
          "type": "address"
        }
      ],
      "name": "OwnershipTransferred",
      "type": "event"
    },
    {
      "anonymous": false,
      "inputs": [
        {
          "indexed": false,
          "internalType": "address",
          "name": "presaleContract",
          "type": "address"
        }
      ],
      "name": "presaleRegistered",
      "type": "event"
    },
    {
      "inputs": [],
      "name": "owner",
      "outputs": [
        {
          "internalType": "address",
          "name": "",
          "type": "address"
        }
      ],
      "stateMutability": "view",
      "type": "function"
    },
    {
      "inputs": [],
      "name": "renounceOwnership",
      "outputs": [],
      "stateMutability": "nonpayable",
      "type": "function"
    },
    {
      "inputs": [
        {
          "internalType": "address",
          "name": "newOwner",
          "type": "address"
        }
      ],
      "name": "transferOwnership",
      "outputs": [],
      "stateMutability": "nonpayable",
      "type": "function"
    },
    {
      "inputs": [
        {
          "internalType": "address",
          "name": "_address",
          "type": "address"
        },
        {
          "internalType": "bool",
          "name": "_allow",
          "type": "bool"
        }
      ],
      "name": "adminAllowPresaleGenerator",
      "outputs": [],
      "stateMutability": "nonpayable",
      "type": "function"
    },
    {
      "inputs": [
        {
          "internalType": "address",
          "name": "_presaleAddress",
          "type": "address"
        }
      ],
      "name": "registerPresale",
      "outputs": [],
      "stateMutability": "nonpayable",
      "type": "function"
    },
    {
      "inputs": [],
      "name": "presaleGeneratorsLength",
      "outputs": [
        {
          "internalType": "uint256",
          "name": "",
          "type": "uint256"
        }
      ],
      "stateMutability": "view",
      "type": "function"
    },
    {
      "inputs": [
        {
          "internalType": "uint256",
          "name": "_index",
          "type": "uint256"
        }
      ],
      "name": "presaleGeneratorAtIndex",
      "outputs": [
        {
          "internalType": "address",
          "name": "",
          "type": "address"
        }
      ],
      "stateMutability": "view",
      "type": "function"
    },
    {
      "inputs": [
        {
          "internalType": "address",
          "name": "_presaleAddress",
          "type": "address"
        }
      ],
      "name": "presaleIsRegistered",
      "outputs": [
        {
          "internalType": "bool",
          "name": "",
          "type": "bool"
        }
      ],
      "stateMutability": "view",
      "type": "function"
    },
    {
      "inputs": [],
      "name": "presalesLength",
      "outputs": [
        {
          "internalType": "uint256",
          "name": "",
          "type": "uint256"
        }
      ],
      "stateMutability": "view",
      "type": "function"
    },
    {
      "inputs": [
        {
          "internalType": "uint256",
          "name": "_index",
          "type": "uint256"
        }
      ],
      "name": "presaleAtIndex",
      "outputs": [
        {
          "internalType": "address",
          "name": "",
          "type": "address"
        }
      ],
      "stateMutability": "view",
      "type": "function"
    }
  ],
  "bytecode": "0x608060405234801561001057600080fd5b5061002d61002261003260201b60201c565b61003a60201b60201c565b6100fe565b600033905090565b60008060009054906101000a900473ffffffffffffffffffffffffffffffffffffffff169050816000806101000a81548173ffffffffffffffffffffffffffffffffffffffff021916908373ffffffffffffffffffffffffffffffffffffffff1602179055508173ffffffffffffffffffffffffffffffffffffffff168173ffffffffffffffffffffffffffffffffffffffff167f8be0079c531659141344cd1fd0a4f28419497f9722a3daafe3b4186f6b6457e060405160405180910390a35050565b610d338061010d6000396000f3fe608060405234801561001057600080fd5b506004361061009e5760003560e01c80638da5cb5b116100665780638da5cb5b146101475780639ff2079314610165578063d348c96414610183578063e2fc90ca1461019f578063f2fde38b146101cf5761009e565b80630a014fbc146100a357806311c065b7146100d35780634e76edbb146100ef57806365384f361461010d578063715018a61461013d575b600080fd5b6100bd60048036038101906100b89190610a0f565b6101eb565b6040516100ca9190610b4b565b60405180910390f35b6100ed60048036038101906100e891906109aa565b610208565b005b6100f76102aa565b6040516101049190610be1565b60405180910390f35b61012760048036038101906101229190610a0f565b6102bb565b6040516101349190610b4b565b60405180910390f35b6101456102d8565b005b61014f610360565b60405161015c9190610b4b565b60405180910390f35b61016d610389565b60405161017a9190610be1565b60405180910390f35b61019d600480360381019061019891906109d3565b61039a565b005b6101b960048036038101906101b491906109aa565b610450565b6040516101c69190610b66565b60405180910390f35b6101e960048036038101906101e491906109aa565b61046d565b005b600061020182600361056590919063ffffffff16565b9050919050565b61021c33600361057f90919063ffffffff16565b61025b576040517f08c379a000000000000000000000000000000000000000000000000000000000815260040161025290610ba1565b60405180910390fd5b61026f8160016105af90919063ffffffff16565b507fa62fce43cb61612c50d7b3485c2fb44000803dacc3472b8ce4c638f235e97a1f8160405161029f9190610b4b565b60405180910390a150565b60006102b660016105df565b905090565b60006102d182600161056590919063ffffffff16565b9050919050565b6102e06105f4565b73ffffffffffffffffffffffffffffffffffffffff166102fe610360565b73ffffffffffffffffffffffffffffffffffffffff1614610354576040517f08c379a000000000000000000000000000000000000000000000000000000000815260040161034b90610bc1565b60405180910390fd5b61035e60006105fc565b565b60008060009054906101000a900473ffffffffffffffffffffffffffffffffffffffff16905090565b600061039560036105df565b905090565b6103a26105f4565b73ffffffffffffffffffffffffffffffffffffffff166103c0610360565b73ffffffffffffffffffffffffffffffffffffffff1614610416576040517f08c379a000000000000000000000000000000000000000000000000000000000815260040161040d90610bc1565b60405180910390fd5b8015610436576104308260036105af90919063ffffffff16565b5061044c565b61044a8260036106c090919063ffffffff16565b505b5050565b600061046682600161057f90919063ffffffff16565b9050919050565b6104756105f4565b73ffffffffffffffffffffffffffffffffffffffff16610493610360565b73ffffffffffffffffffffffffffffffffffffffff16146104e9576040517f08c379a00000000000000000000000000000000000000000000000000000000081526004016104e090610bc1565b60405180910390fd5b600073ffffffffffffffffffffffffffffffffffffffff168173ffffffffffffffffffffffffffffffffffffffff161415610559576040517f08c379a000000000000000000000000000000000000000000000000000000000815260040161055090610b81565b60405180910390fd5b610562816105fc565b50565b600061057483600001836106f0565b60001c905092915050565b60006105a7836000018373ffffffffffffffffffffffffffffffffffffffff1660001b610741565b905092915050565b60006105d7836000018373ffffffffffffffffffffffffffffffffffffffff1660001b610764565b905092915050565b60006105ed826000016107d4565b9050919050565b600033905090565b60008060009054906101000a900473ffffffffffffffffffffffffffffffffffffffff169050816000806101000a81548173ffffffffffffffffffffffffffffffffffffffff021916908373ffffffffffffffffffffffffffffffffffffffff1602179055508173ffffffffffffffffffffffffffffffffffffffff168173ffffffffffffffffffffffffffffffffffffffff167f8be0079c531659141344cd1fd0a4f28419497f9722a3daafe3b4186f6b6457e060405160405180910390a35050565b60006106e8836000018373ffffffffffffffffffffffffffffffffffffffff1660001b6107e5565b905092915050565b600082600001828154811061072e577f4e487b7100000000000000000000000000000000000000000000000000000000600052603260045260246000fd5b9060005260206000200154905092915050565b600080836001016000848152602001908152602001600020541415905092915050565b60006107708383610741565b6107c95782600001829080600181540180825580915050600190039060005260206000200160009091909190915055826000018054905083600101600084815260200190815260200160002081905550600190506107ce565b600090505b92915050565b600081600001805490509050919050565b6000808360010160008481526020019081526020016000205490506000811461095f5760006001826108179190610c0d565b905060006001866000018054905061082f9190610c0d565b90508181146108ea576000866000018281548110610876577f4e487b7100000000000000000000000000000000000000000000000000000000600052603260045260246000fd5b90600052602060002001549050808760000184815481106108c0577f4e487b7100000000000000000000000000000000000000000000000000000000600052603260045260246000fd5b90600052602060002001819055508387600101600083815260200190815260200160002081905550505b85600001805480610924577f4e487b7100000000000000000000000000000000000000000000000000000000600052603160045260246000fd5b600190038181906000526020600020016000905590558560010160008681526020019081526020016000206000905560019350505050610965565b60009150505b92915050565b60008135905061097a81610cb8565b92915050565b60008135905061098f81610ccf565b92915050565b6000813590506109a481610ce6565b92915050565b6000602082840312156109bc57600080fd5b60006109ca8482850161096b565b91505092915050565b600080604083850312156109e657600080fd5b60006109f48582860161096b565b9250506020610a0585828601610980565b9150509250929050565b600060208284031215610a2157600080fd5b6000610a2f84828501610995565b91505092915050565b610a4181610c41565b82525050565b610a5081610c53565b82525050565b6000610a63602683610bfc565b91507f4f776e61626c653a206e6577206f776e657220697320746865207a65726f206160008301527f64647265737300000000000000000000000000000000000000000000000000006020830152604082019050919050565b6000610ac9600983610bfc565b91507f464f5242494444454e00000000000000000000000000000000000000000000006000830152602082019050919050565b6000610b09602083610bfc565b91507f4f776e61626c653a2063616c6c6572206973206e6f7420746865206f776e65726000830152602082019050919050565b610b4581610c7f565b82525050565b6000602082019050610b606000830184610a38565b92915050565b6000602082019050610b7b6000830184610a47565b92915050565b60006020820190508181036000830152610b9a81610a56565b9050919050565b60006020820190508181036000830152610bba81610abc565b9050919050565b60006020820190508181036000830152610bda81610afc565b9050919050565b6000602082019050610bf66000830184610b3c565b92915050565b600082825260208201905092915050565b6000610c1882610c7f565b9150610c2383610c7f565b925082821015610c3657610c35610c89565b5b828203905092915050565b6000610c4c82610c5f565b9050919050565b60008115159050919050565b600073ffffffffffffffffffffffffffffffffffffffff82169050919050565b6000819050919050565b7f4e487b7100000000000000000000000000000000000000000000000000000000600052601160045260246000fd5b610cc181610c41565b8114610ccc57600080fd5b50565b610cd881610c53565b8114610ce357600080fd5b50565b610cef81610c7f565b8114610cfa57600080fd5b5056fea2646970667358221220b9cc55d5b42d3dabffdfd5cf6f83ed71f8ed58fa2ba1496861698589569aa70964736f6c63430008000033",
  "immutableReferences": {},
  "source": "// SPDX-License-Identifier: UNLICENSED\r\n\r\n// This contract logs all presales on the platform\r\n\r\npragma solidity ^0.8.0;\r\n\r\nimport \"../Unitls/EnumerableSet.sol\";\r\nimport \"../Unitls/Ownable.sol\";\r\n\r\ncontract PresaleFactory is Ownable {\r\n    using EnumerableSet for EnumerableSet.AddressSet;\r\n\r\n    EnumerableSet.AddressSet private presales;\r\n    EnumerableSet.AddressSet private presaleGenerators;\r\n\r\n    mapping(address => EnumerableSet.AddressSet) private presaleOwners;\r\n\r\n    event presaleRegistered(address presaleContract);\r\n\r\n    function adminAllowPresaleGenerator(address _address, bool _allow) public onlyOwner {\r\n        if (_allow) {\r\n            presaleGenerators.add(_address);\r\n        } else {\r\n            presaleGenerators.remove(_address);\r\n        }\r\n    }\r\n\r\n    /**\r\n     * @notice called by a registered PresaleGenerator upon Presale creation\r\n     */\r\n    function registerPresale(address _presaleAddress) public {\r\n        require(presaleGenerators.contains(msg.sender), \"FORBIDDEN\");\r\n        presales.add(_presaleAddress);\r\n        emit presaleRegistered(_presaleAddress);\r\n    }\r\n\r\n    /**\r\n     * @notice Number of allowed PresaleGenerators\r\n     */\r\n    function presaleGeneratorsLength() external view returns (uint256) {\r\n        return presaleGenerators.length();\r\n    }\r\n\r\n    /**\r\n     * @notice Gets the address of a registered PresaleGenerator at specified index\r\n     */\r\n    function presaleGeneratorAtIndex(uint256 _index)\r\n        external\r\n        view\r\n        returns (address)\r\n    {\r\n        return presaleGenerators.at(_index);\r\n    }\r\n\r\n    /**\r\n     * @notice returns true if the presale address was generated by the DAOLaunch presale platform\r\n     */\r\n    function presaleIsRegistered(address _presaleAddress)\r\n        external\r\n        view\r\n        returns (bool)\r\n    {\r\n        return presales.contains(_presaleAddress);\r\n    }\r\n\r\n    /**\r\n     * @notice The length of all presales on the platform\r\n     */\r\n    function presalesLength() external view returns (uint256) {\r\n        return presales.length();\r\n    }\r\n\r\n    /**\r\n     * @notice gets a presale at a specific index. Although using Enumerable Set, since presales are only added and not removed, indexes will never change\r\n     * @return the address of the Presale contract at index\r\n     */\r\n    function presaleAtIndex(uint256 _index) external view returns (address) {\r\n        return presales.at(_index);\r\n    }\r\n}\r\n",
  "sourcePath": "C:\\Users\\Admin\\Desktop\\Test_DAOLaunch\\contracts\\common\\PresaleFactory.sol",
  "compiler": {
    "name": "solc",
    "version": "0.8.0+commit.c7dfd78e.Emscripten.clang"
  },
  "schemaVersion": "3.4.4",
  "updatedAt": "2022-04-10T09:53:49.078Z",
  "devdoc": {
    "kind": "dev",
    "methods": {
      "owner()": {
        "details": "Returns the address of the current owner."
      },
      "presaleAtIndex(uint256)": {
        "returns": {
          "_0": "the address of the Presale contract at index"
        }
      },
      "renounceOwnership()": {
        "details": "Leaves the contract without owner. It will not be possible to call `onlyOwner` functions anymore. Can only be called by the current owner. NOTE: Renouncing ownership will leave the contract without an owner, thereby removing any functionality that is only available to the owner."
      },
      "transferOwnership(address)": {
        "details": "Transfers ownership of the contract to a new account (`newOwner`). Can only be called by the current owner."
      }
    },
    "version": 1
  },
  "userdoc": {
    "kind": "user",
    "methods": {
      "presaleAtIndex(uint256)": {
        "notice": "gets a presale at a specific index. Although using Enumerable Set, since presales are only added and not removed, indexes will never change"
      },
      "presaleGeneratorAtIndex(uint256)": {
        "notice": "Gets the address of a registered PresaleGenerator at specified index"
      },
      "presaleGeneratorsLength()": {
        "notice": "Number of allowed PresaleGenerators"
      },
      "presaleIsRegistered(address)": {
        "notice": "returns true if the presale address was generated by the DAOLaunch presale platform"
      },
      "presalesLength()": {
        "notice": "The length of all presales on the platform"
      },
      "registerPresale(address)": {
        "notice": "called by a registered PresaleGenerator upon Presale creation"
      }
    },
    "version": 1
  }
}