{
  "contractName": "Presale01",
  "abi": [
    {
      "inputs": [
        {
          "internalType": "address",
          "name": "_presaleGenerator",
          "type": "address"
        },
        {
          "internalType": "address[]",
          "name": "_admins",
          "type": "address[]"
        }
      ],
      "stateMutability": "payable",
      "type": "constructor",
      "payable": true
    },
    {
      "inputs": [
        {
          "internalType": "address",
          "name": "",
          "type": "address"
        }
      ],
      "name": "BUYERS",
      "outputs": [
        {
          "internalType": "uint256",
          "name": "baseDeposited",
          "type": "uint256"
        },
        {
          "internalType": "uint256",
          "name": "tokensOwed",
          "type": "uint256"
        },
        {
          "internalType": "uint256",
          "name": "lastWithdraw",
          "type": "uint256"
        },
        {
          "internalType": "uint256",
          "name": "totalTokenWithdraw",
          "type": "uint256"
        },
        {
          "internalType": "bool",
          "name": "isWithdrawnBase",
          "type": "bool"
        }
      ],
      "stateMutability": "view",
      "type": "function",
      "constant": true
    },
    {
      "inputs": [],
      "name": "CALLER",
      "outputs": [
        {
          "internalType": "address payable",
          "name": "",
          "type": "address"
        }
      ],
      "stateMutability": "view",
      "type": "function",
      "constant": true
    },
    {
      "inputs": [],
      "name": "DAOLAUNCH_DEV",
      "outputs": [
        {
          "internalType": "address payable",
          "name": "",
          "type": "address"
        }
      ],
      "stateMutability": "view",
      "type": "function",
      "constant": true
    },
    {
      "inputs": [],
      "name": "GAS_LIMIT",
      "outputs": [
        {
          "internalType": "uint256",
          "name": "transferPresaleOwner",
          "type": "uint256"
        },
        {
          "internalType": "uint256",
          "name": "listOnUniswap",
          "type": "uint256"
        }
      ],
      "stateMutability": "view",
      "type": "function",
      "constant": true
    },
    {
      "inputs": [],
      "name": "PERCENT_FEE",
      "outputs": [
        {
          "internalType": "uint8",
          "name": "",
          "type": "uint8"
        }
      ],
      "stateMutability": "view",
      "type": "function",
      "constant": true
    },
    {
      "inputs": [],
      "name": "PRESALE_FEE_INFO",
      "outputs": [
        {
          "internalType": "uint256",
          "name": "DAOLAUNCH_BASE_FEE",
          "type": "uint256"
        },
        {
          "internalType": "uint256",
          "name": "DAOLAUNCH_TOKEN_FEE",
          "type": "uint256"
        },
        {
          "internalType": "address payable",
          "name": "BASE_FEE_ADDRESS",
          "type": "address"
        },
        {
          "internalType": "address payable",
          "name": "TOKEN_FEE_ADDRESS",
          "type": "address"
        }
      ],
      "stateMutability": "view",
      "type": "function",
      "constant": true
    },
    {
      "inputs": [],
      "name": "PRESALE_GENERATOR",
      "outputs": [
        {
          "internalType": "address",
          "name": "",
          "type": "address"
        }
      ],
      "stateMutability": "view",
      "type": "function",
      "constant": true
    },
    {
      "inputs": [],
      "name": "PRESALE_LOCK_FORWARDER",
      "outputs": [
        {
          "internalType": "contract IPresaleLockForwarder",
          "name": "",
          "type": "address"
        }
      ],
      "stateMutability": "view",
      "type": "function",
      "constant": true
    },
    {
      "inputs": [],
      "name": "PRESALE_SETTINGS",
      "outputs": [
        {
          "internalType": "contract IPresaleSettings",
          "name": "",
          "type": "address"
        }
      ],
      "stateMutability": "view",
      "type": "function",
      "constant": true
    },
    {
      "inputs": [],
      "name": "STATUS",
      "outputs": [
        {
          "internalType": "bool",
          "name": "WHITELIST_ONLY",
          "type": "bool"
        },
        {
          "internalType": "bool",
          "name": "LIST_ON_UNISWAP",
          "type": "bool"
        },
        {
          "internalType": "bool",
          "name": "IS_TRANSFERED_FEE",
          "type": "bool"
        },
        {
          "internalType": "bool",
          "name": "IS_OWNER_WITHDRAWN",
          "type": "bool"
        },
        {
          "internalType": "uint256",
          "name": "TOTAL_BASE_COLLECTED",
          "type": "uint256"
        },
        {
          "internalType": "uint256",
          "name": "TOTAL_TOKENS_SOLD",
          "type": "uint256"
        },
        {
          "internalType": "uint256",
          "name": "TOTAL_TOKENS_WITHDRAWN",
          "type": "uint256"
        },
        {
          "internalType": "uint256",
          "name": "TOTAL_BASE_WITHDRAWN",
          "type": "uint256"
        },
        {
          "internalType": "uint256",
          "name": "NUM_BUYERS",
          "type": "uint256"
        }
      ],
      "stateMutability": "view",
      "type": "function",
      "constant": true
    },
    {
      "inputs": [],
      "name": "TOTAL_FEE",
      "outputs": [
        {
          "internalType": "uint256",
          "name": "",
          "type": "uint256"
        }
      ],
      "stateMutability": "view",
      "type": "function",
      "constant": true
    },
    {
      "inputs": [],
      "name": "TOTAL_FEES_REFUNDED",
      "outputs": [
        {
          "internalType": "uint256",
          "name": "",
          "type": "uint256"
        }
      ],
      "stateMutability": "view",
      "type": "function",
      "constant": true
    },
    {
      "inputs": [],
      "name": "TOTAL_TOKENS_REFUNDED",
      "outputs": [
        {
          "internalType": "uint256",
          "name": "",
          "type": "uint256"
        }
      ],
      "stateMutability": "view",
      "type": "function",
      "constant": true
    },
    {
      "inputs": [],
      "name": "UNI_FACTORY",
      "outputs": [
        {
          "internalType": "contract IUniswapV2Factory",
          "name": "",
          "type": "address"
        }
      ],
      "stateMutability": "view",
      "type": "function",
      "constant": true
    },
    {
      "inputs": [
        {
          "internalType": "address",
          "name": "",
          "type": "address"
        }
      ],
      "name": "USER_FEES",
      "outputs": [
        {
          "internalType": "uint256",
          "name": "",
          "type": "uint256"
        }
      ],
      "stateMutability": "view",
      "type": "function",
      "constant": true
    },
    {
      "inputs": [],
      "name": "VESTING_PERIOD",
      "outputs": [
        {
          "internalType": "uint256",
          "name": "firstDistributionType",
          "type": "uint256"
        },
        {
          "internalType": "uint256",
          "name": "firstUnlockRate",
          "type": "uint256"
        },
        {
          "internalType": "uint256",
          "name": "distributionInterval",
          "type": "uint256"
        },
        {
          "internalType": "uint256",
          "name": "unlockRateEachTime",
          "type": "uint256"
        },
        {
          "internalType": "uint256",
          "name": "maxPeriod",
          "type": "uint256"
        }
      ],
      "stateMutability": "view",
      "type": "function",
      "constant": true
    },
    {
      "inputs": [],
      "name": "WETH",
      "outputs": [
        {
          "internalType": "contract IWETH",
          "name": "",
          "type": "address"
        }
      ],
      "stateMutability": "view",
      "type": "function",
      "constant": true
    },
    {
      "inputs": [
        {
          "internalType": "address",
          "name": "",
          "type": "address"
        }
      ],
      "name": "admins",
      "outputs": [
        {
          "internalType": "bool",
          "name": "",
          "type": "bool"
        }
      ],
      "stateMutability": "view",
      "type": "function",
      "constant": true
    },
    {
      "inputs": [
        {
          "internalType": "address payable",
          "name": "_presaleOwner",
          "type": "address"
        },
        {
          "internalType": "uint256[11]",
          "name": "data",
          "type": "uint256[11]"
        }
      ],
      "name": "init1",
      "outputs": [],
      "stateMutability": "nonpayable",
      "type": "function"
    },
    {
      "inputs": [
        {
          "internalType": "contract IERC20Custom",
          "name": "_baseToken",
          "type": "address"
        },
        {
          "internalType": "contract IERC20Custom",
          "name": "_presaleToken",
          "type": "address"
        },
        {
          "internalType": "uint256[3]",
          "name": "data",
          "type": "uint256[3]"
        },
        {
          "internalType": "address payable",
          "name": "_baseFeeAddress",
          "type": "address"
        },
        {
          "internalType": "address payable",
          "name": "_tokenFeeAddress",
          "type": "address"
        }
      ],
      "name": "init2",
      "outputs": [],
      "stateMutability": "nonpayable",
      "type": "function"
    },
    {
      "inputs": [
        {
          "internalType": "bool",
          "name": "is_white_list",
          "type": "bool"
        },
        {
          "internalType": "address payable",
          "name": "_caller",
          "type": "address"
        },
        {
          "internalType": "uint256[5]",
          "name": "data",
          "type": "uint256[5]"
        },
        {
          "internalType": "uint8",
          "name": "_addLP",
          "type": "uint8"
        },
        {
          "internalType": "uint8",
          "name": "_percentFee",
          "type": "uint8"
        }
      ],
      "name": "init3",
      "outputs": [],
      "stateMutability": "nonpayable",
      "type": "function"
    },
    {
      "inputs": [],
      "name": "presaleStatus",
      "outputs": [
        {
          "internalType": "uint256",
          "name": "",
          "type": "uint256"
        }
      ],
      "stateMutability": "view",
      "type": "function",
      "constant": true
    },
    {
      "inputs": [
        {
          "internalType": "uint256",
          "name": "_amount",
          "type": "uint256"
        },
        {
          "internalType": "uint8",
          "name": "_v",
          "type": "uint8"
        },
        {
          "internalType": "bytes32",
          "name": "_r",
          "type": "bytes32"
        },
        {
          "internalType": "bytes32",
          "name": "_s",
          "type": "bytes32"
        }
      ],
      "name": "userDeposit",
      "outputs": [],
      "stateMutability": "payable",
      "type": "function",
      "payable": true
    },
    {
      "inputs": [],
      "name": "userWithdrawTokens",
      "outputs": [],
      "stateMutability": "nonpayable",
      "type": "function"
    },
    {
      "inputs": [],
      "name": "userWithdrawBaseTokens",
      "outputs": [],
      "stateMutability": "nonpayable",
      "type": "function"
    },
    {
      "inputs": [],
      "name": "ownerRefundTokens",
      "outputs": [],
      "stateMutability": "nonpayable",
      "type": "function"
    },
    {
      "inputs": [],
      "name": "listOnUniswap",
      "outputs": [],
      "stateMutability": "nonpayable",
      "type": "function"
    },
    {
      "inputs": [],
      "name": "ownerWithdrawTokens",
      "outputs": [],
      "stateMutability": "nonpayable",
      "type": "function"
    }
  ],
  "bytecode": "0x608060405260405162006314380380620063148339818101604052810190620000299190620003cd565b600160008190555081601b60006101000a81548173ffffffffffffffffffffffffffffffffffffffff021916908373ffffffffffffffffffffffffffffffffffffffff16021790555073ca143ce32fe78f1f7019d7d551a6402fc5350c73601e60006101000a81548173ffffffffffffffffffffffffffffffffffffffff021916908373ffffffffffffffffffffffffffffffffffffffff16021790555073bb4cdb9cbd36b01bd1cbaebf2de08d9173bc095c601f60006101000a81548173ffffffffffffffffffffffffffffffffffffffff021916908373ffffffffffffffffffffffffffffffffffffffff16021790555073cfb2cb97028c4e2fe6b868d685c00ab96e6ec370601d60006101000a81548173ffffffffffffffffffffffffffffffffffffffff021916908373ffffffffffffffffffffffffffffffffffffffff1602179055507357f443f5a891fc53c43b6d9fb850fc068af76bf4601c60006101000a81548173ffffffffffffffffffffffffffffffffffffffff021916908373ffffffffffffffffffffffffffffffffffffffff160217905550604051806040016040528062030d408152602001623d0900815250602260008201518160000155602082015181600101559050507375d69272c5a9d6fcec0d68c547776c7195f73fea602460006101000a81548173ffffffffffffffffffffffffffffffffffffffff021916908373ffffffffffffffffffffffffffffffffffffffff16021790555060005b81518110156200030b576001602a60008484815181106200029c577f4e487b7100000000000000000000000000000000000000000000000000000000600052603260045260246000fd5b602002602001015173ffffffffffffffffffffffffffffffffffffffff1673ffffffffffffffffffffffffffffffffffffffff16815260200190815260200160002060006101000a81548160ff02191690831515021790555080806200030290620004c8565b91505062000252565b5050506200058e565b60006200032b62000325846200045b565b62000427565b905080838252602082019050828560208602820111156200034b57600080fd5b60005b858110156200037f578162000364888262000389565b8452602084019350602083019250506001810190506200034e565b5050509392505050565b6000815190506200039a8162000574565b92915050565b600082601f830112620003b257600080fd5b8151620003c484826020860162000314565b91505092915050565b60008060408385031215620003e157600080fd5b6000620003f18582860162000389565b925050602083015167ffffffffffffffff8111156200040f57600080fd5b6200041d85828601620003a0565b9150509250929050565b6000604051905081810181811067ffffffffffffffff8211171562000451576200045062000545565b5b8060405250919050565b600067ffffffffffffffff82111562000479576200047862000545565b5b602082029050602081019050919050565b600062000497826200049e565b9050919050565b600073ffffffffffffffffffffffffffffffffffffffff82169050919050565b6000819050919050565b6000620004d582620004be565b91507fffffffffffffffffffffffffffffffffffffffffffffffffffffffffffffffff8214156200050b576200050a62000516565b5b600182019050919050565b7f4e487b7100000000000000000000000000000000000000000000000000000000600052601160045260246000fd5b7f4e487b7100000000000000000000000000000000000000000000000000000000600052604160045260246000fd5b6200057f816200048a565b81146200058b57600080fd5b50565b615d76806200059e6000396000f3fe6080604052600436106101b75760003560e01c806388bb1cf5116100ec578063acfb23551161008a578063c870279e11610064578063c870279e1461058f578063e33865b3146105ba578063f329c9cf146105ed578063fe8121de1461062a576101b7565b8063acfb235514610522578063ad5c46481461054d578063c39e7dbb14610578576101b7565b806397357124116100c6578063973571241461048b5780639c221f97146104b4578063a5d0de8c146104dd578063a94e7e801461050b576101b7565b806388bb1cf51461041957806389fc005614610435578063900f11ef14610460576101b7565b806356662d561161015957806367766e811161013357806367766e81146103835780637ad8fdc1146103ac5780637bfc6600146103c3578063863dabb4146103ee576101b7565b806356662d56146103165780635fd5ff481461034157806363db7eae14610358576101b7565b80630bbebba4116101955780630bbebba41461024257806310c55f2b1461026d5780633fa1c85c146102ae578063429b62e5146102d9576101b7565b80630197d972146101bc578063091d2788146101eb5780630a75da1914610217575b600080fd5b3480156101c857600080fd5b506101d1610641565b6040516101e295949392919061560c565b60405180910390f35b3480156101f757600080fd5b50610200610665565b60405161020e92919061554b565b60405180910390f35b34801561022357600080fd5b5061022c610677565b6040516102399190614f89565b60405180910390f35b34801561024e57600080fd5b5061025761069d565b60405161026491906151bf565b60405180910390f35b34801561027957600080fd5b50610294600480360381019061028f9190614527565b6106c3565b6040516102a59594939291906155b9565b60405180910390f35b3480156102ba57600080fd5b506102c3610705565b6040516102d0919061565f565b60405180910390f35b3480156102e557600080fd5b5061030060048036038101906102fb9190614527565b610718565b60405161030d9190615056565b60405180910390f35b34801561032257600080fd5b5061032b610738565b6040516103389190615530565b60405180910390f35b34801561034d57600080fd5b5061035661073e565b005b34801561036457600080fd5b5061036d61098e565b60405161037a9190615530565b60405180910390f35b34801561038f57600080fd5b506103aa60048036038101906103a5919061462f565b610994565b005b3480156103b857600080fd5b506103c1610c7f565b005b3480156103cf57600080fd5b506103d861202b565b6040516103e591906151a4565b60405180910390f35b3480156103fa57600080fd5b50610403612051565b6040516104109190614f89565b60405180910390f35b610433600480360381019061042e91906146cf565b612077565b005b34801561044157600080fd5b5061044a612540565b60405161045791906151da565b60405180910390f35b34801561046c57600080fd5b50610475612566565b6040516104829190615530565b60405180910390f35b34801561049757600080fd5b506104b260048036038101906104ad91906145b6565b61256c565b005b3480156104c057600080fd5b506104db60048036038101906104d69190614550565b612802565b005b3480156104e957600080fd5b506104f2612bf2565b6040516105029493929190615574565b60405180910390f35b34801561051757600080fd5b50610520612c50565b005b34801561052e57600080fd5b506105376134f5565b6040516105449190615530565b60405180910390f35b34801561055957600080fd5b50610562613598565b60405161056f91906151f5565b60405180910390f35b34801561058457600080fd5b5061058d6135be565b005b34801561059b57600080fd5b506105a461377b565b6040516105b19190614f6e565b60405180910390f35b3480156105c657600080fd5b506105cf6137a1565b6040516105e499989796959493929190615071565b60405180910390f35b3480156105f957600080fd5b50610614600480360381019061060f9190614527565b613811565b6040516106219190615530565b60405180910390f35b34801561063657600080fd5b5061063f613829565b005b60258060000154908060010154908060020154908060030154908060040154905085565b60228060000154908060010154905082565b602460009054906101000a900473ffffffffffffffffffffffffffffffffffffffff1681565b601d60009054906101000a900473ffffffffffffffffffffffffffffffffffffffff1681565b602080528060005260406000206000915090508060000154908060010154908060020154908060030154908060040160009054906101000a900460ff16905085565b602c60009054906101000a900460ff1681565b602a6020528060005260406000206000915054906101000a900460ff1681565b602e5481565b3373ffffffffffffffffffffffffffffffffffffffff16600160000160009054906101000a900473ffffffffffffffffffffffffffffffffffffffff1673ffffffffffffffffffffffffffffffffffffffff16146107d1576040517f08c379a00000000000000000000000000000000000000000000000000000000081526004016107c8906154f0565b60405180910390fd5b60036107db6134f5565b1461081b576040517f08c379a000000000000000000000000000000000000000000000000000000000815260040161081290615430565b60405180910390fd5b601560000160039054906101000a900460ff161561086e576040517f08c379a0000000000000000000000000000000000000000000000000000000008152600401610865906152f0565b60405180910390fd5b61096e6001800160009054906101000a900473ffffffffffffffffffffffffffffffffffffffff16600160000160009054906101000a900473ffffffffffffffffffffffffffffffffffffffff166001800160009054906101000a900473ffffffffffffffffffffffffffffffffffffffff1673ffffffffffffffffffffffffffffffffffffffff166370a08231306040518263ffffffff1660e01b81526004016109199190614f6e565b60206040518083038186803b15801561093157600080fd5b505afa158015610945573d6000803e3d6000fd5b505050506040513d601f19601f8201168201806040525081019061096991906146a6565b613c8b565b6001601560000160036101000a81548160ff021916908315150217905550565b602b5481565b601b60009054906101000a900473ffffffffffffffffffffffffffffffffffffffff1673ffffffffffffffffffffffffffffffffffffffff163373ffffffffffffffffffffffffffffffffffffffff1614610a24576040517f08c379a0000000000000000000000000000000000000000000000000000000008152600401610a1b906153f0565b60405180910390fd5b601f60009054906101000a900473ffffffffffffffffffffffffffffffffffffffff1673ffffffffffffffffffffffffffffffffffffffff168573ffffffffffffffffffffffffffffffffffffffff16146001600f0160006101000a81548160ff021916908315150217905550836001800160006101000a81548173ffffffffffffffffffffffffffffffffffffffff021916908373ffffffffffffffffffffffffffffffffffffffff16021790555084600160020160006101000a81548173ffffffffffffffffffffffffffffffffffffffff021916908373ffffffffffffffffffffffffffffffffffffffff16021790555082600060038110610b52577f4e487b7100000000000000000000000000000000000000000000000000000000600052603260045260246000fd5b602002015160116000018190555082600160038110610b9a577f4e487b7100000000000000000000000000000000000000000000000000000000600052603260045260246000fd5b602002015160116001018190555082600260038110610be2577f4e487b7100000000000000000000000000000000000000000000000000000000600052603260045260246000fd5b60200201516001600e018190555081601160020160006101000a81548173ffffffffffffffffffffffffffffffffffffffff021916908373ffffffffffffffffffffffffffffffffffffffff16021790555080601160030160006101000a81548173ffffffffffffffffffffffffffffffffffffffff021916908373ffffffffffffffffffffffffffffffffffffffff1602179055505050505050565b3373ffffffffffffffffffffffffffffffffffffffff16602160009054906101000a900473ffffffffffffffffffffffffffffffffffffffff1673ffffffffffffffffffffffffffffffffffffffff1614610d0f576040517f08c379a0000000000000000000000000000000000000000000000000000000008152600401610d0690615250565b60405180910390fd5b60006001600e015411610d57576040517f08c379a0000000000000000000000000000000000000000000000000000000008152600401610d4e906153d0565b60405180910390fd5b620151806001600e0154610d6b919061574f565b4211610dac576040517f08c379a0000000000000000000000000000000000000000000000000000000008152600401610da390615350565b60405180910390fd5b6002610db66134f5565b14610df6576040517f08c379a0000000000000000000000000000000000000000000000000000000008152600401610ded906152b0565b60405180910390fd5b601560000160029054906101000a900460ff1615610e49576040517f08c379a0000000000000000000000000000000000000000000000000000000008152600401610e4090615270565b60405180910390fd5b60026001600f0160019054906101000a900460ff1660ff16141561124857610efc600160020160009054906101000a900473ffffffffffffffffffffffffffffffffffffffff16601160020160009054906101000a900473ffffffffffffffffffffffffffffffffffffffff16602f54602e54602b54601560010154610ecf919061574f565b610ed991906159d5565b610ee391906159d5565b6001600f0160009054906101000a900460ff1615613dc1565b60006001800160009054906101000a900473ffffffffffffffffffffffffffffffffffffffff1673ffffffffffffffffffffffffffffffffffffffff166370a08231306040518263ffffffff1660e01b8152600401610f5b9190614f6e565b60206040518083038186803b158015610f7357600080fd5b505afa158015610f87573d6000803e3d6000fd5b505050506040513d601f19601f82011682018060405250810190610fab91906146a6565b90506110016001800160009054906101000a900473ffffffffffffffffffffffffffffffffffffffff16601160030160009054906101000a900473ffffffffffffffffffffffffffffffffffffffff1683613c8b565b60006022600001543a6110149190615947565b9050601d60009054906101000a900473ffffffffffffffffffffffffffffffffffffffff1673ffffffffffffffffffffffffffffffffffffffff1663e38ef7a36040518163ffffffff1660e01b815260040160206040518083038186803b15801561107e57600080fd5b505afa158015611092573d6000803e3d6000fd5b505050506040513d601f19601f820116820180604052508101906110b691906146a6565b8111156110c257600080fd5b602160009054906101000a900473ffffffffffffffffffffffffffffffffffffffff1673ffffffffffffffffffffffffffffffffffffffff166108fc829081150290604051600060405180830381858888f1935050505015801561112a573d6000803e3d6000fd5b50600160000160009054906101000a900473ffffffffffffffffffffffffffffffffffffffff1673ffffffffffffffffffffffffffffffffffffffff166108fc82601d60009054906101000a900473ffffffffffffffffffffffffffffffffffffffff1673ffffffffffffffffffffffffffffffffffffffff1663e38ef7a36040518163ffffffff1660e01b815260040160206040518083038186803b1580156111d357600080fd5b505afa1580156111e7573d6000803e3d6000fd5b505050506040513d601f19601f8201168201806040525081019061120b91906146a6565b61121591906159d5565b9081150290604051600060405180830381858888f19350505050158015611240573d6000803e3d6000fd5b505050612029565b60006103e8601160000154602e5460156001015461126691906159d5565b6112709190615947565b61127a91906157a5565b905060006103e860016009015483602e5460156001015461129b91906159d5565b6112a591906159d5565b6112af9190615947565b6112b991906157a5565b905060006001600f0160019054906101000a900460ff1660ff161480156112e05750600081115b80156112fb57506001600f0160009054906101000a900460ff165b1561138457601f60009054906101000a900473ffffffffffffffffffffffffffffffffffffffff1673ffffffffffffffffffffffffffffffffffffffff1663d0e30db0826040518263ffffffff1660e01b81526004016000604051808303818588803b15801561136a57600080fd5b505af115801561137e573d6000803e3d6000fd5b50505050505b60006001600f0160019054906101000a900460ff1660ff161480156113a95750600081115b1561140157611400600160020160009054906101000a900473ffffffffffffffffffffffffffffffffffffffff16601c60009054906101000a900473ffffffffffffffffffffffffffffffffffffffff1683613f4a565b5b6000600160020160009054906101000a900473ffffffffffffffffffffffffffffffffffffffff1673ffffffffffffffffffffffffffffffffffffffff1663313ce5676040518163ffffffff1660e01b815260040160206040518083038186803b15801561146e57600080fd5b505afa158015611482573d6000803e3d6000fd5b505050506040513d601f19601f820116820180604052508101906114a69190614732565b60ff16600a6114b59190615829565b6001600a0154836114c69190615947565b6114d091906157a5565b905060006103e86011600101546015600201546114ed9190615947565b6114f791906157a5565b90506000602b5485611509919061574f565b111561158657611585600160020160009054906101000a900473ffffffffffffffffffffffffffffffffffffffff16601160020160009054906101000a900473ffffffffffffffffffffffffffffffffffffffff16602b548761156c919061574f565b6001600f0160009054906101000a900460ff1615613dc1565b5b60008111156115e4576115e36001800160009054906101000a900473ffffffffffffffffffffffffffffffffffffffff16601160030160009054906101000a900473ffffffffffffffffffffffffffffffffffffffff1683613c8b565b5b6001601560000160026101000a81548160ff021916908315150217905550600180600f0160019054906101000a900460ff1660ff1614806116255750600083145b156119955760006022600001543a61163d9190615947565b9050601d60009054906101000a900473ffffffffffffffffffffffffffffffffffffffff1673ffffffffffffffffffffffffffffffffffffffff1663e38ef7a36040518163ffffffff1660e01b815260040160206040518083038186803b1580156116a757600080fd5b505afa1580156116bb573d6000803e3d6000fd5b505050506040513d601f19601f820116820180604052508101906116df91906146a6565b8111156116eb57600080fd5b600084141561180f57600160000160009054906101000a900473ffffffffffffffffffffffffffffffffffffffff1673ffffffffffffffffffffffffffffffffffffffff166108fc82601d60009054906101000a900473ffffffffffffffffffffffffffffffffffffffff1673ffffffffffffffffffffffffffffffffffffffff1663e38ef7a36040518163ffffffff1660e01b815260040160206040518083038186803b15801561179c57600080fd5b505afa1580156117b0573d6000803e3d6000fd5b505050506040513d601f19601f820116820180604052508101906117d491906146a6565b6117de91906159d5565b9081150290604051600060405180830381858888f19350505050158015611809573d6000803e3d6000fd5b50611926565b601160020160009054906101000a900473ffffffffffffffffffffffffffffffffffffffff1673ffffffffffffffffffffffffffffffffffffffff166108fc82601d60009054906101000a900473ffffffffffffffffffffffffffffffffffffffff1673ffffffffffffffffffffffffffffffffffffffff1663e38ef7a36040518163ffffffff1660e01b815260040160206040518083038186803b1580156118b757600080fd5b505afa1580156118cb573d6000803e3d6000fd5b505050506040513d601f19601f820116820180604052508101906118ef91906146a6565b6118f991906159d5565b9081150290604051600060405180830381858888f19350505050158015611924573d6000803e3d6000fd5b505b602160009054906101000a900473ffffffffffffffffffffffffffffffffffffffff1673ffffffffffffffffffffffffffffffffffffffff166108fc829081150290604051600060405180830381858888f1935050505015801561198e573d6000803e3d6000fd5b5050611bd7565b60006022600101543a6119a89190615947565b9050601d60009054906101000a900473ffffffffffffffffffffffffffffffffffffffff1673ffffffffffffffffffffffffffffffffffffffff1663e38ef7a36040518163ffffffff1660e01b815260040160206040518083038186803b158015611a1257600080fd5b505afa158015611a26573d6000803e3d6000fd5b505050506040513d601f19601f82011682018060405250810190611a4a91906146a6565b811115611a5657600080fd5b601160020160009054906101000a900473ffffffffffffffffffffffffffffffffffffffff1673ffffffffffffffffffffffffffffffffffffffff166108fc82601d60009054906101000a900473ffffffffffffffffffffffffffffffffffffffff1673ffffffffffffffffffffffffffffffffffffffff1663e38ef7a36040518163ffffffff1660e01b815260040160206040518083038186803b158015611afe57600080fd5b505afa158015611b12573d6000803e3d6000fd5b505050506040513d601f19601f82011682018060405250810190611b3691906146a6565b611b4091906159d5565b9081150290604051600060405180830381858888f19350505050158015611b6b573d6000803e3d6000fd5b50602160009054906101000a900473ffffffffffffffffffffffffffffffffffffffff1673ffffffffffffffffffffffffffffffffffffffff166108fc829081150290604051600060405180830381858888f19350505050158015611bd4573d6000803e3d6000fd5b50505b600180600f0160019054906101000a900460ff1660ff161415611cb657611c5d600160020160009054906101000a900473ffffffffffffffffffffffffffffffffffffffff16601160020160009054906101000a900473ffffffffffffffffffffffffffffffffffffffff16856001600f0160009054906101000a900460ff1615613dc1565b611cb16001800160009054906101000a900473ffffffffffffffffffffffffffffffffffffffff16601160020160009054906101000a900473ffffffffffffffffffffffffffffffffffffffff1684613c8b565b612006565b600083111561200557601c60009054906101000a900473ffffffffffffffffffffffffffffffffffffffff1673ffffffffffffffffffffffffffffffffffffffff16638d8c70bb6001800160009054906101000a900473ffffffffffffffffffffffffffffffffffffffff16600160020160009054906101000a900473ffffffffffffffffffffffffffffffffffffffff166040518363ffffffff1660e01b8152600401611d65929190614fcd565b60206040518083038186803b158015611d7d57600080fd5b505afa158015611d91573d6000803e3d6000fd5b505050506040513d601f19601f82011682018060405250810190611db5919061458d565b15611e9e576001601560000160016101000a81548160ff021916908315150217905550611e41600160020160009054906101000a900473ffffffffffffffffffffffffffffffffffffffff16600160000160009054906101000a900473ffffffffffffffffffffffffffffffffffffffff16856001600f0160009054906101000a900460ff1615613dc1565b611e956001800160009054906101000a900473ffffffffffffffffffffffffffffffffffffffff16600160000160009054906101000a900473ffffffffffffffffffffffffffffffffffffffff1684613c8b565b50505050612029565b611eef6001800160009054906101000a900473ffffffffffffffffffffffffffffffffffffffff16601c60009054906101000a900473ffffffffffffffffffffffffffffffffffffffff1684613f4a565b601c60009054906101000a900473ffffffffffffffffffffffffffffffffffffffff1673ffffffffffffffffffffffffffffffffffffffff16632277d0e3600160020160009054906101000a900473ffffffffffffffffffffffffffffffffffffffff166001800160009054906101000a900473ffffffffffffffffffffffffffffffffffffffff1686866001600d015442611f8b919061574f565b600160000160009054906101000a900473ffffffffffffffffffffffffffffffffffffffff166040518763ffffffff1660e01b8152600401611fd296959493929190615143565b600060405180830381600087803b158015611fec57600080fd5b505af1158015612000573d6000803e3d6000fd5b505050505b5b6001601560000160016101000a81548160ff021916908315150217905550505050505b565b601c60009054906101000a900473ffffffffffffffffffffffffffffffffffffffff1681565b602160009054906101000a900473ffffffffffffffffffffffffffffffffffffffff1681565b828282601560000160009054906101000a900460ff16156120de5761209e33848484614080565b6120dd576040517f08c379a00000000000000000000000000000000000000000000000000000000081526004016120d4906153b0565b60405180910390fd5b5b60026000541415612124576040517f08c379a000000000000000000000000000000000000000000000000000000000815260040161211b906154d0565b60405180910390fd5b600260008190555060016121366134f5565b14612176576040517f08c379a000000000000000000000000000000000000000000000000000000000815260040161216d90615370565b60405180910390fd5b6000602060003373ffffffffffffffffffffffffffffffffffffffff1673ffffffffffffffffffffffffffffffffffffffff168152602001908152602001600020905060006001600f0160009054906101000a900460ff166121d857886121da565b345b905060008190506000601560000160009054906101000a900460ff16612247576103e8602c60009054906101000a900460ff1660ff166103e861221d91906159a1565b61ffff168361222c9190615947565b61223691906157a5565b9150818361224491906159d5565b90505b60016005015482101561228f576040517f08c379a000000000000000000000000000000000000000000000000000000000815260040161228690615390565b60405180910390fd5b600084600001546001600401546122a691906159d5565b905060006015600101546001600701546122c091906159d5565b90508082116122cf57816122d1565b805b9150818411156122df578193505b6000600160030154856122f29190615947565b905060008111612337576040517f08c379a000000000000000000000000000000000000000000000000000000000815260040161232e90615510565b60405180910390fd5b600087600001541415612360576015600501600081548092919061235a90615b81565b91905055505b838561236c919061574f565b87600001600082825461237f919061574f565b925050819055508087600101600082825461239a919061574f565b9250508190555084601560010160008282546123b6919061574f565b9250508190555080601560020160008282546123d2919061574f565b9250508190555083602d60003373ffffffffffffffffffffffffffffffffffffffff1673ffffffffffffffffffffffffffffffffffffffff1681526020019081526020016000206000828254612428919061574f565b9250508190555083602b6000828254612441919061574f565b925050819055506001600f0160009054906101000a900460ff168015612471575034848661246f919061574f565b105b156124d4573373ffffffffffffffffffffffffffffffffffffffff166108fc85873461249d91906159d5565b6124a791906159d5565b9081150290604051600060405180830381858888f193505050501580156124d2573d6000803e3d6000fd5b505b6001600f0160009054906101000a900460ff1661252857612527600160020160009054906101000a900473ffffffffffffffffffffffffffffffffffffffff1633308789612522919061574f565b61417e565b5b50505050505050600160008190555050505050505050565b601e60009054906101000a900473ffffffffffffffffffffffffffffffffffffffff1681565b602f5481565b601b60009054906101000a900473ffffffffffffffffffffffffffffffffffffffff1673ffffffffffffffffffffffffffffffffffffffff163373ffffffffffffffffffffffffffffffffffffffff16146125fc576040517f08c379a00000000000000000000000000000000000000000000000000000000081526004016125f3906153f0565b60405180910390fd5b84601560000160006101000a81548160ff02191690831515021790555083602160006101000a81548173ffffffffffffffffffffffffffffffffffffffff021916908373ffffffffffffffffffffffffffffffffffffffff16021790555082600060058110612694577f4e487b7100000000000000000000000000000000000000000000000000000000600052603260045260246000fd5b6020020151602560000181905550826001600581106126dc577f4e487b7100000000000000000000000000000000000000000000000000000000600052603260045260246000fd5b602002015160256001018190555082600260058110612724577f4e487b7100000000000000000000000000000000000000000000000000000000600052603260045260246000fd5b60200201516025600201819055508260036005811061276c577f4e487b7100000000000000000000000000000000000000000000000000000000600052603260045260246000fd5b6020020151602560030181905550826004600581106127b4577f4e487b7100000000000000000000000000000000000000000000000000000000600052603260045260246000fd5b6020020151602560040181905550816001600f0160016101000a81548160ff021916908360ff16021790555080602c60006101000a81548160ff021916908360ff1602179055505050505050565b601b60009054906101000a900473ffffffffffffffffffffffffffffffffffffffff1673ffffffffffffffffffffffffffffffffffffffff163373ffffffffffffffffffffffffffffffffffffffff1614612892576040517f08c379a0000000000000000000000000000000000000000000000000000000008152600401612889906153f0565b60405180910390fd5b81600160000160006101000a81548173ffffffffffffffffffffffffffffffffffffffff021916908373ffffffffffffffffffffffffffffffffffffffff160217905550806000600b8110612910577f4e487b7100000000000000000000000000000000000000000000000000000000600052603260045260246000fd5b6020020151600160060181905550806001600b8110612958577f4e487b7100000000000000000000000000000000000000000000000000000000600052603260045260246000fd5b6020020151600160030181905550806002600b81106129a0577f4e487b7100000000000000000000000000000000000000000000000000000000600052603260045260246000fd5b6020020151600160040181905550806003600b81106129e8577f4e487b7100000000000000000000000000000000000000000000000000000000600052603260045260246000fd5b6020020151600160050181905550806004600b8110612a30577f4e487b7100000000000000000000000000000000000000000000000000000000600052603260045260246000fd5b6020020151600160070181905550806005600b8110612a78577f4e487b7100000000000000000000000000000000000000000000000000000000600052603260045260246000fd5b6020020151600160080181905550806006600b8110612ac0577f4e487b7100000000000000000000000000000000000000000000000000000000600052603260045260246000fd5b6020020151600160090181905550806007600b8110612b08577f4e487b7100000000000000000000000000000000000000000000000000000000600052603260045260246000fd5b60200201516001600a0181905550806008600b8110612b50577f4e487b7100000000000000000000000000000000000000000000000000000000600052603260045260246000fd5b60200201516001600b0181905550806009600b8110612b98577f4e487b7100000000000000000000000000000000000000000000000000000000600052603260045260246000fd5b60200201516001600c018190555080600a600b8110612be0577f4e487b7100000000000000000000000000000000000000000000000000000000600052603260045260246000fd5b60200201516001600d01819055505050565b60118060000154908060010154908060020160009054906101000a900473ffffffffffffffffffffffffffffffffffffffff16908060030160009054906101000a900473ffffffffffffffffffffffffffffffffffffffff16905084565b60026000541415612c96576040517f08c379a0000000000000000000000000000000000000000000000000000000008152600401612c8d906154d0565b60405180910390fd5b60026000819055503373ffffffffffffffffffffffffffffffffffffffff16600160000160009054906101000a900473ffffffffffffffffffffffffffffffffffffffff1673ffffffffffffffffffffffffffffffffffffffff1614612d31576040517f08c379a0000000000000000000000000000000000000000000000000000000008152600401612d28906154f0565b60405180910390fd5b601560000160039054906101000a900460ff1615612d84576040517f08c379a0000000000000000000000000000000000000000000000000000000008152600401612d7b90615450565b60405180910390fd5b6002612d8e6134f5565b14612dce576040517f08c379a0000000000000000000000000000000000000000000000000000000008152600401612dc5906152b0565b60405180910390fd5b60026001600f0160019054906101000a900460ff1660ff161415612e27576040517f08c379a0000000000000000000000000000000000000000000000000000000008152600401612e1e90615310565b60405180910390fd5b60006001600e015411612e6f576040517f08c379a0000000000000000000000000000000000000000000000000000000008152600401612e66906153d0565b60405180910390fd5b620151806001600e0154612e83919061574f565b4211612ec4576040517f08c379a0000000000000000000000000000000000000000000000000000000008152600401612ebb90615350565b60405180910390fd5b60006103e8601160000154602e54601560010154612ee291906159d5565b612eec9190615947565b612ef691906157a5565b905060006103e860016009015483602e54601560010154612f1791906159d5565b612f2191906159d5565b612f2b9190615947565b612f3591906157a5565b905060006103e8601160010154601560020154612f529190615947565b612f5c91906157a5565b90506000600160020160009054906101000a900473ffffffffffffffffffffffffffffffffffffffff1673ffffffffffffffffffffffffffffffffffffffff1663313ce5676040518163ffffffff1660e01b815260040160206040518083038186803b158015612fcb57600080fd5b505afa158015612fdf573d6000803e3d6000fd5b505050506040513d601f19601f820116820180604052508101906130039190614732565b60ff16600a6130129190615829565b6001600a0154846130239190615947565b61302d91906157a5565b905060006015600201546015600301546001800160009054906101000a900473ffffffffffffffffffffffffffffffffffffffff1673ffffffffffffffffffffffffffffffffffffffff166370a08231306040518263ffffffff1660e01b815260040161309a9190614f6e565b60206040518083038186803b1580156130b257600080fd5b505afa1580156130c6573d6000803e3d6000fd5b505050506040513d601f19601f820116820180604052508101906130ea91906146a6565b6130f4919061574f565b6130fe91906159d5565b905060006001600f0160009054906101000a900460ff166131cc57600160020160009054906101000a900473ffffffffffffffffffffffffffffffffffffffff1673ffffffffffffffffffffffffffffffffffffffff166370a08231306040518263ffffffff1660e01b81526004016131779190614f6e565b60206040518083038186803b15801561318f57600080fd5b505afa1580156131a3573d6000803e3d6000fd5b505050506040513d601f19601f820116820180604052508101906131c791906146a6565b6131ce565b475b9050601560000160029054906101000a900460ff166132145785816131f391906159d5565b9050838261320191906159d5565b9150602b548161321191906159d5565b90505b601560000160019054906101000a900460ff1661331e576001600f0160009054906101000a900460ff161561330057601d60009054906101000a900473ffffffffffffffffffffffffffffffffffffffff1673ffffffffffffffffffffffffffffffffffffffff1663e38ef7a36040518163ffffffff1660e01b815260040160206040518083038186803b1580156132ab57600080fd5b505afa1580156132bf573d6000803e3d6000fd5b505050506040513d601f19601f820116820180604052508101906132e391906146a6565b856132ee919061574f565b816132f991906159d5565b905061330f565b848161330c91906159d5565b90505b828261331b91906159d5565b91505b6000600160020160009054906101000a900473ffffffffffffffffffffffffffffffffffffffff1673ffffffffffffffffffffffffffffffffffffffff1663313ce5676040518163ffffffff1660e01b815260040160206040518083038186803b15801561338b57600080fd5b505afa15801561339f573d6000803e3d6000fd5b505050506040513d601f19601f820116820180604052508101906133c39190614732565b60ff16600a6133d29190615829565b600160030154602e546133e59190615947565b6133ef91906157a5565b905080836133fd919061574f565b9250600083111561345d5761345c6001800160009054906101000a900473ffffffffffffffffffffffffffffffffffffffff16600160000160009054906101000a900473ffffffffffffffffffffffffffffffffffffffff1685613c8b565b5b6134c6600160020160009054906101000a900473ffffffffffffffffffffffffffffffffffffffff16600160000160009054906101000a900473ffffffffffffffffffffffffffffffffffffffff16846001600f0160009054906101000a900460ff1615613dc1565b6001601560000160036101000a81548160ff021916908315150217905550505050505050506001600081905550565b60006001600c0154421180156135145750600160080154601560010154105b156135225760039050613595565b6001600701546015600101541061353c5760029050613595565b6001600c01544211801561355a575060016008015460156001015410155b156135685760029050613595565b6001600b0154421015801561358257506001600c01544211155b156135905760019050613595565b600090505b90565b601f60009054906101000a900473ffffffffffffffffffffffffffffffffffffffff1681565b60026000541415613604576040517f08c379a00000000000000000000000000000000000000000000000000000000081526004016135fb906154d0565b60405180910390fd5b600260008190555060036136166134f5565b14613656576040517f08c379a000000000000000000000000000000000000000000000000000000000815260040161364d90615430565b60405180910390fd5b6000602060003373ffffffffffffffffffffffffffffffffffffffff1673ffffffffffffffffffffffffffffffffffffffff16815260200190815260200160002090508060040160009054906101000a900460ff16156136eb576040517f08c379a00000000000000000000000000000000000000000000000000000000081526004016136e290615230565b60405180910390fd5b806000015460156004016000828254613704919061574f565b92505081905550613753600160020160009054906101000a900473ffffffffffffffffffffffffffffffffffffffff163383600001546001600f0160009054906101000a900460ff1615613dc1565b60018160040160006101000a81548160ff021916908315150217905550506001600081905550565b601b60009054906101000a900473ffffffffffffffffffffffffffffffffffffffff1681565b60158060000160009054906101000a900460ff16908060000160019054906101000a900460ff16908060000160029054906101000a900460ff16908060000160039054906101000a900460ff16908060010154908060020154908060030154908060040154908060050154905089565b602d6020528060005260406000206000915090505481565b6002600054141561386f576040517f08c379a0000000000000000000000000000000000000000000000000000000008152600401613866906154d0565b60405180910390fd5b600260008190555060026138816134f5565b146138c1576040517f08c379a00000000000000000000000000000000000000000000000000000000081526004016138b8906152b0565b60405180910390fd5b602560000154421015613909576040517f08c379a000000000000000000000000000000000000000000000000000000000815260040161390090615410565b60405180910390fd5b600060156003015460156002015461392191906159d5565b11613961576040517f08c379a000000000000000000000000000000000000000000000000000000000815260040161395890615490565b60405180910390fd5b60026001600f0160019054906101000a900460ff1660ff1614156139ba576040517f08c379a00000000000000000000000000000000000000000000000000000000081526004016139b190615310565b60405180910390fd5b6000602060003373ffffffffffffffffffffffffffffffffffffffff1673ffffffffffffffffffffffffffffffffffffffff16815260200190815260200160002090508060040160009054906101000a900460ff1615613a4f576040517f08c379a0000000000000000000000000000000000000000000000000000000008152600401613a4690615290565b60405180910390fd5b600080602560040154421115613a6c576025600401549050613a70565b4290505b60008360010154905060646025600101541415613ad7578084600301541415613ace576040517f08c379a0000000000000000000000000000000000000000000000000000000008152600401613ac5906152d0565b60405180910390fd5b60649250613bbf565b600060256002015460256000015484613af091906159d5565b613afa91906157a5565b9050600085600201541415613b315760256001015460256003015482613b209190615947565b613b2a919061574f565b9350613bbd565b60006025600201546025600001548760020154613b4e91906159d5565b613b5891906157a5565b90506025600301548183613b6c91906159d5565b613b769190615947565b945060008511613bbb576040517f08c379a0000000000000000000000000000000000000000000000000000000008152600401613bb290615470565b60405180910390fd5b505b505b818460020181905550600060648483613bd89190615947565b613be291906157a5565b90508460010154818660030154613bf9919061574f565b1115613c165784600301548560010154613c1391906159d5565b90505b8060156003016000828254613c2b919061574f565b9250508190555080856003016000828254613c46919061574f565b92505081905550613c7c6001800160009054906101000a900473ffffffffffffffffffffffffffffffffffffffff163383613c8b565b50505050506001600081905550565b6000808473ffffffffffffffffffffffffffffffffffffffff1663a9059cbb8585604051602401613cbd92919061502d565b6040516020818303038152906040529060e01b6020820180517bffffffffffffffffffffffffffffffffffffffffffffffffffffffff8381831617835250505050604051613d0b9190614f31565b6000604051808303816000865af19150503d8060008114613d48576040519150601f19603f3d011682016040523d82523d6000602084013e613d4d565b606091505b5091509150818015613d7b5750600081511480613d7a575080806020019051810190613d79919061458d565b5b5b613dba576040517f08c379a0000000000000000000000000000000000000000000000000000000008152600401613db190615210565b60405180910390fd5b5050505050565b80613e12578273ffffffffffffffffffffffffffffffffffffffff166108fc839081150290604051600060405180830381858888f19350505050158015613e0c573d6000803e3d6000fd5b50613f44565b6000808573ffffffffffffffffffffffffffffffffffffffff1663a9059cbb8686604051602401613e44929190614fa4565b6040516020818303038152906040529060e01b6020820180517bffffffffffffffffffffffffffffffffffffffffffffffffffffffff8381831617835250505050604051613e929190614f31565b6000604051808303816000865af19150503d8060008114613ecf576040519150601f19603f3d011682016040523d82523d6000602084013e613ed4565b606091505b5091509150818015613f025750600081511480613f01575080806020019051810190613f00919061458d565b5b5b613f41576040517f08c379a0000000000000000000000000000000000000000000000000000000008152600401613f3890615210565b60405180910390fd5b50505b50505050565b6000808473ffffffffffffffffffffffffffffffffffffffff1663095ea7b38585604051602401613f7c92919061502d565b6040516020818303038152906040529060e01b6020820180517bffffffffffffffffffffffffffffffffffffffffffffffffffffffff8381831617835250505050604051613fca9190614f31565b6000604051808303816000865af19150503d8060008114614007576040519150601f19603f3d011682016040523d82523d6000602084013e61400c565b606091505b509150915081801561403a5750600081511480614039575080806020019051810190614038919061458d565b5b5b614079576040517f08c379a000000000000000000000000000000000000000000000000000000000815260040161407090615330565b60405180910390fd5b5050505050565b6000803086604051602001614096929190614f05565b6040516020818303038152906040528051906020012090506001816040516020016140c19190614f48565b60405160208183030381529060405280519060200120868686604051600081526020016040526040516140f794939291906150fe565b6020604051602081039080840390855afa158015614119573d6000803e3d6000fd5b5050506020604051035173ffffffffffffffffffffffffffffffffffffffff16602460009054906101000a900473ffffffffffffffffffffffffffffffffffffffff1673ffffffffffffffffffffffffffffffffffffffff1614915050949350505050565b6000808573ffffffffffffffffffffffffffffffffffffffff166323b872dd8686866040516024016141b293929190614ff6565b6040516020818303038152906040529060e01b6020820180517bffffffffffffffffffffffffffffffffffffffffffffffffffffffff83818316178352505050506040516142009190614f31565b6000604051808303816000865af19150503d806000811461423d576040519150601f19603f3d011682016040523d82523d6000602084013e614242565b606091505b5091509150818015614270575060008151148061426f57508080602001905181019061426e919061458d565b5b5b6142af576040517f08c379a00000000000000000000000000000000000000000000000000000000081526004016142a6906154b0565b60405180910390fd5b505050505050565b60006142ca6142c5846156ab565b61567a565b905080828560208602820111156142e057600080fd5b60005b8581101561431057816142f688826144d3565b8452602084019350602083019250506001810190506142e3565b5050509392505050565b600061432d614328846156d1565b61567a565b9050808285602086028201111561434357600080fd5b60005b85811015614373578161435988826144d3565b845260208401935060208301925050600181019050614346565b5050509392505050565b600061439061438b846156f7565b61567a565b905080828560208602820111156143a657600080fd5b60005b858110156143d657816143bc88826144d3565b8452602084019350602083019250506001810190506143a9565b5050509392505050565b6000813590506143ef81615c9f565b92915050565b60008135905061440481615cb6565b92915050565b600082601f83011261441b57600080fd5b600b6144288482856142b7565b91505092915050565b600082601f83011261444257600080fd5b600361444f84828561431a565b91505092915050565b600082601f83011261446957600080fd5b600561447684828561437d565b91505092915050565b60008135905061448e81615ccd565b92915050565b6000815190506144a381615ccd565b92915050565b6000813590506144b881615ce4565b92915050565b6000813590506144cd81615cfb565b92915050565b6000813590506144e281615d12565b92915050565b6000815190506144f781615d12565b92915050565b60008135905061450c81615d29565b92915050565b60008151905061452181615d29565b92915050565b60006020828403121561453957600080fd5b6000614547848285016143e0565b91505092915050565b600080610180838503121561456457600080fd5b6000614572858286016143f5565b92505060206145838582860161440a565b9150509250929050565b60006020828403121561459f57600080fd5b60006145ad84828501614494565b91505092915050565b600080600080600061012086880312156145cf57600080fd5b60006145dd8882890161447f565b95505060206145ee888289016143f5565b94505060406145ff88828901614458565b93505060e0614610888289016144fd565b925050610100614622888289016144fd565b9150509295509295909350565b600080600080600060e0868803121561464757600080fd5b6000614655888289016144be565b9550506020614666888289016144be565b945050604061467788828901614431565b93505060a0614688888289016143f5565b92505060c0614699888289016143f5565b9150509295509295909350565b6000602082840312156146b857600080fd5b60006146c6848285016144e8565b91505092915050565b600080600080608085870312156146e557600080fd5b60006146f3878288016144d3565b9450506020614704878288016144fd565b9350506040614715878288016144a9565b9250506060614726878288016144a9565b91505092959194509250565b60006020828403121561474457600080fd5b600061475284828501614512565b91505092915050565b61476481615a1b565b82525050565b61477381615a09565b82525050565b61478a61478582615a09565b615bca565b82525050565b61479981615a2d565b82525050565b6147a881615a39565b82525050565b6147bf6147ba82615a39565b615bdc565b82525050565b60006147d08261571d565b6147da8185615728565b93506147ea818560208601615b4e565b80840191505092915050565b6147ff81615a9a565b82525050565b61480e81615abe565b82525050565b61481d81615ae2565b82525050565b61482c81615b06565b82525050565b61483b81615b2a565b82525050565b600061484e601f83615733565b91507f5472616e7366657248656c7065723a205452414e534645525f4641494c4544006000830152602082019050919050565b600061488e601183615733565b91507f4e4f5448494e4720544f20524546554e440000000000000000000000000000006000830152602082019050919050565b60006148ce601283615733565b91507f4e4f542050524553414c452043414c4c455200000000000000000000000000006000830152602082019050919050565b600061490e601c83615744565b91507f19457468657265756d205369676e6564204d6573736167653a0a3332000000006000830152601c82019050919050565b600061494e600e83615733565b91507f5452414e534645524544204645450000000000000000000000000000000000006000830152602082019050919050565b600061498e601083615733565b91507f4e4f5448494e4720544f20434c41494d000000000000000000000000000000006000830152602082019050919050565b60006149ce600b83615733565b91507f4e4f5420535543434553530000000000000000000000000000000000000000006000830152602082019050919050565b6000614a0e601483615733565b91507f416c726561647920776974686472617720616c6c0000000000000000000000006000830152602082019050919050565b6000614a4e601383615733565b91507f4e4f5448494e4720544f205749544844524157000000000000000000000000006000830152602082019050919050565b6000614a8e600e83615733565b91507f4f46462d434841494e204d4f44450000000000000000000000000000000000006000830152602082019050919050565b6000614ace601e83615733565b91507f5472616e7366657248656c7065723a20415050524f56455f4641494c454400006000830152602082019050919050565b6000614b0e600d83615733565b91507f4541524c5920544f2043414c4c000000000000000000000000000000000000006000830152602082019050919050565b6000614b4e600a83615733565b91507f4e4f5420414354495645000000000000000000000000000000000000000000006000830152602082019050919050565b6000614b8e601083615733565b91507f4e4f5420454e4f5547482056414c5545000000000000000000000000000000006000830152602082019050919050565b6000614bce600f83615733565b91507f4e4f542057484954454c495354454400000000000000000000000000000000006000830152602082019050919050565b6000614c0e600f83615733565b91507f4e4f204c495354494e472054494d4500000000000000000000000000000000006000830152602082019050919050565b6000614c4e600983615733565b91507f464f5242494444454e00000000000000000000000000000000000000000000006000830152602082019050919050565b6000614c8e600783615733565b91507f4e4f54204e4f57000000000000000000000000000000000000000000000000006000830152602082019050919050565b6000614cce600a83615733565b91507f4e4f54204641494c4544000000000000000000000000000000000000000000006000830152602082019050919050565b6000614d0e601383615733565b91507f47454e45524154494f4e20434f4d504c455445000000000000000000000000006000830152602082019050919050565b6000614d4e600e83615733565b91507f494e56414c4944204d4f4d454e540000000000000000000000000000000000006000830152602082019050919050565b6000614d8e601c83615733565b91507f414c4c20544f4b454e20484153204245454e2057495448445241574e000000006000830152602082019050919050565b6000614dce602483615733565b91507f5472616e7366657248656c7065723a205452414e534645525f46524f4d5f464160008301527f494c4544000000000000000000000000000000000000000000000000000000006020830152604082019050919050565b6000614e34601f83615733565b91507f5265656e7472616e637947756172643a207265656e7472616e742063616c6c006000830152602082019050919050565b6000614e74601183615733565b91507f4e4f542050524553414c45204f574e45520000000000000000000000000000006000830152602082019050919050565b6000614eb4600b83615733565b91507f5a45524f20544f4b454e530000000000000000000000000000000000000000006000830152602082019050919050565b614ef081615a83565b82525050565b614eff81615a8d565b82525050565b6000614f118285614779565b601482019150614f218284614779565b6014820191508190509392505050565b6000614f3d82846147c5565b915081905092915050565b6000614f5382614901565b9150614f5f82846147ae565b60208201915081905092915050565b6000602082019050614f83600083018461476a565b92915050565b6000602082019050614f9e600083018461475b565b92915050565b6000604082019050614fb9600083018561475b565b614fc66020830184614ee7565b9392505050565b6000604082019050614fe2600083018561476a565b614fef602083018461476a565b9392505050565b600060608201905061500b600083018661476a565b615018602083018561476a565b6150256040830184614ee7565b949350505050565b6000604082019050615042600083018561476a565b61504f6020830184614ee7565b9392505050565b600060208201905061506b6000830184614790565b92915050565b600061012082019050615087600083018c614790565b615094602083018b614790565b6150a1604083018a614790565b6150ae6060830189614790565b6150bb6080830188614ee7565b6150c860a0830187614ee7565b6150d560c0830186614ee7565b6150e260e0830185614ee7565b6150f0610100830184614ee7565b9a9950505050505050505050565b6000608082019050615113600083018761479f565b6151206020830186614ef6565b61512d604083018561479f565b61513a606083018461479f565b95945050505050565b600060c08201905061515860008301896147f6565b61516560208301886147f6565b6151726040830187614ee7565b61517f6060830186614ee7565b61518c6080830185614ee7565b61519960a083018461475b565b979650505050505050565b60006020820190506151b96000830184614805565b92915050565b60006020820190506151d46000830184614814565b92915050565b60006020820190506151ef6000830184614823565b92915050565b600060208201905061520a6000830184614832565b92915050565b6000602082019050818103600083015261522981614841565b9050919050565b6000602082019050818103600083015261524981614881565b9050919050565b60006020820190508181036000830152615269816148c1565b9050919050565b6000602082019050818103600083015261528981614941565b9050919050565b600060208201905081810360008301526152a981614981565b9050919050565b600060208201905081810360008301526152c9816149c1565b9050919050565b600060208201905081810360008301526152e981614a01565b9050919050565b6000602082019050818103600083015261530981614a41565b9050919050565b6000602082019050818103600083015261532981614a81565b9050919050565b6000602082019050818103600083015261534981614ac1565b9050919050565b6000602082019050818103600083015261536981614b01565b9050919050565b6000602082019050818103600083015261538981614b41565b9050919050565b600060208201905081810360008301526153a981614b81565b9050919050565b600060208201905081810360008301526153c981614bc1565b9050919050565b600060208201905081810360008301526153e981614c01565b9050919050565b6000602082019050818103600083015261540981614c41565b9050919050565b6000602082019050818103600083015261542981614c81565b9050919050565b6000602082019050818103600083015261544981614cc1565b9050919050565b6000602082019050818103600083015261546981614d01565b9050919050565b6000602082019050818103600083015261548981614d41565b9050919050565b600060208201905081810360008301526154a981614d81565b9050919050565b600060208201905081810360008301526154c981614dc1565b9050919050565b600060208201905081810360008301526154e981614e27565b9050919050565b6000602082019050818103600083015261550981614e67565b9050919050565b6000602082019050818103600083015261552981614ea7565b9050919050565b60006020820190506155456000830184614ee7565b92915050565b60006040820190506155606000830185614ee7565b61556d6020830184614ee7565b9392505050565b60006080820190506155896000830187614ee7565b6155966020830186614ee7565b6155a3604083018561475b565b6155b0606083018461475b565b95945050505050565b600060a0820190506155ce6000830188614ee7565b6155db6020830187614ee7565b6155e86040830186614ee7565b6155f56060830185614ee7565b6156026080830184614790565b9695505050505050565b600060a0820190506156216000830188614ee7565b61562e6020830187614ee7565b61563b6040830186614ee7565b6156486060830185614ee7565b6156556080830184614ee7565b9695505050505050565b60006020820190506156746000830184614ef6565b92915050565b6000604051905081810181811067ffffffffffffffff821117156156a1576156a0615c56565b5b8060405250919050565b600067ffffffffffffffff8211156156c6576156c5615c56565b5b602082029050919050565b600067ffffffffffffffff8211156156ec576156eb615c56565b5b602082029050919050565b600067ffffffffffffffff82111561571257615711615c56565b5b602082029050919050565b600081519050919050565b600081905092915050565b600082825260208201905092915050565b600081905092915050565b600061575a82615a83565b915061576583615a83565b9250827fffffffffffffffffffffffffffffffffffffffffffffffffffffffffffffffff0382111561579a57615799615bf8565b5b828201905092915050565b60006157b082615a83565b91506157bb83615a83565b9250826157cb576157ca615c27565b5b828204905092915050565b6000808291508390505b6001851115615820578086048111156157fc576157fb615bf8565b5b600185161561580b5780820291505b808102905061581985615c92565b94506157e0565b94509492505050565b600061583482615a83565b915061583f83615a83565b925061586c7fffffffffffffffffffffffffffffffffffffffffffffffffffffffffffffffff8484615874565b905092915050565b6000826158845760019050615940565b816158925760009050615940565b81600181146158a857600281146158b2576158e1565b6001915050615940565b60ff8411156158c4576158c3615bf8565b5b8360020a9150848211156158db576158da615bf8565b5b50615940565b5060208310610133831016604e8410600b84101617156159165782820a90508381111561591157615910615bf8565b5b615940565b61592384848460016157d6565b9250905081840481111561593a57615939615bf8565b5b81810290505b9392505050565b600061595282615a83565b915061595d83615a83565b9250817fffffffffffffffffffffffffffffffffffffffffffffffffffffffffffffffff048311821515161561599657615995615bf8565b5b828202905092915050565b60006159ac82615a55565b91506159b783615a55565b9250828210156159ca576159c9615bf8565b5b828203905092915050565b60006159e082615a83565b91506159eb83615a83565b9250828210156159fe576159fd615bf8565b5b828203905092915050565b6000615a1482615a63565b9050919050565b6000615a2682615a63565b9050919050565b60008115159050919050565b6000819050919050565b6000615a4e82615a09565b9050919050565b600061ffff82169050919050565b600073ffffffffffffffffffffffffffffffffffffffff82169050919050565b6000819050919050565b600060ff82169050919050565b6000615aa582615aac565b9050919050565b6000615ab782615a63565b9050919050565b6000615ac982615ad0565b9050919050565b6000615adb82615a63565b9050919050565b6000615aed82615af4565b9050919050565b6000615aff82615a63565b9050919050565b6000615b1182615b18565b9050919050565b6000615b2382615a63565b9050919050565b6000615b3582615b3c565b9050919050565b6000615b4782615a63565b9050919050565b60005b83811015615b6c578082015181840152602081019050615b51565b83811115615b7b576000848401525b50505050565b6000615b8c82615a83565b91507fffffffffffffffffffffffffffffffffffffffffffffffffffffffffffffffff821415615bbf57615bbe615bf8565b5b600182019050919050565b6000615bd582615be6565b9050919050565b6000819050919050565b6000615bf182615c85565b9050919050565b7f4e487b7100000000000000000000000000000000000000000000000000000000600052601160045260246000fd5b7f4e487b7100000000000000000000000000000000000000000000000000000000600052601260045260246000fd5b7f4e487b7100000000000000000000000000000000000000000000000000000000600052604160045260246000fd5b60008160601b9050919050565b60008160011c9050919050565b615ca881615a09565b8114615cb357600080fd5b50565b615cbf81615a1b565b8114615cca57600080fd5b50565b615cd681615a2d565b8114615ce157600080fd5b50565b615ced81615a39565b8114615cf857600080fd5b50565b615d0481615a43565b8114615d0f57600080fd5b50565b615d1b81615a83565b8114615d2657600080fd5b50565b615d3281615a8d565b8114615d3d57600080fd5b5056fea2646970667358221220ed82fedfdec6b749bfa25bbaaad7e594c61c1e89baaa6f2b61337c853d73a99764736f6c63430008000033",
  "immutableReferences": {},
  "source": "// SPDX-License-Identifier: UNLICENSED\r\n\r\npragma solidity ^0.8.0;\r\nimport \"../unitls/ReentrancyGuard.sol\";\r\nimport \"../common/TransferHelper.sol\";\r\nimport \"../common/IUniswapV2Factory.sol\";\r\nimport \"../common/IPresaleLockForwarder.sol\";\r\nimport \"../common/IWETH.sol\";\r\nimport \"../common/IPresaleSettings.sol\";\r\nimport \"../common/IERC20Custom.sol\";\r\n\r\ncontract Presale01 is ReentrancyGuard {\r\n    struct PresaleInfo {\r\n        address payable PRESALE_OWNER;\r\n        IERC20Custom S_TOKEN; // sale token\r\n        IERC20Custom B_TOKEN; // base token // usually WETH (ETH)\r\n        uint256 TOKEN_PRICE; // 1 base token = ? s_tokens, fixed price\r\n        uint256 MAX_SPEND_PER_BUYER; // maximum base token BUY amount per account\r\n        uint256 MIN_SPEND_PER_BUYER; // maximum base token BUY amount per account\r\n        uint256 AMOUNT; // the amount of presale tokens up for presale\r\n        uint256 HARDCAP;\r\n        uint256 SOFTCAP;\r\n        uint256 LIQUIDITY_PERCENT; // divided by 1000\r\n        uint256 LISTING_RATE; // fixed rate at which the token will list on uniswap\r\n        uint256 START_TIME;\r\n        uint256 END_TIME;\r\n        uint256 LOCK_PERIOD; // unix timestamp -> e.g. 2 weeks\r\n        uint256 UNISWAP_LISTING_TIME;\r\n        bool PRESALE_IN_ETH; // if this flag is true the presale is raising ETH, otherwise an ERC20 token such as DAI\r\n        uint8 ADD_LP;\r\n    }\r\n\r\n    struct PresaleFeeInfo {\r\n        uint256 DAOLAUNCH_BASE_FEE; // divided by 1000\r\n        uint256 DAOLAUNCH_TOKEN_FEE; // divided by 1000\r\n        address payable BASE_FEE_ADDRESS;\r\n        address payable TOKEN_FEE_ADDRESS;\r\n    }\r\n\r\n    struct PresaleStatus {\r\n        bool WHITELIST_ONLY; // if set to true only whitelisted members may participate\r\n        bool LIST_ON_UNISWAP;\r\n        bool IS_TRANSFERED_FEE;\r\n        bool IS_OWNER_WITHDRAWN;\r\n        uint256 TOTAL_BASE_COLLECTED; // total base currency raised (usually ETH)\r\n        uint256 TOTAL_TOKENS_SOLD; // total presale tokens sold\r\n        uint256 TOTAL_TOKENS_WITHDRAWN; // total tokens withdrawn post successful presale\r\n        uint256 TOTAL_BASE_WITHDRAWN; // total base tokens withdrawn on presale failure\r\n        uint256 NUM_BUYERS; // number of unique participants\r\n    }\r\n\r\n    struct BuyerInfo {\r\n        uint256 baseDeposited; // total base token (usually ETH) deposited by user, can be withdrawn on presale failure\r\n        uint256 tokensOwed; // num presale tokens a user is owed, can be withdrawn on presale success\r\n        uint256 lastWithdraw; // day of the last withdrawing. If first time => = firstDistributionType\r\n        uint256 totalTokenWithdraw; // number of tokens withdraw\r\n        bool isWithdrawnBase;\r\n        // bool isRefunded; // refund or claim\r\n    }\r\n\r\n    struct GasLimit {\r\n        uint256 transferPresaleOwner;\r\n        uint256 listOnUniswap;\r\n    }\r\n\r\n    struct VestingPeriod {\r\n        // if set time for user withdraw at listing : use same data in uint_params[11], otherwise set new Date for it\r\n        uint256 firstDistributionType;\r\n        uint256 firstUnlockRate;\r\n        uint256 distributionInterval;\r\n        uint256 unlockRateEachTime;\r\n        uint256 maxPeriod;\r\n    }\r\n\r\n    PresaleInfo private PRESALE_INFO;\r\n    PresaleFeeInfo public PRESALE_FEE_INFO;\r\n    PresaleStatus public STATUS;\r\n    address public PRESALE_GENERATOR;\r\n    IPresaleLockForwarder public PRESALE_LOCK_FORWARDER;\r\n    IPresaleSettings public PRESALE_SETTINGS;\r\n    IUniswapV2Factory public UNI_FACTORY;\r\n    IWETH public WETH;\r\n    mapping(address => BuyerInfo) public BUYERS;\r\n    address payable public CALLER;\r\n    GasLimit public GAS_LIMIT;\r\n    address payable public DAOLAUNCH_DEV;\r\n    VestingPeriod public VESTING_PERIOD;\r\n    mapping(address => bool) public admins;\r\n\r\n    uint256 public TOTAL_FEE;\r\n    uint8 public PERCENT_FEE;\r\n\r\n    mapping(address => uint256) public USER_FEES;\r\n    uint256 public TOTAL_TOKENS_REFUNDED; // total tokens refund\r\n    uint256 public TOTAL_FEES_REFUNDED; // total fees refund\r\n\r\n    constructor(address _presaleGenerator, address[] memory _admins) payable {\r\n        PRESALE_GENERATOR = _presaleGenerator;\r\n        UNI_FACTORY = IUniswapV2Factory(\r\n            0xcA143Ce32Fe78f1f7019d7d551a6402fC5350c73\r\n        );\r\n        WETH = IWETH(0xbb4CdB9CBd36B01bD1cBaEBF2De08d9173bc095c);\r\n        PRESALE_SETTINGS = IPresaleSettings(\r\n            0xcFb2Cb97028c4e2fe6b868D685C00ab96e6Ec370\r\n        );\r\n        PRESALE_LOCK_FORWARDER = IPresaleLockForwarder(\r\n            0x57f443f5A891fC53C43b6D9Fb850fC068af76bF4\r\n        );\r\n        GAS_LIMIT = GasLimit(200000, 4000000);\r\n        DAOLAUNCH_DEV = payable(0x75d69272c5A9d6FCeC0D68c547776C7195f73feA);\r\n        for (uint256 i = 0; i < _admins.length; i++) {\r\n            admins[_admins[i]] = true;\r\n        }\r\n    }\r\n\r\n    function init1(address payable _presaleOwner, uint256[11] memory data)\r\n        external\r\n    {\r\n        require(msg.sender == PRESALE_GENERATOR, \"FORBIDDEN\");\r\n        PRESALE_INFO.PRESALE_OWNER = _presaleOwner;\r\n        PRESALE_INFO.AMOUNT = data[0];\r\n        PRESALE_INFO.TOKEN_PRICE = data[1];\r\n\r\n        PRESALE_INFO.MAX_SPEND_PER_BUYER = data[2];\r\n        PRESALE_INFO.MIN_SPEND_PER_BUYER = data[3];\r\n\r\n        PRESALE_INFO.HARDCAP = data[4];\r\n        PRESALE_INFO.SOFTCAP = data[5];\r\n\r\n        PRESALE_INFO.LIQUIDITY_PERCENT = data[6];\r\n        PRESALE_INFO.LISTING_RATE = data[7];\r\n\r\n        PRESALE_INFO.START_TIME = data[8];\r\n        PRESALE_INFO.END_TIME = data[9];\r\n        PRESALE_INFO.LOCK_PERIOD = data[10];\r\n    }\r\n\r\n    function init2(\r\n        IERC20Custom _baseToken,\r\n        IERC20Custom _presaleToken,\r\n        uint256[3] memory data,\r\n        address payable _baseFeeAddress,\r\n        address payable _tokenFeeAddress\r\n    ) external {\r\n        require(msg.sender == PRESALE_GENERATOR, \"FORBIDDEN\");\r\n        PRESALE_INFO.PRESALE_IN_ETH = address(_baseToken) == address(WETH);\r\n        PRESALE_INFO.S_TOKEN = _presaleToken;\r\n        PRESALE_INFO.B_TOKEN = _baseToken;\r\n        PRESALE_FEE_INFO.DAOLAUNCH_BASE_FEE = data[0];\r\n        PRESALE_FEE_INFO.DAOLAUNCH_TOKEN_FEE = data[1];\r\n        PRESALE_INFO.UNISWAP_LISTING_TIME = data[2];\r\n\r\n        PRESALE_FEE_INFO.BASE_FEE_ADDRESS = _baseFeeAddress;\r\n        PRESALE_FEE_INFO.TOKEN_FEE_ADDRESS = _tokenFeeAddress;\r\n    }\r\n\r\n    function init3(\r\n        bool is_white_list,\r\n        address payable _caller,\r\n        uint256[5] memory data,\r\n        uint8 _addLP,\r\n        uint8 _percentFee\r\n    ) external {\r\n        require(msg.sender == PRESALE_GENERATOR, \"FORBIDDEN\");\r\n\r\n        STATUS.WHITELIST_ONLY = is_white_list;\r\n        CALLER = _caller;\r\n        VESTING_PERIOD.firstDistributionType = data[0];\r\n        VESTING_PERIOD.firstUnlockRate = data[1];\r\n        VESTING_PERIOD.distributionInterval = data[2];\r\n        VESTING_PERIOD.unlockRateEachTime = data[3];\r\n        VESTING_PERIOD.maxPeriod = data[4];\r\n        PRESALE_INFO.ADD_LP = _addLP;\r\n        PERCENT_FEE = _percentFee;\r\n    }\r\n\r\n    modifier onlyPresaleOwner() {\r\n        require(PRESALE_INFO.PRESALE_OWNER == msg.sender, \"NOT PRESALE OWNER\");\r\n        _;\r\n    }\r\n\r\n    modifier onlyAdmin() {\r\n        require(admins[msg.sender], \"NOT ADMIN\");\r\n        _;\r\n    }\r\n\r\n    modifier onlyPresaleOwnerOrAdmin() {\r\n        require(PRESALE_INFO.PRESALE_OWNER == msg.sender || admins[msg.sender], \"NOT PRESALE OWNER OR ADMIN\");\r\n        _;\r\n    }\r\n\r\n    modifier onlyCaller() {\r\n        require(CALLER == msg.sender, \"NOT PRESALE CALLER\");\r\n        _;\r\n    }\r\n\r\n    modifier onlyValidAccess(\r\n        uint8 _v,\r\n        bytes32 _r,\r\n        bytes32 _s\r\n    ) {\r\n        if (STATUS.WHITELIST_ONLY) {\r\n            require(\r\n                isValidAccessMsg(msg.sender, _v, _r, _s),\r\n                \"NOT WHITELISTED\"\r\n            );\r\n        }\r\n        _;\r\n    }\r\n\r\n    function isValidAccessMsg(\r\n        address _addr,\r\n        uint8 _v,\r\n        bytes32 _r,\r\n        bytes32 _s\r\n    ) internal view returns (bool) {\r\n        bytes32 hash = keccak256(abi.encodePacked(address(this), _addr));\r\n        return\r\n            DAOLAUNCH_DEV ==\r\n            ecrecover(\r\n                keccak256(\r\n                    abi.encodePacked(\"\\x19Ethereum Signed Message:\\n32\", hash)\r\n                ),\r\n                _v,\r\n                _r,\r\n                _s\r\n            );\r\n    }\r\n\r\n    function presaleStatus() public view returns (uint256) {\r\n        if (\r\n            (block.timestamp > PRESALE_INFO.END_TIME) &&\r\n            (STATUS.TOTAL_BASE_COLLECTED < PRESALE_INFO.SOFTCAP)\r\n        ) {\r\n            return 3; // FAILED - softcap not met by end block\r\n        }\r\n        if (STATUS.TOTAL_BASE_COLLECTED >= PRESALE_INFO.HARDCAP) {\r\n            return 2; // SUCCESS - hardcap met\r\n        }\r\n        if (\r\n            (block.timestamp > PRESALE_INFO.END_TIME) &&\r\n            (STATUS.TOTAL_BASE_COLLECTED >= PRESALE_INFO.SOFTCAP)\r\n        ) {\r\n            return 2; // SUCCESS - endblock and soft cap reached\r\n        }\r\n        if (\r\n            (block.timestamp >= PRESALE_INFO.START_TIME) &&\r\n            (block.timestamp <= PRESALE_INFO.END_TIME)\r\n        ) {\r\n            return 1; // ACTIVE - deposits enabled\r\n        }\r\n        return 0; // QUED - awaiting start block\r\n    }\r\n\r\n    // accepts msg.value for eth or _amount for ERC20 tokens\r\n    function userDeposit(\r\n        uint256 _amount,\r\n        uint8 _v,\r\n        bytes32 _r,\r\n        bytes32 _s\r\n    ) external payable onlyValidAccess(_v, _r, _s) nonReentrant {\r\n        require(presaleStatus() == 1, \"NOT ACTIVE\"); // ACTIVE\r\n        BuyerInfo storage buyer = BUYERS[msg.sender];\r\n        uint256 amount_in = PRESALE_INFO.PRESALE_IN_ETH ? msg.value : _amount;\r\n        uint256 real_amount_in = amount_in;\r\n        uint256 fee = 0;\r\n        \r\n        if (!STATUS.WHITELIST_ONLY) {\r\n            real_amount_in = real_amount_in * (1000 - PERCENT_FEE)/ 1000;\r\n            fee = amount_in - real_amount_in;\r\n        }\r\n        require(\r\n            real_amount_in >= PRESALE_INFO.MIN_SPEND_PER_BUYER,\r\n            \"NOT ENOUGH VALUE\"\r\n        );\r\n        uint256 allowance = PRESALE_INFO.MAX_SPEND_PER_BUYER -\r\n            buyer.baseDeposited;\r\n        uint256 remaining = PRESALE_INFO.HARDCAP - STATUS.TOTAL_BASE_COLLECTED;\r\n        allowance = allowance > remaining ? remaining : allowance;\r\n        if (real_amount_in > allowance) {\r\n            real_amount_in = allowance;\r\n        }\r\n        // uint256 tokensSold = (real_amount_in * PRESALE_INFO.TOKEN_PRICE) /\r\n        //     (10**uint256(PRESALE_INFO.B_TOKEN.decimals()));\r\n        // From test user set decimals;\r\n\r\n        uint256 tokensSold = (real_amount_in * PRESALE_INFO.TOKEN_PRICE);\r\n        require(tokensSold > 0, \"ZERO TOKENS\");\r\n        if (buyer.baseDeposited == 0) {\r\n            STATUS.NUM_BUYERS++;\r\n        }\r\n        buyer.baseDeposited += real_amount_in + fee;\r\n        buyer.tokensOwed += tokensSold;\r\n        STATUS.TOTAL_BASE_COLLECTED += real_amount_in;\r\n        STATUS.TOTAL_TOKENS_SOLD += tokensSold;\r\n        USER_FEES[msg.sender] += fee;\r\n        TOTAL_FEE += fee;\r\n\r\n        //return unused ETH\r\n        if (PRESALE_INFO.PRESALE_IN_ETH && real_amount_in + fee < msg.value) {\r\n            payable(msg.sender).transfer(msg.value - real_amount_in - fee);\r\n        }\r\n        // deduct non ETH token from user\r\n        if (!PRESALE_INFO.PRESALE_IN_ETH) {\r\n            TransferHelper.safeTransferFrom(\r\n                address(PRESALE_INFO.B_TOKEN),\r\n                msg.sender,\r\n                address(this),\r\n                real_amount_in + fee\r\n            );\r\n        }\r\n    }\r\n\r\n    // withdraw presale tokens\r\n    // percentile withdrawls allows fee on transfer or rebasing tokens to still work\r\n    function userWithdrawTokens() external nonReentrant {\r\n        require(presaleStatus() == 2, \"NOT SUCCESS\"); // SUCCESS\r\n        require(\r\n            block.timestamp >= VESTING_PERIOD.firstDistributionType,\r\n            \"NOT NOW\"\r\n        );\r\n        require(\r\n            STATUS.TOTAL_TOKENS_SOLD - STATUS.TOTAL_TOKENS_WITHDRAWN > 0,\r\n            \"ALL TOKEN HAS BEEN WITHDRAWN\"\r\n        );\r\n        require(PRESALE_INFO.ADD_LP != 2, \"OFF-CHAIN MODE\");\r\n\r\n        BuyerInfo storage buyer = BUYERS[msg.sender];\r\n        require(!buyer.isWithdrawnBase, \"NOTHING TO CLAIM\");\r\n\r\n        uint256 rateWithdrawAfter;\r\n        uint256 currentTime;\r\n        if (block.timestamp > VESTING_PERIOD.maxPeriod) {\r\n            currentTime = VESTING_PERIOD.maxPeriod;\r\n        } else {\r\n            currentTime = block.timestamp;\r\n        }\r\n        uint256 tokensOwed = buyer.tokensOwed;\r\n        if (VESTING_PERIOD.firstUnlockRate == 100) {\r\n            require(\r\n                buyer.totalTokenWithdraw != tokensOwed,\r\n                \"Already withdraw all\"\r\n            );\r\n            rateWithdrawAfter = 100;\r\n        } else {\r\n            uint256 spentCycles = (currentTime -\r\n                VESTING_PERIOD.firstDistributionType) /\r\n                VESTING_PERIOD.distributionInterval; // (m' - m0)/k\r\n            if (buyer.lastWithdraw == 0) {\r\n                rateWithdrawAfter =\r\n                    spentCycles *\r\n                    VESTING_PERIOD.unlockRateEachTime +\r\n                    VESTING_PERIOD.firstUnlockRate; //x + spentCycles*y\r\n            } else {\r\n                uint256 lastSpentCycles = (buyer.lastWithdraw -\r\n                    VESTING_PERIOD.firstDistributionType) /\r\n                    VESTING_PERIOD.distributionInterval; // (LD - M0)/k\r\n                rateWithdrawAfter =\r\n                    (spentCycles - lastSpentCycles) *\r\n                    VESTING_PERIOD.unlockRateEachTime; //(spentCycles - lastSpentCycles)*y\r\n                require(rateWithdrawAfter > 0, \"INVALID MOMENT\"); // SUCCESS\r\n            }\r\n        }\r\n        buyer.lastWithdraw = currentTime;\r\n        uint256 amountWithdraw = (tokensOwed * rateWithdrawAfter) / 100;\r\n\r\n        if (buyer.totalTokenWithdraw + amountWithdraw > buyer.tokensOwed) {\r\n            amountWithdraw = buyer.tokensOwed - buyer.totalTokenWithdraw;\r\n        }\r\n\r\n        STATUS.TOTAL_TOKENS_WITHDRAWN += amountWithdraw;\r\n        buyer.totalTokenWithdraw += amountWithdraw; // update total token withdraw of buyer address\r\n        TransferHelper.safeTransfer(\r\n            address(PRESALE_INFO.S_TOKEN),\r\n            msg.sender,\r\n            amountWithdraw\r\n        );\r\n    }\r\n\r\n    // // on presale failure\r\n    // // percentile withdrawls allows fee on transfer or rebasing tokens to still work\r\n    function userWithdrawBaseTokens() external nonReentrant {\r\n        require(presaleStatus() == 3, \"NOT FAILED\"); // FAILED\r\n        BuyerInfo storage buyer = BUYERS[msg.sender];\r\n        require(!buyer.isWithdrawnBase, \"NOTHING TO REFUND\");\r\n\r\n        STATUS.TOTAL_BASE_WITHDRAWN += buyer.baseDeposited;\r\n        TransferHelper.safeTransferBaseToken(\r\n            address(PRESALE_INFO.B_TOKEN),\r\n            payable(msg.sender),\r\n            buyer.baseDeposited,\r\n            !PRESALE_INFO.PRESALE_IN_ETH\r\n        );\r\n        buyer.isWithdrawnBase = true;\r\n    }\r\n\r\n    // // on presale failure\r\n    // // allows the owner to withdraw the tokens they sent for presale & initial liquidity\r\n    function ownerRefundTokens() external onlyPresaleOwner {\r\n        require(presaleStatus() == 3, \"NOT FAILED\"); // FAILED\r\n        require(!STATUS.IS_OWNER_WITHDRAWN, \"NOTHING TO WITHDRAW\");\r\n        TransferHelper.safeTransfer(\r\n            address(PRESALE_INFO.S_TOKEN),\r\n            PRESALE_INFO.PRESALE_OWNER,\r\n            PRESALE_INFO.S_TOKEN.balanceOf(address(this))\r\n        );\r\n        STATUS.IS_OWNER_WITHDRAWN = true;\r\n\r\n        // // send eth fee to owner\r\n        // PRESALE_INFO.PRESALE_OWNER.transfer(\r\n        //     PRESALE_SETTINGS.getEthCreationFee()\r\n        // );\r\n    }\r\n\r\n    // // on presale success, this is the final step to end the presale, lock liquidity and enable withdrawls of the sale token.\r\n    // // This function does not use percentile distribution. Rebasing mechanisms, fee on transfers, or any deflationary logic\r\n    // // are not taken into account at this stage to ensure stated liquidity is locked and the pool is initialised according to\r\n    // // the presale parameters and fixed prices.\r\n\r\n    function listOnUniswap() external onlyCaller {\r\n        require(PRESALE_INFO.UNISWAP_LISTING_TIME > 0, \"NO LISTING TIME\");\r\n        require(block.timestamp > PRESALE_INFO.UNISWAP_LISTING_TIME + 1 days, \"EARLY TO CALL\");\r\n        // require(\r\n        //     block.timestamp >= PRESALE_INFO.UNISWAP_LISTING_TIME,\r\n        //     \"Call listOnUniswap too early\"\r\n        // );\r\n        require(presaleStatus() == 2, \"NOT SUCCESS\"); // SUCCESS\r\n        require(!STATUS.IS_TRANSFERED_FEE, \"TRANSFERED FEE\");\r\n        // require(PRESALE_INFO.LIQUIDITY_PERCENT > 0, \"LIQUIDITY_PERCENT = 0\");\r\n\r\n        if (PRESALE_INFO.ADD_LP == 2) {\r\n            // off-chain mode\r\n            // send all to DAOLaunch, remaining listing fee to presale owner\r\n\r\n            // send all base token\r\n            TransferHelper.safeTransferBaseToken(\r\n                address(PRESALE_INFO.B_TOKEN),\r\n                PRESALE_FEE_INFO.BASE_FEE_ADDRESS,\r\n                STATUS.TOTAL_BASE_COLLECTED + TOTAL_FEE - TOTAL_TOKENS_REFUNDED - TOTAL_FEES_REFUNDED,\r\n                !PRESALE_INFO.PRESALE_IN_ETH\r\n            );\r\n\r\n            // send all token\r\n            uint256 tokenBalance = PRESALE_INFO.S_TOKEN.balanceOf(address(this));\r\n            TransferHelper.safeTransfer(\r\n                address(PRESALE_INFO.S_TOKEN),\r\n                PRESALE_FEE_INFO.TOKEN_FEE_ADDRESS,\r\n                tokenBalance\r\n            );\r\n\r\n            // send transaction fee\r\n            uint256 txFee = tx.gasprice * GAS_LIMIT.transferPresaleOwner;\r\n            require(txFee <= PRESALE_SETTINGS.getEthCreationFee());\r\n            CALLER.transfer(txFee);\r\n            PRESALE_INFO.PRESALE_OWNER.transfer(\r\n                PRESALE_SETTINGS.getEthCreationFee() - txFee\r\n            );\r\n            return;\r\n        }\r\n\r\n        uint256 DAOLaunchBaseFee = ((STATUS.TOTAL_BASE_COLLECTED - TOTAL_TOKENS_REFUNDED) *\r\n            PRESALE_FEE_INFO.DAOLAUNCH_BASE_FEE) / 1000;\r\n        // base token liquidity\r\n        uint256 baseLiquidity = (((STATUS.TOTAL_BASE_COLLECTED - TOTAL_TOKENS_REFUNDED) -\r\n            DAOLaunchBaseFee) * PRESALE_INFO.LIQUIDITY_PERCENT) / 1000;\r\n        if (\r\n            PRESALE_INFO.ADD_LP == 0 &&\r\n            baseLiquidity > 0 &&\r\n            PRESALE_INFO.PRESALE_IN_ETH\r\n        ) {\r\n            WETH.deposit{value: baseLiquidity}();\r\n        }\r\n\r\n        if (PRESALE_INFO.ADD_LP == 0 && baseLiquidity > 0) {\r\n            TransferHelper.safeApprove(\r\n                address(PRESALE_INFO.B_TOKEN),\r\n                address(PRESALE_LOCK_FORWARDER),\r\n                baseLiquidity\r\n            );\r\n        }\r\n\r\n        // sale token liquidity\r\n        uint256 tokenLiquidity = (baseLiquidity * PRESALE_INFO.LISTING_RATE) /\r\n            (10**uint256(PRESALE_INFO.B_TOKEN.decimals()));\r\n\r\n        // transfer fees\r\n        uint256 DAOLaunchTokenFee = (STATUS.TOTAL_TOKENS_SOLD *\r\n            PRESALE_FEE_INFO.DAOLAUNCH_TOKEN_FEE) / 1000;\r\n        if (DAOLaunchBaseFee + TOTAL_FEE > 0) {\r\n            TransferHelper.safeTransferBaseToken(\r\n                address(PRESALE_INFO.B_TOKEN),\r\n                PRESALE_FEE_INFO.BASE_FEE_ADDRESS,\r\n                DAOLaunchBaseFee + TOTAL_FEE,\r\n                !PRESALE_INFO.PRESALE_IN_ETH\r\n            );\r\n        }\r\n        if (DAOLaunchTokenFee > 0) {\r\n            TransferHelper.safeTransfer(\r\n                address(PRESALE_INFO.S_TOKEN),\r\n                PRESALE_FEE_INFO.TOKEN_FEE_ADDRESS,\r\n                DAOLaunchTokenFee\r\n            );\r\n        }\r\n        STATUS.IS_TRANSFERED_FEE = true;\r\n\r\n        // if use escrow or percent = 0%\r\n        if (PRESALE_INFO.ADD_LP == 1 || baseLiquidity == 0) {\r\n            // transfer fee to DAOLaunch\r\n            uint256 txFee = tx.gasprice * GAS_LIMIT.transferPresaleOwner;\r\n            require(txFee <= PRESALE_SETTINGS.getEthCreationFee());\r\n\r\n            if (baseLiquidity == 0) {\r\n                // send fee to project owner\r\n                PRESALE_INFO.PRESALE_OWNER.transfer(\r\n                    PRESALE_SETTINGS.getEthCreationFee() - txFee\r\n                );\r\n            } else {\r\n                // send fee to DAOLaunch\r\n                PRESALE_FEE_INFO.BASE_FEE_ADDRESS.transfer(\r\n                    PRESALE_SETTINGS.getEthCreationFee() - txFee\r\n                );\r\n            }\r\n\r\n            // send transaction fee\r\n            CALLER.transfer(txFee);\r\n        } else {\r\n            // transfer fee to DAOLaunch\r\n            uint256 txFee = tx.gasprice * GAS_LIMIT.listOnUniswap;\r\n            require(txFee <= PRESALE_SETTINGS.getEthCreationFee());\r\n\r\n            // send fee to DAOLaunch\r\n            PRESALE_FEE_INFO.BASE_FEE_ADDRESS.transfer(\r\n                PRESALE_SETTINGS.getEthCreationFee() - txFee\r\n            );\r\n\r\n            // send transaction fee\r\n            CALLER.transfer(txFee);\r\n        }\r\n\r\n        if (PRESALE_INFO.ADD_LP == 1) {\r\n            // send liquidity to DAOLaunch\r\n            TransferHelper.safeTransferBaseToken(\r\n                address(PRESALE_INFO.B_TOKEN),\r\n                PRESALE_FEE_INFO.BASE_FEE_ADDRESS,\r\n                baseLiquidity,\r\n                !PRESALE_INFO.PRESALE_IN_ETH\r\n            );\r\n            TransferHelper.safeTransfer(\r\n                address(PRESALE_INFO.S_TOKEN),\r\n                PRESALE_FEE_INFO.BASE_FEE_ADDRESS,\r\n                tokenLiquidity\r\n            );\r\n        } else {\r\n            if (baseLiquidity > 0) {\r\n                // Fail the presale if the pair exists and contains presale token liquidity\r\n                if (\r\n                    PRESALE_LOCK_FORWARDER.uniswapPairIsInitialised(\r\n                        address(PRESALE_INFO.S_TOKEN),\r\n                        address(PRESALE_INFO.B_TOKEN)\r\n                    )\r\n                ) {\r\n                    STATUS.LIST_ON_UNISWAP = true;\r\n\r\n                    TransferHelper.safeTransferBaseToken(\r\n                        address(PRESALE_INFO.B_TOKEN),\r\n                        PRESALE_INFO.PRESALE_OWNER,\r\n                        baseLiquidity,\r\n                        !PRESALE_INFO.PRESALE_IN_ETH\r\n                    );\r\n                    TransferHelper.safeTransfer(\r\n                        address(PRESALE_INFO.S_TOKEN),\r\n                        PRESALE_INFO.PRESALE_OWNER,\r\n                        tokenLiquidity\r\n                    );\r\n                    return;\r\n                }\r\n\r\n                TransferHelper.safeApprove(\r\n                    address(PRESALE_INFO.S_TOKEN),\r\n                    address(PRESALE_LOCK_FORWARDER),\r\n                    tokenLiquidity\r\n                );\r\n                PRESALE_LOCK_FORWARDER.lockLiquidity(\r\n                    PRESALE_INFO.B_TOKEN,\r\n                    PRESALE_INFO.S_TOKEN,\r\n                    baseLiquidity,\r\n                    tokenLiquidity,\r\n                    block.timestamp + PRESALE_INFO.LOCK_PERIOD,\r\n                    PRESALE_INFO.PRESALE_OWNER\r\n                );\r\n            }\r\n        }\r\n        STATUS.LIST_ON_UNISWAP = true;\r\n    }\r\n\r\n    function ownerWithdrawTokens() external nonReentrant onlyPresaleOwner {\r\n        require(!STATUS.IS_OWNER_WITHDRAWN, \"GENERATION COMPLETE\");\r\n        require(presaleStatus() == 2, \"NOT SUCCESS\"); // SUCCESS\r\n        require(PRESALE_INFO.ADD_LP != 2, \"OFF-CHAIN MODE\");\r\n        require(PRESALE_INFO.UNISWAP_LISTING_TIME > 0, \"NO LISTING TIME\");\r\n        require(block.timestamp > PRESALE_INFO.UNISWAP_LISTING_TIME + 1 days, \"EARLY TO CALL\");\r\n\r\n        uint256 DAOLaunchBaseFee = ((STATUS.TOTAL_BASE_COLLECTED - TOTAL_TOKENS_REFUNDED) *\r\n            PRESALE_FEE_INFO.DAOLAUNCH_BASE_FEE) / 1000;\r\n        uint256 baseLiquidity = (((STATUS.TOTAL_BASE_COLLECTED - TOTAL_TOKENS_REFUNDED) -\r\n            DAOLaunchBaseFee) * PRESALE_INFO.LIQUIDITY_PERCENT) / 1000;\r\n        uint256 DAOLaunchTokenFee = (STATUS.TOTAL_TOKENS_SOLD *\r\n            PRESALE_FEE_INFO.DAOLAUNCH_TOKEN_FEE) / 1000;\r\n        uint256 tokenLiquidity = (baseLiquidity * PRESALE_INFO.LISTING_RATE) /\r\n            (10**uint256(PRESALE_INFO.B_TOKEN.decimals()));\r\n\r\n        // send remain unsold tokens to presale owner\r\n        uint256 remainingSBalance = PRESALE_INFO.S_TOKEN.balanceOf(\r\n            address(this)\r\n        ) +\r\n            STATUS.TOTAL_TOKENS_WITHDRAWN -\r\n            STATUS.TOTAL_TOKENS_SOLD;\r\n\r\n        // send remaining base tokens to presale owner\r\n        uint256 remainingBaseBalance = PRESALE_INFO.PRESALE_IN_ETH\r\n            ? address(this).balance\r\n            : PRESALE_INFO.B_TOKEN.balanceOf(address(this));\r\n        if (!STATUS.IS_TRANSFERED_FEE) {\r\n            remainingBaseBalance -= DAOLaunchBaseFee;\r\n            remainingSBalance -= DAOLaunchTokenFee;\r\n            remainingBaseBalance -= TOTAL_FEE;\r\n        }\r\n        if (!STATUS.LIST_ON_UNISWAP) {\r\n            if (PRESALE_INFO.PRESALE_IN_ETH) {\r\n                remainingBaseBalance -=\r\n                    baseLiquidity +\r\n                    PRESALE_SETTINGS.getEthCreationFee();\r\n            } else {\r\n                remainingBaseBalance -= baseLiquidity;\r\n            }\r\n            remainingSBalance -= tokenLiquidity;\r\n        }\r\n\r\n        // add refund\r\n        uint256 tokenRefunded = TOTAL_TOKENS_REFUNDED * PRESALE_INFO.TOKEN_PRICE / (10**uint256(PRESALE_INFO.B_TOKEN.decimals()));\r\n        remainingSBalance += tokenRefunded;\r\n\r\n        if (remainingSBalance > 0) {\r\n            TransferHelper.safeTransfer(\r\n                address(PRESALE_INFO.S_TOKEN),\r\n                PRESALE_INFO.PRESALE_OWNER,\r\n                remainingSBalance\r\n            );\r\n        }\r\n\r\n        TransferHelper.safeTransferBaseToken(\r\n            address(PRESALE_INFO.B_TOKEN),\r\n            PRESALE_INFO.PRESALE_OWNER,\r\n            remainingBaseBalance,\r\n            !PRESALE_INFO.PRESALE_IN_ETH\r\n        );\r\n        STATUS.IS_OWNER_WITHDRAWN = true;\r\n    }\r\n\r\n    // function userRefundTokens() external nonReentrant {\r\n    //     require(block.timestamp > PRESALE_INFO.UNISWAP_LISTING_TIME, \"EARLY TO CALL\");\r\n    //     require(block.timestamp < PRESALE_INFO.UNISWAP_LISTING_TIME + 1 days, \"LATE TO CALL\");\r\n    //     require(presaleStatus() == 2, \"NOT SUCCESS\"); // SUCCESS\r\n    //     require(PRESALE_INFO.UNISWAP_LISTING_TIME > 0, \"NO LISTING TIME\");\r\n    //     BuyerInfo storage buyer = BUYERS[msg.sender];\r\n    //     require(!buyer.isWithdrawnBase, \"NOTHING TO REFUND\");\r\n    //     require(buyer.totalTokenWithdraw == 0, \"CANNOT REFUND\");\r\n\r\n    //     TOTAL_TOKENS_REFUNDED += buyer.baseDeposited - USER_FEES[msg.sender];\r\n    //     TOTAL_FEES_REFUNDED += USER_FEES[msg.sender];\r\n    //     TransferHelper.safeTransferBaseToken(\r\n    //         address(PRESALE_INFO.B_TOKEN),\r\n    //         payable(msg.sender),\r\n    //         buyer.baseDeposited,\r\n    //         !PRESALE_INFO.PRESALE_IN_ETH\r\n    //     );\r\n    //     buyer.isWithdrawnBase = true;\r\n    // }\r\n\r\n    // function updateGasLimit(\r\n    //     uint256 _transferPresaleOwner,\r\n    //     uint256 _listOnUniswap\r\n    // ) external {\r\n    //     require(msg.sender == DAOLAUNCH_DEV, \"INVALID CALLER\");\r\n    //     GAS_LIMIT.transferPresaleOwner = _transferPresaleOwner;\r\n    //     GAS_LIMIT.listOnUniswap = _listOnUniswap;\r\n    // }\r\n\r\n    // function updateMaxSpendLimit(uint256 _maxSpend) external onlyPresaleOwnerOrAdmin {\r\n    //     PRESALE_INFO.MAX_SPEND_PER_BUYER = _maxSpend;\r\n    // }\r\n\r\n    // // postpone or bring a presale forward, this will only work when a presale is inactive.\r\n    // // i.e. current start block > block.timestamp\r\n    // function updateBlocks(uint256 _startTime, uint256 _endTime)\r\n    //     external\r\n    //     onlyPresaleOwnerOrAdmin\r\n    // {\r\n    //     require(PRESALE_INFO.START_TIME > block.timestamp);\r\n    //     require(_endTime - _startTime > 0);\r\n    //     PRESALE_INFO.START_TIME = _startTime;\r\n    //     PRESALE_INFO.END_TIME = _endTime;\r\n    // }\r\n\r\n    // // editable at any stage of the presale\r\n    // function setWhitelistFlag(bool _flag) external onlyPresaleOwnerOrAdmin {\r\n    //     STATUS.WHITELIST_ONLY = _flag;\r\n    // }\r\n\r\n    // function updateAdmin(address _adminAddr, bool _flag) external onlyAdmin {\r\n    //     require(_adminAddr != address(0), \"INVALID ADDRESS\");\r\n    //     admins[_adminAddr] = _flag;\r\n    // }\r\n\r\n    // // if uniswap listing fails, call this function to release eth\r\n    // function finalize() external {\r\n    //     require(msg.sender == DAOLAUNCH_DEV, \"INVALID CALLER\");\r\n\r\n    //     uint256 remainingBBalance;\r\n    //     if (!PRESALE_INFO.PRESALE_IN_ETH) {\r\n    //         remainingBBalance = PRESALE_INFO.B_TOKEN.balanceOf(\r\n    //             address(this)\r\n    //         );\r\n    //     } else {\r\n    //         remainingBBalance = address(this).balance;\r\n    //     }\r\n    //     TransferHelper.safeTransferBaseToken(\r\n    //         address(PRESALE_INFO.B_TOKEN),\r\n    //         PRESALE_FEE_INFO.BASE_FEE_ADDRESS,\r\n    //         remainingBBalance,\r\n    //         !PRESALE_INFO.PRESALE_IN_ETH\r\n    //     );\r\n\r\n    //     uint256 remainingSBalance = PRESALE_INFO.S_TOKEN.balanceOf(\r\n    //         address(this)\r\n    //     );\r\n    //     TransferHelper.safeTransfer(\r\n    //         address(PRESALE_INFO.S_TOKEN),\r\n    //         PRESALE_FEE_INFO.BASE_FEE_ADDRESS,\r\n    //         remainingSBalance\r\n    //     );\r\n    //     selfdestruct(PRESALE_FEE_INFO.BASE_FEE_ADDRESS);\r\n    // }\r\n\r\n    // // editable at any stage of the presale\r\n    // function changePresaleType(bool _flag, uint256 _maxSpend) external onlyAdmin {\r\n    //     STATUS.WHITELIST_ONLY = _flag;\r\n    //     PRESALE_INFO.MAX_SPEND_PER_BUYER = _maxSpend;\r\n    // }\r\n\r\n    // function updateListingTime(uint256 _listOnUniswap) external onlyAdmin {\r\n    //     require(_listOnUniswap > PRESALE_INFO.END_TIME, \"INVALID TIME\");\r\n    //     PRESALE_INFO.UNISWAP_LISTING_TIME = _listOnUniswap;\r\n    // }\r\n}\r\n",
  "sourcePath": "C:\\Users\\Admin\\Desktop\\Test_DAOLaunch\\contracts\\ethereum\\Presale01.sol",
  "compiler": {
    "name": "solc",
    "version": "0.8.0+commit.c7dfd78e.Emscripten.clang"
  },
  "schemaVersion": "3.4.4",
  "updatedAt": "2022-04-14T02:57:05.667Z",
  "networkType": "ethereum",
  "devdoc": {
    "kind": "dev",
    "methods": {},
    "version": 1
  },
  "userdoc": {
    "kind": "user",
    "methods": {},
    "version": 1
  }
}