{
  "contractName": "Presale01",
  "abi": [
    {
      "inputs": [
        {
          "internalType": "address",
          "name": "_presaleGenerator",
          "type": "address"
        },
        {
          "internalType": "address[]",
          "name": "_admins",
          "type": "address[]"
        }
      ],
      "stateMutability": "payable",
      "type": "constructor",
      "payable": true
    },
    {
      "inputs": [
        {
          "internalType": "address",
          "name": "",
          "type": "address"
        }
      ],
      "name": "BUYERS",
      "outputs": [
        {
          "internalType": "uint256",
          "name": "baseDeposited",
          "type": "uint256"
        },
        {
          "internalType": "uint256",
          "name": "tokensOwed",
          "type": "uint256"
        },
        {
          "internalType": "uint256",
          "name": "lastWithdraw",
          "type": "uint256"
        },
        {
          "internalType": "uint256",
          "name": "totalTokenWithdraw",
          "type": "uint256"
        },
        {
          "internalType": "bool",
          "name": "isWithdrawnBase",
          "type": "bool"
        }
      ],
      "stateMutability": "view",
      "type": "function",
      "constant": true
    },
    {
      "inputs": [],
      "name": "CALLER",
      "outputs": [
        {
          "internalType": "address payable",
          "name": "",
          "type": "address"
        }
      ],
      "stateMutability": "view",
      "type": "function",
      "constant": true
    },
    {
      "inputs": [],
      "name": "DAOLAUNCH_DEV",
      "outputs": [
        {
          "internalType": "address payable",
          "name": "",
          "type": "address"
        }
      ],
      "stateMutability": "view",
      "type": "function",
      "constant": true
    },
    {
      "inputs": [],
      "name": "GAS_LIMIT",
      "outputs": [
        {
          "internalType": "uint256",
          "name": "transferPresaleOwner",
          "type": "uint256"
        },
        {
          "internalType": "uint256",
          "name": "listOnUniswap",
          "type": "uint256"
        }
      ],
      "stateMutability": "view",
      "type": "function",
      "constant": true
    },
    {
      "inputs": [],
      "name": "PERCENT_FEE",
      "outputs": [
        {
          "internalType": "uint8",
          "name": "",
          "type": "uint8"
        }
      ],
      "stateMutability": "view",
      "type": "function",
      "constant": true
    },
    {
      "inputs": [],
      "name": "PRESALE_FEE_INFO",
      "outputs": [
        {
          "internalType": "uint256",
          "name": "DAOLAUNCH_BASE_FEE",
          "type": "uint256"
        },
        {
          "internalType": "uint256",
          "name": "DAOLAUNCH_TOKEN_FEE",
          "type": "uint256"
        },
        {
          "internalType": "address payable",
          "name": "BASE_FEE_ADDRESS",
          "type": "address"
        },
        {
          "internalType": "address payable",
          "name": "TOKEN_FEE_ADDRESS",
          "type": "address"
        }
      ],
      "stateMutability": "view",
      "type": "function",
      "constant": true
    },
    {
      "inputs": [],
      "name": "PRESALE_GENERATOR",
      "outputs": [
        {
          "internalType": "address",
          "name": "",
          "type": "address"
        }
      ],
      "stateMutability": "view",
      "type": "function",
      "constant": true
    },
    {
      "inputs": [],
      "name": "PRESALE_LOCK_FORWARDER",
      "outputs": [
        {
          "internalType": "contract IPresaleLockForwarder",
          "name": "",
          "type": "address"
        }
      ],
      "stateMutability": "view",
      "type": "function",
      "constant": true
    },
    {
      "inputs": [],
      "name": "PRESALE_SETTINGS",
      "outputs": [
        {
          "internalType": "contract IPresaleSettings",
          "name": "",
          "type": "address"
        }
      ],
      "stateMutability": "view",
      "type": "function",
      "constant": true
    },
    {
      "inputs": [],
      "name": "STATUS",
      "outputs": [
        {
          "internalType": "bool",
          "name": "WHITELIST_ONLY",
          "type": "bool"
        },
        {
          "internalType": "bool",
          "name": "LIST_ON_UNISWAP",
          "type": "bool"
        },
        {
          "internalType": "bool",
          "name": "IS_TRANSFERED_FEE",
          "type": "bool"
        },
        {
          "internalType": "bool",
          "name": "IS_OWNER_WITHDRAWN",
          "type": "bool"
        },
        {
          "internalType": "uint256",
          "name": "TOTAL_BASE_COLLECTED",
          "type": "uint256"
        },
        {
          "internalType": "uint256",
          "name": "TOTAL_TOKENS_SOLD",
          "type": "uint256"
        },
        {
          "internalType": "uint256",
          "name": "TOTAL_TOKENS_WITHDRAWN",
          "type": "uint256"
        },
        {
          "internalType": "uint256",
          "name": "TOTAL_BASE_WITHDRAWN",
          "type": "uint256"
        },
        {
          "internalType": "uint256",
          "name": "NUM_BUYERS",
          "type": "uint256"
        }
      ],
      "stateMutability": "view",
      "type": "function",
      "constant": true
    },
    {
      "inputs": [],
      "name": "TOTAL_FEE",
      "outputs": [
        {
          "internalType": "uint256",
          "name": "",
          "type": "uint256"
        }
      ],
      "stateMutability": "view",
      "type": "function",
      "constant": true
    },
    {
      "inputs": [],
      "name": "TOTAL_FEES_REFUNDED",
      "outputs": [
        {
          "internalType": "uint256",
          "name": "",
          "type": "uint256"
        }
      ],
      "stateMutability": "view",
      "type": "function",
      "constant": true
    },
    {
      "inputs": [],
      "name": "TOTAL_TOKENS_REFUNDED",
      "outputs": [
        {
          "internalType": "uint256",
          "name": "",
          "type": "uint256"
        }
      ],
      "stateMutability": "view",
      "type": "function",
      "constant": true
    },
    {
      "inputs": [],
      "name": "UNI_FACTORY",
      "outputs": [
        {
          "internalType": "contract IUniswapV2Factory",
          "name": "",
          "type": "address"
        }
      ],
      "stateMutability": "view",
      "type": "function",
      "constant": true
    },
    {
      "inputs": [
        {
          "internalType": "address",
          "name": "",
          "type": "address"
        }
      ],
      "name": "USER_FEES",
      "outputs": [
        {
          "internalType": "uint256",
          "name": "",
          "type": "uint256"
        }
      ],
      "stateMutability": "view",
      "type": "function",
      "constant": true
    },
    {
      "inputs": [],
      "name": "VESTING_PERIOD",
      "outputs": [
        {
          "internalType": "uint256",
          "name": "firstDistributionType",
          "type": "uint256"
        },
        {
          "internalType": "uint256",
          "name": "firstUnlockRate",
          "type": "uint256"
        },
        {
          "internalType": "uint256",
          "name": "distributionInterval",
          "type": "uint256"
        },
        {
          "internalType": "uint256",
          "name": "unlockRateEachTime",
          "type": "uint256"
        },
        {
          "internalType": "uint256",
          "name": "maxPeriod",
          "type": "uint256"
        }
      ],
      "stateMutability": "view",
      "type": "function",
      "constant": true
    },
    {
      "inputs": [],
      "name": "WETH",
      "outputs": [
        {
          "internalType": "contract IWETH",
          "name": "",
          "type": "address"
        }
      ],
      "stateMutability": "view",
      "type": "function",
      "constant": true
    },
    {
      "inputs": [
        {
          "internalType": "address",
          "name": "",
          "type": "address"
        }
      ],
      "name": "admins",
      "outputs": [
        {
          "internalType": "bool",
          "name": "",
          "type": "bool"
        }
      ],
      "stateMutability": "view",
      "type": "function",
      "constant": true
    },
    {
      "inputs": [
        {
          "internalType": "address payable",
          "name": "_presaleOwner",
          "type": "address"
        },
        {
          "internalType": "uint256[11]",
          "name": "data",
          "type": "uint256[11]"
        }
      ],
      "name": "init1",
      "outputs": [],
      "stateMutability": "nonpayable",
      "type": "function"
    },
    {
      "inputs": [
        {
          "internalType": "contract IERC20Custom",
          "name": "_baseToken",
          "type": "address"
        },
        {
          "internalType": "contract IERC20Custom",
          "name": "_presaleToken",
          "type": "address"
        },
        {
          "internalType": "uint256[3]",
          "name": "data",
          "type": "uint256[3]"
        },
        {
          "internalType": "address payable",
          "name": "_baseFeeAddress",
          "type": "address"
        },
        {
          "internalType": "address payable",
          "name": "_tokenFeeAddress",
          "type": "address"
        }
      ],
      "name": "init2",
      "outputs": [],
      "stateMutability": "nonpayable",
      "type": "function"
    },
    {
      "inputs": [
        {
          "internalType": "bool",
          "name": "is_white_list",
          "type": "bool"
        },
        {
          "internalType": "address payable",
          "name": "_caller",
          "type": "address"
        },
        {
          "internalType": "uint256[5]",
          "name": "data",
          "type": "uint256[5]"
        },
        {
          "internalType": "uint8",
          "name": "_addLP",
          "type": "uint8"
        },
        {
          "internalType": "uint8",
          "name": "_percentFee",
          "type": "uint8"
        }
      ],
      "name": "init3",
      "outputs": [],
      "stateMutability": "nonpayable",
      "type": "function"
    },
    {
      "inputs": [],
      "name": "presaleStatus",
      "outputs": [
        {
          "internalType": "uint256",
          "name": "",
          "type": "uint256"
        }
      ],
      "stateMutability": "view",
      "type": "function",
      "constant": true
    },
    {
      "inputs": [
        {
          "internalType": "uint256",
          "name": "_amount",
          "type": "uint256"
        },
        {
          "internalType": "uint8",
          "name": "_v",
          "type": "uint8"
        },
        {
          "internalType": "bytes32",
          "name": "_r",
          "type": "bytes32"
        },
        {
          "internalType": "bytes32",
          "name": "_s",
          "type": "bytes32"
        }
      ],
      "name": "userDeposit",
      "outputs": [],
      "stateMutability": "payable",
      "type": "function",
      "payable": true
    }
  ],
  "bytecode": "0x608060405260405162003224380380620032248339818101604052810190620000299190620003cd565b600160008190555081601b60006101000a81548173ffffffffffffffffffffffffffffffffffffffff021916908373ffffffffffffffffffffffffffffffffffffffff16021790555073ca143ce32fe78f1f7019d7d551a6402fc5350c73601e60006101000a81548173ffffffffffffffffffffffffffffffffffffffff021916908373ffffffffffffffffffffffffffffffffffffffff16021790555073bb4cdb9cbd36b01bd1cbaebf2de08d9173bc095c601f60006101000a81548173ffffffffffffffffffffffffffffffffffffffff021916908373ffffffffffffffffffffffffffffffffffffffff16021790555073cfb2cb97028c4e2fe6b868d685c00ab96e6ec370601d60006101000a81548173ffffffffffffffffffffffffffffffffffffffff021916908373ffffffffffffffffffffffffffffffffffffffff1602179055507357f443f5a891fc53c43b6d9fb850fc068af76bf4601c60006101000a81548173ffffffffffffffffffffffffffffffffffffffff021916908373ffffffffffffffffffffffffffffffffffffffff160217905550604051806040016040528062030d408152602001623d0900815250602260008201518160000155602082015181600101559050507375d69272c5a9d6fcec0d68c547776c7195f73fea602460006101000a81548173ffffffffffffffffffffffffffffffffffffffff021916908373ffffffffffffffffffffffffffffffffffffffff16021790555060005b81518110156200030b576001602a60008484815181106200029c577f4e487b7100000000000000000000000000000000000000000000000000000000600052603260045260246000fd5b602002602001015173ffffffffffffffffffffffffffffffffffffffff1673ffffffffffffffffffffffffffffffffffffffff16815260200190815260200160002060006101000a81548160ff02191690831515021790555080806200030290620004c8565b91505062000252565b5050506200058e565b60006200032b62000325846200045b565b62000427565b905080838252602082019050828560208602820111156200034b57600080fd5b60005b858110156200037f578162000364888262000389565b8452602084019350602083019250506001810190506200034e565b5050509392505050565b6000815190506200039a8162000574565b92915050565b600082601f830112620003b257600080fd5b8151620003c484826020860162000314565b91505092915050565b60008060408385031215620003e157600080fd5b6000620003f18582860162000389565b925050602083015167ffffffffffffffff8111156200040f57600080fd5b6200041d85828601620003a0565b9150509250929050565b6000604051905081810181811067ffffffffffffffff8211171562000451576200045062000545565b5b8060405250919050565b600067ffffffffffffffff82111562000479576200047862000545565b5b602082029050602081019050919050565b600062000497826200049e565b9050919050565b600073ffffffffffffffffffffffffffffffffffffffff82169050919050565b6000819050919050565b6000620004d582620004be565b91507fffffffffffffffffffffffffffffffffffffffffffffffffffffffffffffffff8214156200050b576200050a62000516565b5b600182019050919050565b7f4e487b7100000000000000000000000000000000000000000000000000000000600052601160045260246000fd5b7f4e487b7100000000000000000000000000000000000000000000000000000000600052604160045260246000fd5b6200057f816200048a565b81146200058b57600080fd5b50565b612c86806200059e6000396000f3fe6080604052600436106101405760003560e01c8063863dabb4116100b6578063a5d0de8c1161006f578063a5d0de8c14610438578063acfb235514610466578063ad5c464814610491578063c870279e146104bc578063e33865b3146104e7578063f329c9cf1461051a57610140565b8063863dabb41461034957806388bb1cf51461037457806389fc005614610390578063900f11ef146103bb57806397357124146103e65780639c221f971461040f57610140565b80633fa1c85c116101085780633fa1c85c14610237578063429b62e51461026257806356662d561461029f57806363db7eae146102ca57806367766e81146102f55780637bfc66001461031e57610140565b80630197d97214610145578063091d2788146101745780630a75da19146101a05780630bbebba4146101cb57806310c55f2b146101f6575b600080fd5b34801561015157600080fd5b5061015a610557565b60405161016b959493929190612540565b60405180910390f35b34801561018057600080fd5b5061018961057b565b60405161019792919061247f565b60405180910390f35b3480156101ac57600080fd5b506101b561058d565b6040516101c291906121d9565b60405180910390f35b3480156101d757600080fd5b506101e06105b3565b6040516101ed9190612333565b60405180910390f35b34801561020257600080fd5b5061021d60048036038101906102189190611c2f565b6105d9565b60405161022e9594939291906124ed565b60405180910390f35b34801561024357600080fd5b5061024c61061b565b6040516102599190612593565b60405180910390f35b34801561026e57600080fd5b5061028960048036038101906102849190611c2f565b61062e565b604051610296919061222b565b60405180910390f35b3480156102ab57600080fd5b506102b461064e565b6040516102c19190612464565b60405180910390f35b3480156102d657600080fd5b506102df610654565b6040516102ec9190612464565b60405180910390f35b34801561030157600080fd5b5061031c60048036038101906103179190611d37565b61065a565b005b34801561032a57600080fd5b50610333610945565b6040516103409190612318565b60405180910390f35b34801561035557600080fd5b5061035e61096b565b60405161036b91906121d9565b60405180910390f35b61038e60048036038101906103899190611dae565b610991565b005b34801561039c57600080fd5b506103a5610f16565b6040516103b2919061234e565b60405180910390f35b3480156103c757600080fd5b506103d0610f3c565b6040516103dd9190612464565b60405180910390f35b3480156103f257600080fd5b5061040d60048036038101906104089190611cbe565b610f42565b005b34801561041b57600080fd5b5061043660048036038101906104319190611c58565b6111d8565b005b34801561044457600080fd5b5061044d6115c8565b60405161045d94939291906124a8565b60405180910390f35b34801561047257600080fd5b5061047b611626565b6040516104889190612464565b60405180910390f35b34801561049d57600080fd5b506104a66116c9565b6040516104b39190612369565b60405180910390f35b3480156104c857600080fd5b506104d16116ef565b6040516104de91906121be565b60405180910390f35b3480156104f357600080fd5b506104fc611715565b60405161051199989796959493929190612246565b60405180910390f35b34801561052657600080fd5b50610541600480360381019061053c9190611c2f565b611785565b60405161054e9190612464565b60405180910390f35b60258060000154908060010154908060020154908060030154908060040154905085565b60228060000154908060010154905082565b602460009054906101000a900473ffffffffffffffffffffffffffffffffffffffff1681565b601d60009054906101000a900473ffffffffffffffffffffffffffffffffffffffff1681565b602080528060005260406000206000915090508060000154908060010154908060020154908060030154908060040160009054906101000a900460ff16905085565b602c60009054906101000a900460ff1681565b602a6020528060005260406000206000915054906101000a900460ff1681565b602e5481565b602b5481565b601b60009054906101000a900473ffffffffffffffffffffffffffffffffffffffff1673ffffffffffffffffffffffffffffffffffffffff163373ffffffffffffffffffffffffffffffffffffffff16146106ea576040517f08c379a00000000000000000000000000000000000000000000000000000000081526004016106e1906123e4565b60405180910390fd5b601f60009054906101000a900473ffffffffffffffffffffffffffffffffffffffff1673ffffffffffffffffffffffffffffffffffffffff168573ffffffffffffffffffffffffffffffffffffffff16146001600f0160006101000a81548160ff021916908315150217905550836001800160006101000a81548173ffffffffffffffffffffffffffffffffffffffff021916908373ffffffffffffffffffffffffffffffffffffffff16021790555084600160020160006101000a81548173ffffffffffffffffffffffffffffffffffffffff021916908373ffffffffffffffffffffffffffffffffffffffff16021790555082600060038110610818577f4e487b7100000000000000000000000000000000000000000000000000000000600052603260045260246000fd5b602002015160116000018190555082600160038110610860577f4e487b7100000000000000000000000000000000000000000000000000000000600052603260045260246000fd5b6020020151601160010181905550826002600381106108a8577f4e487b7100000000000000000000000000000000000000000000000000000000600052603260045260246000fd5b60200201516001600e018190555081601160020160006101000a81548173ffffffffffffffffffffffffffffffffffffffff021916908373ffffffffffffffffffffffffffffffffffffffff16021790555080601160030160006101000a81548173ffffffffffffffffffffffffffffffffffffffff021916908373ffffffffffffffffffffffffffffffffffffffff1602179055505050505050565b601c60009054906101000a900473ffffffffffffffffffffffffffffffffffffffff1681565b602160009054906101000a900473ffffffffffffffffffffffffffffffffffffffff1681565b828282601560000160009054906101000a900460ff16156109f8576109b83384848461179d565b6109f7576040517f08c379a00000000000000000000000000000000000000000000000000000000081526004016109ee906123c4565b60405180910390fd5b5b60026000541415610a3e576040517f08c379a0000000000000000000000000000000000000000000000000000000008152600401610a3590612424565b60405180910390fd5b60026000819055506001610a50611626565b14610a90576040517f08c379a0000000000000000000000000000000000000000000000000000000008152600401610a8790612384565b60405180910390fd5b6000602060003373ffffffffffffffffffffffffffffffffffffffff1673ffffffffffffffffffffffffffffffffffffffff168152602001908152602001600020905060006001600f0160009054906101000a900460ff16610af25788610af4565b345b905060008190506000601560000160009054906101000a900460ff16610b61576103e8602c60009054906101000a900460ff1660ff166103e8610b3791906128d5565b61ffff1683610b46919061287b565b610b5091906126d9565b91508183610b5e9190612909565b90505b600160050154821015610ba9576040517f08c379a0000000000000000000000000000000000000000000000000000000008152600401610ba0906123a4565b60405180910390fd5b60008460000154600160040154610bc09190612909565b90506000601560010154600160070154610bda9190612909565b9050808211610be95781610beb565b805b915081841115610bf9578193505b6000600160020160009054906101000a900473ffffffffffffffffffffffffffffffffffffffff1673ffffffffffffffffffffffffffffffffffffffff1663313ce5676040518163ffffffff1660e01b815260040160206040518083038186803b158015610c6657600080fd5b505afa158015610c7a573d6000803e3d6000fd5b505050506040513d601f19601f82011682018060405250810190610c9e9190611e11565b60ff16600a610cad919061275d565b60016003015486610cbe919061287b565b610cc891906126d9565b905060008111610d0d576040517f08c379a0000000000000000000000000000000000000000000000000000000008152600401610d0490612444565b60405180910390fd5b600087600001541415610d365760156005016000815480929190610d3090612a91565b91905055505b8385610d429190612683565b876000016000828254610d559190612683565b9250508190555080876001016000828254610d709190612683565b925050819055508460156001016000828254610d8c9190612683565b925050819055508060156002016000828254610da89190612683565b9250508190555083602d60003373ffffffffffffffffffffffffffffffffffffffff1673ffffffffffffffffffffffffffffffffffffffff1681526020019081526020016000206000828254610dfe9190612683565b9250508190555083602b6000828254610e179190612683565b925050819055506001600f0160009054906101000a900460ff168015610e475750348486610e459190612683565b105b15610eaa573373ffffffffffffffffffffffffffffffffffffffff166108fc858734610e739190612909565b610e7d9190612909565b9081150290604051600060405180830381858888f19350505050158015610ea8573d6000803e3d6000fd5b505b6001600f0160009054906101000a900460ff16610efe57610efd600160020160009054906101000a900473ffffffffffffffffffffffffffffffffffffffff1633308789610ef89190612683565b61189b565b5b50505050505050600160008190555050505050505050565b601e60009054906101000a900473ffffffffffffffffffffffffffffffffffffffff1681565b602f5481565b601b60009054906101000a900473ffffffffffffffffffffffffffffffffffffffff1673ffffffffffffffffffffffffffffffffffffffff163373ffffffffffffffffffffffffffffffffffffffff1614610fd2576040517f08c379a0000000000000000000000000000000000000000000000000000000008152600401610fc9906123e4565b60405180910390fd5b84601560000160006101000a81548160ff02191690831515021790555083602160006101000a81548173ffffffffffffffffffffffffffffffffffffffff021916908373ffffffffffffffffffffffffffffffffffffffff1602179055508260006005811061106a577f4e487b7100000000000000000000000000000000000000000000000000000000600052603260045260246000fd5b6020020151602560000181905550826001600581106110b2577f4e487b7100000000000000000000000000000000000000000000000000000000600052603260045260246000fd5b6020020151602560010181905550826002600581106110fa577f4e487b7100000000000000000000000000000000000000000000000000000000600052603260045260246000fd5b602002015160256002018190555082600360058110611142577f4e487b7100000000000000000000000000000000000000000000000000000000600052603260045260246000fd5b60200201516025600301819055508260046005811061118a577f4e487b7100000000000000000000000000000000000000000000000000000000600052603260045260246000fd5b6020020151602560040181905550816001600f0160016101000a81548160ff021916908360ff16021790555080602c60006101000a81548160ff021916908360ff1602179055505050505050565b601b60009054906101000a900473ffffffffffffffffffffffffffffffffffffffff1673ffffffffffffffffffffffffffffffffffffffff163373ffffffffffffffffffffffffffffffffffffffff1614611268576040517f08c379a000000000000000000000000000000000000000000000000000000000815260040161125f906123e4565b60405180910390fd5b81600160000160006101000a81548173ffffffffffffffffffffffffffffffffffffffff021916908373ffffffffffffffffffffffffffffffffffffffff160217905550806000600b81106112e6577f4e487b7100000000000000000000000000000000000000000000000000000000600052603260045260246000fd5b6020020151600160060181905550806001600b811061132e577f4e487b7100000000000000000000000000000000000000000000000000000000600052603260045260246000fd5b6020020151600160030181905550806002600b8110611376577f4e487b7100000000000000000000000000000000000000000000000000000000600052603260045260246000fd5b6020020151600160040181905550806003600b81106113be577f4e487b7100000000000000000000000000000000000000000000000000000000600052603260045260246000fd5b6020020151600160050181905550806004600b8110611406577f4e487b7100000000000000000000000000000000000000000000000000000000600052603260045260246000fd5b6020020151600160070181905550806005600b811061144e577f4e487b7100000000000000000000000000000000000000000000000000000000600052603260045260246000fd5b6020020151600160080181905550806006600b8110611496577f4e487b7100000000000000000000000000000000000000000000000000000000600052603260045260246000fd5b6020020151600160090181905550806007600b81106114de577f4e487b7100000000000000000000000000000000000000000000000000000000600052603260045260246000fd5b60200201516001600a0181905550806008600b8110611526577f4e487b7100000000000000000000000000000000000000000000000000000000600052603260045260246000fd5b60200201516001600b0181905550806009600b811061156e577f4e487b7100000000000000000000000000000000000000000000000000000000600052603260045260246000fd5b60200201516001600c018190555080600a600b81106115b6577f4e487b7100000000000000000000000000000000000000000000000000000000600052603260045260246000fd5b60200201516001600d01819055505050565b60118060000154908060010154908060020160009054906101000a900473ffffffffffffffffffffffffffffffffffffffff16908060030160009054906101000a900473ffffffffffffffffffffffffffffffffffffffff16905084565b60006001600c0154421180156116455750600160080154601560010154105b1561165357600390506116c6565b6001600701546015600101541061166d57600290506116c6565b6001600c01544211801561168b575060016008015460156001015410155b1561169957600290506116c6565b6001600b015442101580156116b357506001600c01544211155b156116c157600190506116c6565b600090505b90565b601f60009054906101000a900473ffffffffffffffffffffffffffffffffffffffff1681565b601b60009054906101000a900473ffffffffffffffffffffffffffffffffffffffff1681565b60158060000160009054906101000a900460ff16908060000160019054906101000a900460ff16908060000160029054906101000a900460ff16908060000160039054906101000a900460ff16908060010154908060020154908060030154908060040154908060050154905089565b602d6020528060005260406000206000915090505481565b60008030866040516020016117b3929190612155565b6040516020818303038152906040528051906020012090506001816040516020016117de9190612198565b604051602081830303815290604052805190602001208686866040516000815260200160405260405161181494939291906122d3565b6020604051602081039080840390855afa158015611836573d6000803e3d6000fd5b5050506020604051035173ffffffffffffffffffffffffffffffffffffffff16602460009054906101000a900473ffffffffffffffffffffffffffffffffffffffff1673ffffffffffffffffffffffffffffffffffffffff1614915050949350505050565b6000808573ffffffffffffffffffffffffffffffffffffffff166323b872dd8686866040516024016118cf939291906121f4565b6040516020818303038152906040529060e01b6020820180517bffffffffffffffffffffffffffffffffffffffffffffffffffffffff838183161783525050505060405161191d9190612181565b6000604051808303816000865af19150503d806000811461195a576040519150601f19603f3d011682016040523d82523d6000602084013e61195f565b606091505b509150915081801561198d575060008151148061198c57508080602001905181019061198b9190611c95565b5b5b6119cc576040517f08c379a00000000000000000000000000000000000000000000000000000000081526004016119c390612404565b60405180910390fd5b505050505050565b60006119e76119e2846125df565b6125ae565b905080828560208602820111156119fd57600080fd5b60005b85811015611a2d5781611a138882611bf0565b845260208401935060208301925050600181019050611a00565b5050509392505050565b6000611a4a611a4584612605565b6125ae565b90508082856020860282011115611a6057600080fd5b60005b85811015611a905781611a768882611bf0565b845260208401935060208301925050600181019050611a63565b5050509392505050565b6000611aad611aa88461262b565b6125ae565b90508082856020860282011115611ac357600080fd5b60005b85811015611af35781611ad98882611bf0565b845260208401935060208301925050600181019050611ac6565b5050509392505050565b600081359050611b0c81612baf565b92915050565b600081359050611b2181612bc6565b92915050565b600082601f830112611b3857600080fd5b600b611b458482856119d4565b91505092915050565b600082601f830112611b5f57600080fd5b6003611b6c848285611a37565b91505092915050565b600082601f830112611b8657600080fd5b6005611b93848285611a9a565b91505092915050565b600081359050611bab81612bdd565b92915050565b600081519050611bc081612bdd565b92915050565b600081359050611bd581612bf4565b92915050565b600081359050611bea81612c0b565b92915050565b600081359050611bff81612c22565b92915050565b600081359050611c1481612c39565b92915050565b600081519050611c2981612c39565b92915050565b600060208284031215611c4157600080fd5b6000611c4f84828501611afd565b91505092915050565b6000806101808385031215611c6c57600080fd5b6000611c7a85828601611b12565b9250506020611c8b85828601611b27565b9150509250929050565b600060208284031215611ca757600080fd5b6000611cb584828501611bb1565b91505092915050565b60008060008060006101208688031215611cd757600080fd5b6000611ce588828901611b9c565b9550506020611cf688828901611b12565b9450506040611d0788828901611b75565b93505060e0611d1888828901611c05565b925050610100611d2a88828901611c05565b9150509295509295909350565b600080600080600060e08688031215611d4f57600080fd5b6000611d5d88828901611bdb565b9550506020611d6e88828901611bdb565b9450506040611d7f88828901611b4e565b93505060a0611d9088828901611b12565b92505060c0611da188828901611b12565b9150509295509295909350565b60008060008060808587031215611dc457600080fd5b6000611dd287828801611bf0565b9450506020611de387828801611c05565b9350506040611df487828801611bc6565b9250506060611e0587828801611bc6565b91505092959194509250565b600060208284031215611e2357600080fd5b6000611e3184828501611c1a565b91505092915050565b611e438161294f565b82525050565b611e528161293d565b82525050565b611e69611e648261293d565b612ada565b82525050565b611e7881612961565b82525050565b611e878161296d565b82525050565b611e9e611e998261296d565b612aec565b82525050565b6000611eaf82612651565b611eb9818561265c565b9350611ec9818560208601612a5e565b80840191505092915050565b611ede816129ce565b82525050565b611eed816129f2565b82525050565b611efc81612a16565b82525050565b611f0b81612a3a565b82525050565b6000611f1e601c83612678565b91507f19457468657265756d205369676e6564204d6573736167653a0a3332000000006000830152601c82019050919050565b6000611f5e600a83612667565b91507f4e4f5420414354495645000000000000000000000000000000000000000000006000830152602082019050919050565b6000611f9e601083612667565b91507f4e4f5420454e4f5547482056414c5545000000000000000000000000000000006000830152602082019050919050565b6000611fde600f83612667565b91507f4e4f542057484954454c495354454400000000000000000000000000000000006000830152602082019050919050565b600061201e600983612667565b91507f464f5242494444454e00000000000000000000000000000000000000000000006000830152602082019050919050565b600061205e602483612667565b91507f5472616e7366657248656c7065723a205452414e534645525f46524f4d5f464160008301527f494c4544000000000000000000000000000000000000000000000000000000006020830152604082019050919050565b60006120c4601f83612667565b91507f5265656e7472616e637947756172643a207265656e7472616e742063616c6c006000830152602082019050919050565b6000612104600b83612667565b91507f5a45524f20544f4b454e530000000000000000000000000000000000000000006000830152602082019050919050565b612140816129b7565b82525050565b61214f816129c1565b82525050565b60006121618285611e58565b6014820191506121718284611e58565b6014820191508190509392505050565b600061218d8284611ea4565b915081905092915050565b60006121a382611f11565b91506121af8284611e8d565b60208201915081905092915050565b60006020820190506121d36000830184611e49565b92915050565b60006020820190506121ee6000830184611e3a565b92915050565b60006060820190506122096000830186611e49565b6122166020830185611e49565b6122236040830184612137565b949350505050565b60006020820190506122406000830184611e6f565b92915050565b60006101208201905061225c600083018c611e6f565b612269602083018b611e6f565b612276604083018a611e6f565b6122836060830189611e6f565b6122906080830188612137565b61229d60a0830187612137565b6122aa60c0830186612137565b6122b760e0830185612137565b6122c5610100830184612137565b9a9950505050505050505050565b60006080820190506122e86000830187611e7e565b6122f56020830186612146565b6123026040830185611e7e565b61230f6060830184611e7e565b95945050505050565b600060208201905061232d6000830184611ed5565b92915050565b60006020820190506123486000830184611ee4565b92915050565b60006020820190506123636000830184611ef3565b92915050565b600060208201905061237e6000830184611f02565b92915050565b6000602082019050818103600083015261239d81611f51565b9050919050565b600060208201905081810360008301526123bd81611f91565b9050919050565b600060208201905081810360008301526123dd81611fd1565b9050919050565b600060208201905081810360008301526123fd81612011565b9050919050565b6000602082019050818103600083015261241d81612051565b9050919050565b6000602082019050818103600083015261243d816120b7565b9050919050565b6000602082019050818103600083015261245d816120f7565b9050919050565b60006020820190506124796000830184612137565b92915050565b60006040820190506124946000830185612137565b6124a16020830184612137565b9392505050565b60006080820190506124bd6000830187612137565b6124ca6020830186612137565b6124d76040830185611e3a565b6124e46060830184611e3a565b95945050505050565b600060a0820190506125026000830188612137565b61250f6020830187612137565b61251c6040830186612137565b6125296060830185612137565b6125366080830184611e6f565b9695505050505050565b600060a0820190506125556000830188612137565b6125626020830187612137565b61256f6040830186612137565b61257c6060830185612137565b6125896080830184612137565b9695505050505050565b60006020820190506125a86000830184612146565b92915050565b6000604051905081810181811067ffffffffffffffff821117156125d5576125d4612b66565b5b8060405250919050565b600067ffffffffffffffff8211156125fa576125f9612b66565b5b602082029050919050565b600067ffffffffffffffff8211156126205761261f612b66565b5b602082029050919050565b600067ffffffffffffffff82111561264657612645612b66565b5b602082029050919050565b600081519050919050565b600081905092915050565b600082825260208201905092915050565b600081905092915050565b600061268e826129b7565b9150612699836129b7565b9250827fffffffffffffffffffffffffffffffffffffffffffffffffffffffffffffffff038211156126ce576126cd612b08565b5b828201905092915050565b60006126e4826129b7565b91506126ef836129b7565b9250826126ff576126fe612b37565b5b828204905092915050565b6000808291508390505b6001851115612754578086048111156127305761272f612b08565b5b600185161561273f5780820291505b808102905061274d85612ba2565b9450612714565b94509492505050565b6000612768826129b7565b9150612773836129b7565b92506127a07fffffffffffffffffffffffffffffffffffffffffffffffffffffffffffffffff84846127a8565b905092915050565b6000826127b85760019050612874565b816127c65760009050612874565b81600181146127dc57600281146127e657612815565b6001915050612874565b60ff8411156127f8576127f7612b08565b5b8360020a91508482111561280f5761280e612b08565b5b50612874565b5060208310610133831016604e8410600b841016171561284a5782820a90508381111561284557612844612b08565b5b612874565b612857848484600161270a565b9250905081840481111561286e5761286d612b08565b5b81810290505b9392505050565b6000612886826129b7565b9150612891836129b7565b9250817fffffffffffffffffffffffffffffffffffffffffffffffffffffffffffffffff04831182151516156128ca576128c9612b08565b5b828202905092915050565b60006128e082612989565b91506128eb83612989565b9250828210156128fe576128fd612b08565b5b828203905092915050565b6000612914826129b7565b915061291f836129b7565b92508282101561293257612931612b08565b5b828203905092915050565b600061294882612997565b9050919050565b600061295a82612997565b9050919050565b60008115159050919050565b6000819050919050565b60006129828261293d565b9050919050565b600061ffff82169050919050565b600073ffffffffffffffffffffffffffffffffffffffff82169050919050565b6000819050919050565b600060ff82169050919050565b60006129d9826129e0565b9050919050565b60006129eb82612997565b9050919050565b60006129fd82612a04565b9050919050565b6000612a0f82612997565b9050919050565b6000612a2182612a28565b9050919050565b6000612a3382612997565b9050919050565b6000612a4582612a4c565b9050919050565b6000612a5782612997565b9050919050565b60005b83811015612a7c578082015181840152602081019050612a61565b83811115612a8b576000848401525b50505050565b6000612a9c826129b7565b91507fffffffffffffffffffffffffffffffffffffffffffffffffffffffffffffffff821415612acf57612ace612b08565b5b600182019050919050565b6000612ae582612af6565b9050919050565b6000819050919050565b6000612b0182612b95565b9050919050565b7f4e487b7100000000000000000000000000000000000000000000000000000000600052601160045260246000fd5b7f4e487b7100000000000000000000000000000000000000000000000000000000600052601260045260246000fd5b7f4e487b7100000000000000000000000000000000000000000000000000000000600052604160045260246000fd5b60008160601b9050919050565b60008160011c9050919050565b612bb88161293d565b8114612bc357600080fd5b50565b612bcf8161294f565b8114612bda57600080fd5b50565b612be681612961565b8114612bf157600080fd5b50565b612bfd8161296d565b8114612c0857600080fd5b50565b612c1481612977565b8114612c1f57600080fd5b50565b612c2b816129b7565b8114612c3657600080fd5b50565b612c42816129c1565b8114612c4d57600080fd5b5056fea2646970667358221220e8d5348e291dd786ffccc29c84ba8bcb528f994f4b1c434d0139acad0b32aa0564736f6c63430008000033",
  "immutableReferences": {},
  "source": "// SPDX-License-Identifier: UNLICENSED\r\n\r\npragma solidity ^0.8.0;\r\nimport \"../unitls/ReentrancyGuard.sol\";\r\nimport \"../common/TransferHelper.sol\";\r\nimport \"../common/IUniswapV2Factory.sol\";\r\nimport \"../common/IPresaleLockForwarder.sol\";\r\nimport \"../common/IWETH.sol\";\r\nimport \"../common/IPresaleSettings.sol\";\r\nimport \"../common/IERC20Custom.sol\";\r\n\r\ncontract Presale01 is ReentrancyGuard {\r\n    struct PresaleInfo {\r\n        address payable PRESALE_OWNER;\r\n        IERC20Custom S_TOKEN; // sale token\r\n        IERC20Custom B_TOKEN; // base token // usually WETH (ETH)\r\n        uint256 TOKEN_PRICE; // 1 base token = ? s_tokens, fixed price\r\n        uint256 MAX_SPEND_PER_BUYER; // maximum base token BUY amount per account\r\n        uint256 MIN_SPEND_PER_BUYER; // maximum base token BUY amount per account\r\n        uint256 AMOUNT; // the amount of presale tokens up for presale\r\n        uint256 HARDCAP;\r\n        uint256 SOFTCAP;\r\n        uint256 LIQUIDITY_PERCENT; // divided by 1000\r\n        uint256 LISTING_RATE; // fixed rate at which the token will list on uniswap\r\n        uint256 START_TIME;\r\n        uint256 END_TIME;\r\n        uint256 LOCK_PERIOD; // unix timestamp -> e.g. 2 weeks\r\n        uint256 UNISWAP_LISTING_TIME;\r\n        bool PRESALE_IN_ETH; // if this flag is true the presale is raising ETH, otherwise an ERC20 token such as DAI\r\n        uint8 ADD_LP;\r\n    }\r\n\r\n    struct PresaleFeeInfo {\r\n        uint256 DAOLAUNCH_BASE_FEE; // divided by 1000\r\n        uint256 DAOLAUNCH_TOKEN_FEE; // divided by 1000\r\n        address payable BASE_FEE_ADDRESS;\r\n        address payable TOKEN_FEE_ADDRESS;\r\n    }\r\n\r\n    struct PresaleStatus {\r\n        bool WHITELIST_ONLY; // if set to true only whitelisted members may participate\r\n        bool LIST_ON_UNISWAP;\r\n        bool IS_TRANSFERED_FEE;\r\n        bool IS_OWNER_WITHDRAWN;\r\n        uint256 TOTAL_BASE_COLLECTED; // total base currency raised (usually ETH)\r\n        uint256 TOTAL_TOKENS_SOLD; // total presale tokens sold\r\n        uint256 TOTAL_TOKENS_WITHDRAWN; // total tokens withdrawn post successful presale\r\n        uint256 TOTAL_BASE_WITHDRAWN; // total base tokens withdrawn on presale failure\r\n        uint256 NUM_BUYERS; // number of unique participants\r\n    }\r\n\r\n    struct BuyerInfo {\r\n        uint256 baseDeposited; // total base token (usually ETH) deposited by user, can be withdrawn on presale failure\r\n        uint256 tokensOwed; // num presale tokens a user is owed, can be withdrawn on presale success\r\n        uint256 lastWithdraw; // day of the last withdrawing. If first time => = firstDistributionType\r\n        uint256 totalTokenWithdraw; // number of tokens withdraw\r\n        bool isWithdrawnBase;\r\n        // bool isRefunded; // refund or claim\r\n    }\r\n\r\n    struct GasLimit {\r\n        uint256 transferPresaleOwner;\r\n        uint256 listOnUniswap;\r\n    }\r\n\r\n    struct VestingPeriod {\r\n        // if set time for user withdraw at listing : use same data in uint_params[11], otherwise set new Date for it\r\n        uint256 firstDistributionType;\r\n        uint256 firstUnlockRate;\r\n        uint256 distributionInterval;\r\n        uint256 unlockRateEachTime;\r\n        uint256 maxPeriod;\r\n    }\r\n\r\n    PresaleInfo private PRESALE_INFO;\r\n    PresaleFeeInfo public PRESALE_FEE_INFO;\r\n    PresaleStatus public STATUS;\r\n    address public PRESALE_GENERATOR;\r\n    IPresaleLockForwarder public PRESALE_LOCK_FORWARDER;\r\n    IPresaleSettings public PRESALE_SETTINGS;\r\n    IUniswapV2Factory public UNI_FACTORY;\r\n    IWETH public WETH;\r\n    mapping(address => BuyerInfo) public BUYERS;\r\n    address payable public CALLER;\r\n    GasLimit public GAS_LIMIT;\r\n    address payable public DAOLAUNCH_DEV;\r\n    VestingPeriod public VESTING_PERIOD;\r\n    mapping(address => bool) public admins;\r\n\r\n    uint256 public TOTAL_FEE;\r\n    uint8 public PERCENT_FEE;\r\n\r\n    mapping(address => uint256) public USER_FEES;\r\n    uint256 public TOTAL_TOKENS_REFUNDED; // total tokens refund\r\n    uint256 public TOTAL_FEES_REFUNDED; // total fees refund\r\n\r\n    constructor(address _presaleGenerator, address[] memory _admins) payable {\r\n        PRESALE_GENERATOR = _presaleGenerator;\r\n        UNI_FACTORY = IUniswapV2Factory(\r\n            0xcA143Ce32Fe78f1f7019d7d551a6402fC5350c73\r\n        );\r\n        WETH = IWETH(0xbb4CdB9CBd36B01bD1cBaEBF2De08d9173bc095c);\r\n        PRESALE_SETTINGS = IPresaleSettings(\r\n            0xcFb2Cb97028c4e2fe6b868D685C00ab96e6Ec370\r\n        );\r\n        PRESALE_LOCK_FORWARDER = IPresaleLockForwarder(\r\n            0x57f443f5A891fC53C43b6D9Fb850fC068af76bF4\r\n        );\r\n        GAS_LIMIT = GasLimit(200000, 4000000);\r\n        DAOLAUNCH_DEV = payable(0x75d69272c5A9d6FCeC0D68c547776C7195f73feA);\r\n        for (uint256 i = 0; i < _admins.length; i++) {\r\n            admins[_admins[i]] = true;\r\n        }\r\n    }\r\n\r\n    function init1(address payable _presaleOwner, uint256[11] memory data)\r\n        external\r\n    {\r\n        require(msg.sender == PRESALE_GENERATOR, \"FORBIDDEN\");\r\n        PRESALE_INFO.PRESALE_OWNER = _presaleOwner;\r\n        PRESALE_INFO.AMOUNT = data[0];\r\n        PRESALE_INFO.TOKEN_PRICE = data[1];\r\n        PRESALE_INFO.MAX_SPEND_PER_BUYER = data[2];\r\n        PRESALE_INFO.MIN_SPEND_PER_BUYER = data[3];\r\n        PRESALE_INFO.HARDCAP = data[4];\r\n        PRESALE_INFO.SOFTCAP = data[5];\r\n        PRESALE_INFO.LIQUIDITY_PERCENT = data[6];\r\n        PRESALE_INFO.LISTING_RATE = data[7];\r\n        PRESALE_INFO.START_TIME = data[8];\r\n        PRESALE_INFO.END_TIME = data[9];\r\n        PRESALE_INFO.LOCK_PERIOD = data[10];\r\n    }\r\n\r\n    function init2(\r\n        IERC20Custom _baseToken,\r\n        IERC20Custom _presaleToken,\r\n        uint256[3] memory data,\r\n        address payable _baseFeeAddress,\r\n        address payable _tokenFeeAddress\r\n    ) external {\r\n        require(msg.sender == PRESALE_GENERATOR, \"FORBIDDEN\");\r\n\r\n        PRESALE_INFO.PRESALE_IN_ETH = address(_baseToken) == address(WETH);\r\n        PRESALE_INFO.S_TOKEN = _presaleToken;\r\n        PRESALE_INFO.B_TOKEN = _baseToken;\r\n        PRESALE_FEE_INFO.DAOLAUNCH_BASE_FEE = data[0];\r\n        PRESALE_FEE_INFO.DAOLAUNCH_TOKEN_FEE = data[1];\r\n        PRESALE_INFO.UNISWAP_LISTING_TIME = data[2];\r\n\r\n        PRESALE_FEE_INFO.BASE_FEE_ADDRESS = _baseFeeAddress;\r\n        PRESALE_FEE_INFO.TOKEN_FEE_ADDRESS = _tokenFeeAddress;\r\n    }\r\n\r\n    function init3(\r\n        bool is_white_list,\r\n        address payable _caller,\r\n        uint256[5] memory data,\r\n        uint8 _addLP,\r\n        uint8 _percentFee\r\n    ) external {\r\n        require(msg.sender == PRESALE_GENERATOR, \"FORBIDDEN\");\r\n\r\n        STATUS.WHITELIST_ONLY = is_white_list;\r\n        CALLER = _caller;\r\n        VESTING_PERIOD.firstDistributionType = data[0];\r\n        VESTING_PERIOD.firstUnlockRate = data[1];\r\n        VESTING_PERIOD.distributionInterval = data[2];\r\n        VESTING_PERIOD.unlockRateEachTime = data[3];\r\n        VESTING_PERIOD.maxPeriod = data[4];\r\n        PRESALE_INFO.ADD_LP = _addLP;\r\n        PERCENT_FEE = _percentFee;\r\n    }\r\n\r\n    modifier onlyPresaleOwner() {\r\n        require(PRESALE_INFO.PRESALE_OWNER == msg.sender, \"NOT PRESALE OWNER\");\r\n        _;\r\n    }\r\n\r\n    modifier onlyAdmin() {\r\n        require(admins[msg.sender], \"NOT ADMIN\");\r\n        _;\r\n    }\r\n\r\n    modifier onlyPresaleOwnerOrAdmin() {\r\n        require(PRESALE_INFO.PRESALE_OWNER == msg.sender || admins[msg.sender], \"NOT PRESALE OWNER OR ADMIN\");\r\n        _;\r\n    }\r\n\r\n    modifier onlyCaller() {\r\n        require(CALLER == msg.sender, \"NOT PRESALE CALLER\");\r\n        _;\r\n    }\r\n\r\n    modifier onlyValidAccess(\r\n        uint8 _v,\r\n        bytes32 _r,\r\n        bytes32 _s\r\n    ) {\r\n        if (STATUS.WHITELIST_ONLY) {\r\n            require(\r\n                isValidAccessMsg(msg.sender, _v, _r, _s),\r\n                \"NOT WHITELISTED\"\r\n            );\r\n        }\r\n        _;\r\n    }\r\n\r\n    function isValidAccessMsg(\r\n        address _addr,\r\n        uint8 _v,\r\n        bytes32 _r,\r\n        bytes32 _s\r\n    ) internal view returns (bool) {\r\n        bytes32 hash = keccak256(abi.encodePacked(address(this), _addr));\r\n\r\n        return\r\n            DAOLAUNCH_DEV ==\r\n            ecrecover(\r\n                keccak256(\r\n                    abi.encodePacked(\"\\x19Ethereum Signed Message:\\n32\", hash)\r\n                ),\r\n                _v,\r\n                _r,\r\n                _s\r\n            );\r\n    }\r\n\r\n    function presaleStatus() public view returns (uint256) {\r\n        if (\r\n            (block.timestamp > PRESALE_INFO.END_TIME) &&\r\n            (STATUS.TOTAL_BASE_COLLECTED < PRESALE_INFO.SOFTCAP)\r\n        ) {\r\n            return 3; // FAILED - softcap not met by end block\r\n        }\r\n        if (STATUS.TOTAL_BASE_COLLECTED >= PRESALE_INFO.HARDCAP) {\r\n            return 2; // SUCCESS - hardcap met\r\n        }\r\n        if (\r\n            (block.timestamp > PRESALE_INFO.END_TIME) &&\r\n            (STATUS.TOTAL_BASE_COLLECTED >= PRESALE_INFO.SOFTCAP)\r\n        ) {\r\n            return 2; // SUCCESS - endblock and soft cap reached\r\n        }\r\n        if (\r\n            (block.timestamp >= PRESALE_INFO.START_TIME) &&\r\n            (block.timestamp <= PRESALE_INFO.END_TIME)\r\n        ) {\r\n            return 1; // ACTIVE - deposits enabled\r\n        }\r\n        return 0; // QUED - awaiting start block\r\n    }\r\n\r\n    // accepts msg.value for eth or _amount for ERC20 tokens\r\n    function userDeposit(\r\n        uint256 _amount,\r\n        uint8 _v,\r\n        bytes32 _r,\r\n        bytes32 _s\r\n    ) external payable onlyValidAccess(_v, _r, _s) nonReentrant {\r\n        require(presaleStatus() == 1, \"NOT ACTIVE\"); // ACTIVE\r\n\r\n        BuyerInfo storage buyer = BUYERS[msg.sender];\r\n        uint256 amount_in = PRESALE_INFO.PRESALE_IN_ETH ? msg.value : _amount;\r\n        uint256 real_amount_in = amount_in;\r\n        uint256 fee = 0;\r\n        \r\n        if (!STATUS.WHITELIST_ONLY) {\r\n            real_amount_in = real_amount_in * (1000 - PERCENT_FEE)/ 1000;\r\n            fee = amount_in - real_amount_in;\r\n        }\r\n        require(\r\n            real_amount_in >= PRESALE_INFO.MIN_SPEND_PER_BUYER,\r\n            \"NOT ENOUGH VALUE\"\r\n        );\r\n        uint256 allowance = PRESALE_INFO.MAX_SPEND_PER_BUYER -\r\n            buyer.baseDeposited;\r\n        uint256 remaining = PRESALE_INFO.HARDCAP - STATUS.TOTAL_BASE_COLLECTED;\r\n        allowance = allowance > remaining ? remaining : allowance;\r\n        if (real_amount_in > allowance) {\r\n            real_amount_in = allowance;\r\n        }\r\n        uint256 tokensSold = (real_amount_in * PRESALE_INFO.TOKEN_PRICE) /\r\n            (10**uint256(PRESALE_INFO.B_TOKEN.decimals()));\r\n        require(tokensSold > 0, \"ZERO TOKENS\");\r\n        if (buyer.baseDeposited == 0) {\r\n            STATUS.NUM_BUYERS++;\r\n        }\r\n        buyer.baseDeposited += real_amount_in + fee;\r\n        buyer.tokensOwed += tokensSold;\r\n        STATUS.TOTAL_BASE_COLLECTED += real_amount_in;\r\n        STATUS.TOTAL_TOKENS_SOLD += tokensSold;\r\n        USER_FEES[msg.sender] += fee;\r\n        TOTAL_FEE += fee;\r\n\r\n        // return unused ETH\r\n        if (PRESALE_INFO.PRESALE_IN_ETH && real_amount_in + fee < msg.value) {\r\n            payable(msg.sender).transfer(msg.value - real_amount_in - fee);\r\n        }\r\n        // deduct non ETH token from user\r\n        if (!PRESALE_INFO.PRESALE_IN_ETH) {\r\n            TransferHelper.safeTransferFrom(\r\n                address(PRESALE_INFO.B_TOKEN),\r\n                msg.sender,\r\n                address(this),\r\n                real_amount_in + fee\r\n            );\r\n        }\r\n    }\r\n\r\n    // withdraw presale tokens\r\n    // percentile withdrawls allows fee on transfer or rebasing tokens to still work\r\n    // function userWithdrawTokens() external nonReentrant {\r\n    //     require(presaleStatus() == 2, \"NOT SUCCESS\"); // SUCCESS\r\n    //     require(\r\n    //         block.timestamp >= VESTING_PERIOD.firstDistributionType,\r\n    //         \"NOT NOW\"\r\n    //     );\r\n    //     require(\r\n    //         STATUS.TOTAL_TOKENS_SOLD - STATUS.TOTAL_TOKENS_WITHDRAWN > 0,\r\n    //         \"ALL TOKEN HAS BEEN WITHDRAWN\"\r\n    //     );\r\n    //     require(PRESALE_INFO.ADD_LP != 2, \"OFF-CHAIN MODE\");\r\n\r\n    //     BuyerInfo storage buyer = BUYERS[msg.sender];\r\n    //     require(!buyer.isWithdrawnBase, \"NOTHING TO CLAIM\");\r\n\r\n    //     uint256 rateWithdrawAfter;\r\n    //     uint256 currentTime;\r\n    //     if (block.timestamp > VESTING_PERIOD.maxPeriod) {\r\n    //         currentTime = VESTING_PERIOD.maxPeriod;\r\n    //     } else {\r\n    //         currentTime = block.timestamp;\r\n    //     }\r\n    //     uint256 tokensOwed = buyer.tokensOwed;\r\n    //     if (VESTING_PERIOD.firstUnlockRate == 100) {\r\n    //         require(\r\n    //             buyer.totalTokenWithdraw != tokensOwed,\r\n    //             \"Already withdraw all\"\r\n    //         );\r\n    //         rateWithdrawAfter = 100;\r\n    //     } else {\r\n    //         uint256 spentCycles = (currentTime -\r\n    //             VESTING_PERIOD.firstDistributionType) /\r\n    //             VESTING_PERIOD.distributionInterval; // (m' - m0)/k\r\n    //         if (buyer.lastWithdraw == 0) {\r\n    //             rateWithdrawAfter =\r\n    //                 spentCycles *\r\n    //                 VESTING_PERIOD.unlockRateEachTime +\r\n    //                 VESTING_PERIOD.firstUnlockRate; //x + spentCycles*y\r\n    //         } else {\r\n    //             uint256 lastSpentCycles = (buyer.lastWithdraw -\r\n    //                 VESTING_PERIOD.firstDistributionType) /\r\n    //                 VESTING_PERIOD.distributionInterval; // (LD - M0)/k\r\n    //             rateWithdrawAfter =\r\n    //                 (spentCycles - lastSpentCycles) *\r\n    //                 VESTING_PERIOD.unlockRateEachTime; //(spentCycles - lastSpentCycles)*y\r\n    //             require(rateWithdrawAfter > 0, \"INVALID MOMENT\"); // SUCCESS\r\n    //         }\r\n    //     }\r\n    //     buyer.lastWithdraw = currentTime;\r\n    //     uint256 amountWithdraw = (tokensOwed * rateWithdrawAfter) / 100;\r\n\r\n    //     if (buyer.totalTokenWithdraw + amountWithdraw > buyer.tokensOwed) {\r\n    //         amountWithdraw = buyer.tokensOwed - buyer.totalTokenWithdraw;\r\n    //     }\r\n\r\n    //     STATUS.TOTAL_TOKENS_WITHDRAWN += amountWithdraw;\r\n    //     buyer.totalTokenWithdraw += amountWithdraw; // update total token withdraw of buyer address\r\n    //     TransferHelper.safeTransfer(\r\n    //         address(PRESALE_INFO.S_TOKEN),\r\n    //         msg.sender,\r\n    //         amountWithdraw\r\n    //     );\r\n    // }\r\n\r\n    // // on presale failure\r\n    // // percentile withdrawls allows fee on transfer or rebasing tokens to still work\r\n    // function userWithdrawBaseTokens() external nonReentrant {\r\n    //     require(presaleStatus() == 3, \"NOT FAILED\"); // FAILED\r\n    //     BuyerInfo storage buyer = BUYERS[msg.sender];\r\n    //     require(!buyer.isWithdrawnBase, \"NOTHING TO REFUND\");\r\n\r\n    //     STATUS.TOTAL_BASE_WITHDRAWN += buyer.baseDeposited;\r\n    //     TransferHelper.safeTransferBaseToken(\r\n    //         address(PRESALE_INFO.B_TOKEN),\r\n    //         payable(msg.sender),\r\n    //         buyer.baseDeposited,\r\n    //         !PRESALE_INFO.PRESALE_IN_ETH\r\n    //     );\r\n    //     buyer.isWithdrawnBase = true;\r\n    // }\r\n\r\n    // // on presale failure\r\n    // // allows the owner to withdraw the tokens they sent for presale & initial liquidity\r\n    // function ownerRefundTokens() external onlyPresaleOwner {\r\n    //     require(presaleStatus() == 3, \"NOT FAILED\"); // FAILED\r\n    //     require(!STATUS.IS_OWNER_WITHDRAWN, \"NOTHING TO WITHDRAW\");\r\n    //     TransferHelper.safeTransfer(\r\n    //         address(PRESALE_INFO.S_TOKEN),\r\n    //         PRESALE_INFO.PRESALE_OWNER,\r\n    //         PRESALE_INFO.S_TOKEN.balanceOf(address(this))\r\n    //     );\r\n    //     STATUS.IS_OWNER_WITHDRAWN = true;\r\n\r\n    //     // send eth fee to owner\r\n    //     PRESALE_INFO.PRESALE_OWNER.transfer(\r\n    //         PRESALE_SETTINGS.getEthCreationFee()\r\n    //     );\r\n    // }\r\n\r\n    // // on presale success, this is the final step to end the presale, lock liquidity and enable withdrawls of the sale token.\r\n    // // This function does not use percentile distribution. Rebasing mechanisms, fee on transfers, or any deflationary logic\r\n    // // are not taken into account at this stage to ensure stated liquidity is locked and the pool is initialised according to\r\n    // // the presale parameters and fixed prices.\r\n\r\n    // function listOnUniswap() external onlyCaller {\r\n    //     require(PRESALE_INFO.UNISWAP_LISTING_TIME > 0, \"NO LISTING TIME\");\r\n    //     require(block.timestamp > PRESALE_INFO.UNISWAP_LISTING_TIME + 1 days, \"EARLY TO CALL\");\r\n    //     // require(\r\n    //     //     block.timestamp >= PRESALE_INFO.UNISWAP_LISTING_TIME,\r\n    //     //     \"Call listOnUniswap too early\"\r\n    //     // );\r\n    //     require(presaleStatus() == 2, \"NOT SUCCESS\"); // SUCCESS\r\n    //     require(!STATUS.IS_TRANSFERED_FEE, \"TRANSFERED FEE\");\r\n    //     // require(PRESALE_INFO.LIQUIDITY_PERCENT > 0, \"LIQUIDITY_PERCENT = 0\");\r\n\r\n    //     if (PRESALE_INFO.ADD_LP == 2) {\r\n    //         // off-chain mode\r\n    //         // send all to DAOLaunch, remaining listing fee to presale owner\r\n\r\n    //         // send all base token\r\n    //         TransferHelper.safeTransferBaseToken(\r\n    //             address(PRESALE_INFO.B_TOKEN),\r\n    //             PRESALE_FEE_INFO.BASE_FEE_ADDRESS,\r\n    //             STATUS.TOTAL_BASE_COLLECTED + TOTAL_FEE - TOTAL_TOKENS_REFUNDED - TOTAL_FEES_REFUNDED,\r\n    //             !PRESALE_INFO.PRESALE_IN_ETH\r\n    //         );\r\n\r\n    //         // send all token\r\n    //         uint256 tokenBalance = PRESALE_INFO.S_TOKEN.balanceOf(address(this));\r\n    //         TransferHelper.safeTransfer(\r\n    //             address(PRESALE_INFO.S_TOKEN),\r\n    //             PRESALE_FEE_INFO.TOKEN_FEE_ADDRESS,\r\n    //             tokenBalance\r\n    //         );\r\n\r\n    //         // send transaction fee\r\n    //         uint256 txFee = tx.gasprice * GAS_LIMIT.transferPresaleOwner;\r\n    //         require(txFee <= PRESALE_SETTINGS.getEthCreationFee());\r\n    //         CALLER.transfer(txFee);\r\n    //         PRESALE_INFO.PRESALE_OWNER.transfer(\r\n    //             PRESALE_SETTINGS.getEthCreationFee() - txFee\r\n    //         );\r\n    //         return;\r\n    //     }\r\n\r\n    //     uint256 DAOLaunchBaseFee = ((STATUS.TOTAL_BASE_COLLECTED - TOTAL_TOKENS_REFUNDED) *\r\n    //         PRESALE_FEE_INFO.DAOLAUNCH_BASE_FEE) / 1000;\r\n    //     // base token liquidity\r\n    //     uint256 baseLiquidity = (((STATUS.TOTAL_BASE_COLLECTED - TOTAL_TOKENS_REFUNDED) -\r\n    //         DAOLaunchBaseFee) * PRESALE_INFO.LIQUIDITY_PERCENT) / 1000;\r\n    //     if (\r\n    //         PRESALE_INFO.ADD_LP == 0 &&\r\n    //         baseLiquidity > 0 &&\r\n    //         PRESALE_INFO.PRESALE_IN_ETH\r\n    //     ) {\r\n    //         WETH.deposit{value: baseLiquidity}();\r\n    //     }\r\n\r\n    //     if (PRESALE_INFO.ADD_LP == 0 && baseLiquidity > 0) {\r\n    //         TransferHelper.safeApprove(\r\n    //             address(PRESALE_INFO.B_TOKEN),\r\n    //             address(PRESALE_LOCK_FORWARDER),\r\n    //             baseLiquidity\r\n    //         );\r\n    //     }\r\n\r\n    //     // sale token liquidity\r\n    //     uint256 tokenLiquidity = (baseLiquidity * PRESALE_INFO.LISTING_RATE) /\r\n    //         (10**uint256(PRESALE_INFO.B_TOKEN.decimals()));\r\n\r\n    //     // transfer fees\r\n    //     uint256 DAOLaunchTokenFee = (STATUS.TOTAL_TOKENS_SOLD *\r\n    //         PRESALE_FEE_INFO.DAOLAUNCH_TOKEN_FEE) / 1000;\r\n    //     if (DAOLaunchBaseFee + TOTAL_FEE > 0) {\r\n    //         TransferHelper.safeTransferBaseToken(\r\n    //             address(PRESALE_INFO.B_TOKEN),\r\n    //             PRESALE_FEE_INFO.BASE_FEE_ADDRESS,\r\n    //             DAOLaunchBaseFee + TOTAL_FEE,\r\n    //             !PRESALE_INFO.PRESALE_IN_ETH\r\n    //         );\r\n    //     }\r\n    //     if (DAOLaunchTokenFee > 0) {\r\n    //         TransferHelper.safeTransfer(\r\n    //             address(PRESALE_INFO.S_TOKEN),\r\n    //             PRESALE_FEE_INFO.TOKEN_FEE_ADDRESS,\r\n    //             DAOLaunchTokenFee\r\n    //         );\r\n    //     }\r\n    //     STATUS.IS_TRANSFERED_FEE = true;\r\n\r\n    //     // if use escrow or percent = 0%\r\n    //     if (PRESALE_INFO.ADD_LP == 1 || baseLiquidity == 0) {\r\n    //         // transfer fee to DAOLaunch\r\n    //         uint256 txFee = tx.gasprice * GAS_LIMIT.transferPresaleOwner;\r\n    //         require(txFee <= PRESALE_SETTINGS.getEthCreationFee());\r\n\r\n    //         if (baseLiquidity == 0) {\r\n    //             // send fee to project owner\r\n    //             PRESALE_INFO.PRESALE_OWNER.transfer(\r\n    //                 PRESALE_SETTINGS.getEthCreationFee() - txFee\r\n    //             );\r\n    //         } else {\r\n    //             // send fee to DAOLaunch\r\n    //             PRESALE_FEE_INFO.BASE_FEE_ADDRESS.transfer(\r\n    //                 PRESALE_SETTINGS.getEthCreationFee() - txFee\r\n    //             );\r\n    //         }\r\n\r\n    //         // send transaction fee\r\n    //         CALLER.transfer(txFee);\r\n    //     } else {\r\n    //         // transfer fee to DAOLaunch\r\n    //         uint256 txFee = tx.gasprice * GAS_LIMIT.listOnUniswap;\r\n    //         require(txFee <= PRESALE_SETTINGS.getEthCreationFee());\r\n\r\n    //         // send fee to DAOLaunch\r\n    //         PRESALE_FEE_INFO.BASE_FEE_ADDRESS.transfer(\r\n    //             PRESALE_SETTINGS.getEthCreationFee() - txFee\r\n    //         );\r\n\r\n    //         // send transaction fee\r\n    //         CALLER.transfer(txFee);\r\n    //     }\r\n\r\n    //     if (PRESALE_INFO.ADD_LP == 1) {\r\n    //         // send liquidity to DAOLaunch\r\n    //         TransferHelper.safeTransferBaseToken(\r\n    //             address(PRESALE_INFO.B_TOKEN),\r\n    //             PRESALE_FEE_INFO.BASE_FEE_ADDRESS,\r\n    //             baseLiquidity,\r\n    //             !PRESALE_INFO.PRESALE_IN_ETH\r\n    //         );\r\n    //         TransferHelper.safeTransfer(\r\n    //             address(PRESALE_INFO.S_TOKEN),\r\n    //             PRESALE_FEE_INFO.BASE_FEE_ADDRESS,\r\n    //             tokenLiquidity\r\n    //         );\r\n    //     } else {\r\n    //         if (baseLiquidity > 0) {\r\n    //             // Fail the presale if the pair exists and contains presale token liquidity\r\n    //             if (\r\n    //                 PRESALE_LOCK_FORWARDER.uniswapPairIsInitialised(\r\n    //                     address(PRESALE_INFO.S_TOKEN),\r\n    //                     address(PRESALE_INFO.B_TOKEN)\r\n    //                 )\r\n    //             ) {\r\n    //                 STATUS.LIST_ON_UNISWAP = true;\r\n\r\n    //                 TransferHelper.safeTransferBaseToken(\r\n    //                     address(PRESALE_INFO.B_TOKEN),\r\n    //                     PRESALE_INFO.PRESALE_OWNER,\r\n    //                     baseLiquidity,\r\n    //                     !PRESALE_INFO.PRESALE_IN_ETH\r\n    //                 );\r\n    //                 TransferHelper.safeTransfer(\r\n    //                     address(PRESALE_INFO.S_TOKEN),\r\n    //                     PRESALE_INFO.PRESALE_OWNER,\r\n    //                     tokenLiquidity\r\n    //                 );\r\n    //                 return;\r\n    //             }\r\n\r\n    //             TransferHelper.safeApprove(\r\n    //                 address(PRESALE_INFO.S_TOKEN),\r\n    //                 address(PRESALE_LOCK_FORWARDER),\r\n    //                 tokenLiquidity\r\n    //             );\r\n    //             PRESALE_LOCK_FORWARDER.lockLiquidity(\r\n    //                 PRESALE_INFO.B_TOKEN,\r\n    //                 PRESALE_INFO.S_TOKEN,\r\n    //                 baseLiquidity,\r\n    //                 tokenLiquidity,\r\n    //                 block.timestamp + PRESALE_INFO.LOCK_PERIOD,\r\n    //                 PRESALE_INFO.PRESALE_OWNER\r\n    //             );\r\n    //         }\r\n    //     }\r\n    //     STATUS.LIST_ON_UNISWAP = true;\r\n    // }\r\n\r\n    // function ownerWithdrawTokens() external nonReentrant onlyPresaleOwner {\r\n    //     require(!STATUS.IS_OWNER_WITHDRAWN, \"GENERATION COMPLETE\");\r\n    //     require(presaleStatus() == 2, \"NOT SUCCESS\"); // SUCCESS\r\n    //     require(PRESALE_INFO.ADD_LP != 2, \"OFF-CHAIN MODE\");\r\n    //     require(PRESALE_INFO.UNISWAP_LISTING_TIME > 0, \"NO LISTING TIME\");\r\n    //     require(block.timestamp > PRESALE_INFO.UNISWAP_LISTING_TIME + 1 days, \"EARLY TO CALL\");\r\n\r\n    //     uint256 DAOLaunchBaseFee = ((STATUS.TOTAL_BASE_COLLECTED - TOTAL_TOKENS_REFUNDED) *\r\n    //         PRESALE_FEE_INFO.DAOLAUNCH_BASE_FEE) / 1000;\r\n    //     uint256 baseLiquidity = (((STATUS.TOTAL_BASE_COLLECTED - TOTAL_TOKENS_REFUNDED) -\r\n    //         DAOLaunchBaseFee) * PRESALE_INFO.LIQUIDITY_PERCENT) / 1000;\r\n    //     uint256 DAOLaunchTokenFee = (STATUS.TOTAL_TOKENS_SOLD *\r\n    //         PRESALE_FEE_INFO.DAOLAUNCH_TOKEN_FEE) / 1000;\r\n    //     uint256 tokenLiquidity = (baseLiquidity * PRESALE_INFO.LISTING_RATE) /\r\n    //         (10**uint256(PRESALE_INFO.B_TOKEN.decimals()));\r\n\r\n    //     // send remain unsold tokens to presale owner\r\n    //     uint256 remainingSBalance = PRESALE_INFO.S_TOKEN.balanceOf(\r\n    //         address(this)\r\n    //     ) +\r\n    //         STATUS.TOTAL_TOKENS_WITHDRAWN -\r\n    //         STATUS.TOTAL_TOKENS_SOLD;\r\n\r\n    //     // send remaining base tokens to presale owner\r\n    //     uint256 remainingBaseBalance = PRESALE_INFO.PRESALE_IN_ETH\r\n    //         ? address(this).balance\r\n    //         : PRESALE_INFO.B_TOKEN.balanceOf(address(this));\r\n    //     if (!STATUS.IS_TRANSFERED_FEE) {\r\n    //         remainingBaseBalance -= DAOLaunchBaseFee;\r\n    //         remainingSBalance -= DAOLaunchTokenFee;\r\n    //         remainingBaseBalance -= TOTAL_FEE;\r\n    //     }\r\n    //     if (!STATUS.LIST_ON_UNISWAP) {\r\n    //         if (PRESALE_INFO.PRESALE_IN_ETH) {\r\n    //             remainingBaseBalance -=\r\n    //                 baseLiquidity +\r\n    //                 PRESALE_SETTINGS.getEthCreationFee();\r\n    //         } else {\r\n    //             remainingBaseBalance -= baseLiquidity;\r\n    //         }\r\n    //         remainingSBalance -= tokenLiquidity;\r\n    //     }\r\n\r\n    //     // add refund\r\n    //     uint256 tokenRefunded = TOTAL_TOKENS_REFUNDED * PRESALE_INFO.TOKEN_PRICE / (10**uint256(PRESALE_INFO.B_TOKEN.decimals()));\r\n    //     remainingSBalance += tokenRefunded;\r\n\r\n    //     if (remainingSBalance > 0) {\r\n    //         TransferHelper.safeTransfer(\r\n    //             address(PRESALE_INFO.S_TOKEN),\r\n    //             PRESALE_INFO.PRESALE_OWNER,\r\n    //             remainingSBalance\r\n    //         );\r\n    //     }\r\n\r\n    //     TransferHelper.safeTransferBaseToken(\r\n    //         address(PRESALE_INFO.B_TOKEN),\r\n    //         PRESALE_INFO.PRESALE_OWNER,\r\n    //         remainingBaseBalance,\r\n    //         !PRESALE_INFO.PRESALE_IN_ETH\r\n    //     );\r\n    //     STATUS.IS_OWNER_WITHDRAWN = true;\r\n    // }\r\n\r\n    // function userRefundTokens() external nonReentrant {\r\n    //     require(block.timestamp > PRESALE_INFO.UNISWAP_LISTING_TIME, \"EARLY TO CALL\");\r\n    //     require(block.timestamp < PRESALE_INFO.UNISWAP_LISTING_TIME + 1 days, \"LATE TO CALL\");\r\n    //     require(presaleStatus() == 2, \"NOT SUCCESS\"); // SUCCESS\r\n    //     require(PRESALE_INFO.UNISWAP_LISTING_TIME > 0, \"NO LISTING TIME\");\r\n\r\n    //     BuyerInfo storage buyer = BUYERS[msg.sender];\r\n    //     require(!buyer.isWithdrawnBase, \"NOTHING TO REFUND\");\r\n    //     require(buyer.totalTokenWithdraw == 0, \"CANNOT REFUND\");\r\n\r\n    //     TOTAL_TOKENS_REFUNDED += buyer.baseDeposited - USER_FEES[msg.sender];\r\n    //     TOTAL_FEES_REFUNDED += USER_FEES[msg.sender];\r\n    //     TransferHelper.safeTransferBaseToken(\r\n    //         address(PRESALE_INFO.B_TOKEN),\r\n    //         payable(msg.sender),\r\n    //         buyer.baseDeposited,\r\n    //         !PRESALE_INFO.PRESALE_IN_ETH\r\n    //     );\r\n    //     buyer.isWithdrawnBase = true;\r\n    // }\r\n\r\n    // function updateGasLimit(\r\n    //     uint256 _transferPresaleOwner,\r\n    //     uint256 _listOnUniswap\r\n    // ) external {\r\n    //     require(msg.sender == DAOLAUNCH_DEV, \"INVALID CALLER\");\r\n    //     GAS_LIMIT.transferPresaleOwner = _transferPresaleOwner;\r\n    //     GAS_LIMIT.listOnUniswap = _listOnUniswap;\r\n    // }\r\n\r\n    // function updateMaxSpendLimit(uint256 _maxSpend) external onlyPresaleOwnerOrAdmin {\r\n    //     PRESALE_INFO.MAX_SPEND_PER_BUYER = _maxSpend;\r\n    // }\r\n\r\n    // // postpone or bring a presale forward, this will only work when a presale is inactive.\r\n    // // i.e. current start block > block.timestamp\r\n    // function updateBlocks(uint256 _startTime, uint256 _endTime)\r\n    //     external\r\n    //     onlyPresaleOwnerOrAdmin\r\n    // {\r\n    //     require(PRESALE_INFO.START_TIME > block.timestamp);\r\n    //     require(_endTime - _startTime > 0);\r\n    //     PRESALE_INFO.START_TIME = _startTime;\r\n    //     PRESALE_INFO.END_TIME = _endTime;\r\n    // }\r\n\r\n    // // editable at any stage of the presale\r\n    // function setWhitelistFlag(bool _flag) external onlyPresaleOwnerOrAdmin {\r\n    //     STATUS.WHITELIST_ONLY = _flag;\r\n    // }\r\n\r\n    // function updateAdmin(address _adminAddr, bool _flag) external onlyAdmin {\r\n    //     require(_adminAddr != address(0), \"INVALID ADDRESS\");\r\n    //     admins[_adminAddr] = _flag;\r\n    // }\r\n\r\n    // // if uniswap listing fails, call this function to release eth\r\n    // function finalize() external {\r\n    //     require(msg.sender == DAOLAUNCH_DEV, \"INVALID CALLER\");\r\n\r\n    //     uint256 remainingBBalance;\r\n    //     if (!PRESALE_INFO.PRESALE_IN_ETH) {\r\n    //         remainingBBalance = PRESALE_INFO.B_TOKEN.balanceOf(\r\n    //             address(this)\r\n    //         );\r\n    //     } else {\r\n    //         remainingBBalance = address(this).balance;\r\n    //     }\r\n    //     TransferHelper.safeTransferBaseToken(\r\n    //         address(PRESALE_INFO.B_TOKEN),\r\n    //         PRESALE_FEE_INFO.BASE_FEE_ADDRESS,\r\n    //         remainingBBalance,\r\n    //         !PRESALE_INFO.PRESALE_IN_ETH\r\n    //     );\r\n\r\n    //     uint256 remainingSBalance = PRESALE_INFO.S_TOKEN.balanceOf(\r\n    //         address(this)\r\n    //     );\r\n    //     TransferHelper.safeTransfer(\r\n    //         address(PRESALE_INFO.S_TOKEN),\r\n    //         PRESALE_FEE_INFO.BASE_FEE_ADDRESS,\r\n    //         remainingSBalance\r\n    //     );\r\n    //     selfdestruct(PRESALE_FEE_INFO.BASE_FEE_ADDRESS);\r\n    // }\r\n\r\n    // // editable at any stage of the presale\r\n    // function changePresaleType(bool _flag, uint256 _maxSpend) external onlyAdmin {\r\n    //     STATUS.WHITELIST_ONLY = _flag;\r\n    //     PRESALE_INFO.MAX_SPEND_PER_BUYER = _maxSpend;\r\n    // }\r\n\r\n    // function updateListingTime(uint256 _listOnUniswap) external onlyAdmin {\r\n    //     require(_listOnUniswap > PRESALE_INFO.END_TIME, \"INVALID TIME\");\r\n    //     PRESALE_INFO.UNISWAP_LISTING_TIME = _listOnUniswap;\r\n    // }\r\n}\r\n",
  "sourcePath": "C:\\Users\\Admin\\Desktop\\Test_DAOLaunch\\contracts\\ethereum\\Presale01.sol",
  "compiler": {
    "name": "solc",
    "version": "0.8.0+commit.c7dfd78e.Emscripten.clang"
  },
  "schemaVersion": "3.4.4",
  "updatedAt": "2022-04-10T09:54:01.845Z",
  "networkType": "ethereum",
  "devdoc": {
    "kind": "dev",
    "methods": {},
    "version": 1
  },
  "userdoc": {
    "kind": "user",
    "methods": {},
    "version": 1
  }
}