{
  "contractName": "PresaleHelper",
  "abi": [
    {
      "inputs": [
        {
          "internalType": "uint256",
          "name": "_amount",
          "type": "uint256"
        },
        {
          "internalType": "uint256",
          "name": "_tokenPrice",
          "type": "uint256"
        },
        {
          "internalType": "uint256",
          "name": "_listingRate",
          "type": "uint256"
        },
        {
          "internalType": "uint256",
          "name": "_liquidityPercent",
          "type": "uint256"
        },
        {
          "internalType": "uint256",
          "name": "_tokenFee",
          "type": "uint256"
        }
      ],
      "name": "calculateAmountRequired",
      "outputs": [
        {
          "internalType": "uint256",
          "name": "",
          "type": "uint256"
        }
      ],
      "stateMutability": "pure",
      "type": "function"
    }
  ],
  "bytecode": "0x610355610053600b82828239805160001a607314610046577f4e487b7100000000000000000000000000000000000000000000000000000000600052600060045260246000fd5b30600052607381538281f3fe73000000000000000000000000000000000000000030146080604052600436106100355760003560e01c80631185168a1461003a575b600080fd5b610054600480360381019061004f91906100ea565b61006a565b6040516100619190610170565b60405180910390f35b600080620f4240868686866103e8610082919061026c565b8b61008d9190610212565b6100979190610212565b6100a19190610212565b6100ab91906101e1565b6100b591906101e1565b9050600081886100c5919061018b565b9050809250505095945050505050565b6000813590506100e481610308565b92915050565b600080600080600060a0868803121561010257600080fd5b6000610110888289016100d5565b9550506020610121888289016100d5565b9450506040610132888289016100d5565b9350506060610143888289016100d5565b9250506080610154888289016100d5565b9150509295509295909350565b61016a816102a0565b82525050565b60006020820190506101856000830184610161565b92915050565b6000610196826102a0565b91506101a1836102a0565b9250827fffffffffffffffffffffffffffffffffffffffffffffffffffffffffffffffff038211156101d6576101d56102aa565b5b828201905092915050565b60006101ec826102a0565b91506101f7836102a0565b925082610207576102066102d9565b5b828204905092915050565b600061021d826102a0565b9150610228836102a0565b9250817fffffffffffffffffffffffffffffffffffffffffffffffffffffffffffffffff0483118215151615610261576102606102aa565b5b828202905092915050565b6000610277826102a0565b9150610282836102a0565b925082821015610295576102946102aa565b5b828203905092915050565b6000819050919050565b7f4e487b7100000000000000000000000000000000000000000000000000000000600052601160045260246000fd5b7f4e487b7100000000000000000000000000000000000000000000000000000000600052601260045260246000fd5b610311816102a0565b811461031c57600080fd5b5056fea2646970667358221220e7275795a54268b3de0a93cf4307e9529426fd77a43d036e719c620507afd5f464736f6c63430008000033",
  "immutableReferences": {},
  "source": "// SPDX-License-Identifier: UNLICENSED\r\n\r\npragma solidity ^0.8.0;\r\n\r\nlibrary PresaleHelper {\r\n    function calculateAmountRequired(\r\n        uint256 _amount,\r\n        uint256 _tokenPrice,\r\n        uint256 _listingRate,\r\n        uint256 _liquidityPercent,\r\n        uint256 _tokenFee\r\n    ) public pure returns (uint256) {\r\n        // uint256 listingRatePercent = _listingRate * 1000 / _tokenPrice;\r\n        // uint256 DAOLaunchTokenFee = _amount * _tokenFee / 1000;\r\n        // uint256 amountMinusFee = _amount - DAOLaunchTokenFee;\r\n        // uint256 liquidityRequired = amountMinusFee * _liquidityPercent * listingRatePercent / 1000000;\r\n        uint256 liquidityRequired = (_amount *\r\n            (1000 - _tokenFee) *\r\n            _liquidityPercent *\r\n            _listingRate) /\r\n            _tokenPrice /\r\n            1000000;\r\n        uint256 tokensRequiredForPresale = _amount + liquidityRequired;\r\n        return tokensRequiredForPresale;\r\n    }\r\n}\r\n",
  "sourcePath": "C:\\Users\\Admin\\Desktop\\Test_DAOLaunch\\contracts\\common\\PresaleHelper.sol",
  "compiler": {
    "name": "solc",
    "version": "0.8.0+commit.c7dfd78e.Emscripten.clang"
  },
  "schemaVersion": "3.4.4",
  "updatedAt": "2022-04-13T11:10:13.452Z",
  "devdoc": {
    "kind": "dev",
    "methods": {},
    "version": 1
  },
  "userdoc": {
    "kind": "user",
    "methods": {},
    "version": 1
  }
}