{
  "contractName": "Presale01",
  "abi": [
    {
      "inputs": [
        {
          "internalType": "address",
          "name": "_presaleGenerator",
          "type": "address"
        },
        {
          "internalType": "address[]",
          "name": "_admins",
          "type": "address[]"
        }
      ],
      "stateMutability": "payable",
      "type": "constructor",
      "payable": true
    },
    {
      "inputs": [
        {
          "internalType": "address",
          "name": "",
          "type": "address"
        }
      ],
      "name": "BUYERS",
      "outputs": [
        {
          "internalType": "uint256",
          "name": "baseDeposited",
          "type": "uint256"
        },
        {
          "internalType": "uint256",
          "name": "tokensOwed",
          "type": "uint256"
        },
        {
          "internalType": "uint256",
          "name": "lastWithdraw",
          "type": "uint256"
        },
        {
          "internalType": "uint256",
          "name": "totalTokenWithdraw",
          "type": "uint256"
        },
        {
          "internalType": "bool",
          "name": "isWithdrawnBase",
          "type": "bool"
        }
      ],
      "stateMutability": "view",
      "type": "function",
      "constant": true
    },
    {
      "inputs": [],
      "name": "CALLER",
      "outputs": [
        {
          "internalType": "address payable",
          "name": "",
          "type": "address"
        }
      ],
      "stateMutability": "view",
      "type": "function",
      "constant": true
    },
    {
      "inputs": [],
      "name": "DAOLAUNCH_DEV",
      "outputs": [
        {
          "internalType": "address payable",
          "name": "",
          "type": "address"
        }
      ],
      "stateMutability": "view",
      "type": "function",
      "constant": true
    },
    {
      "inputs": [],
      "name": "GAS_LIMIT",
      "outputs": [
        {
          "internalType": "uint256",
          "name": "transferPresaleOwner",
          "type": "uint256"
        },
        {
          "internalType": "uint256",
          "name": "listOnUniswap",
          "type": "uint256"
        }
      ],
      "stateMutability": "view",
      "type": "function",
      "constant": true
    },
    {
      "inputs": [],
      "name": "PERCENT_FEE",
      "outputs": [
        {
          "internalType": "uint8",
          "name": "",
          "type": "uint8"
        }
      ],
      "stateMutability": "view",
      "type": "function",
      "constant": true
    },
    {
      "inputs": [],
      "name": "PRESALE_FEE_INFO",
      "outputs": [
        {
          "internalType": "uint256",
          "name": "DAOLAUNCH_BASE_FEE",
          "type": "uint256"
        },
        {
          "internalType": "uint256",
          "name": "DAOLAUNCH_TOKEN_FEE",
          "type": "uint256"
        },
        {
          "internalType": "address payable",
          "name": "BASE_FEE_ADDRESS",
          "type": "address"
        },
        {
          "internalType": "address payable",
          "name": "TOKEN_FEE_ADDRESS",
          "type": "address"
        }
      ],
      "stateMutability": "view",
      "type": "function",
      "constant": true
    },
    {
      "inputs": [],
      "name": "PRESALE_GENERATOR",
      "outputs": [
        {
          "internalType": "address",
          "name": "",
          "type": "address"
        }
      ],
      "stateMutability": "view",
      "type": "function",
      "constant": true
    },
    {
      "inputs": [],
      "name": "PRESALE_LOCK_FORWARDER",
      "outputs": [
        {
          "internalType": "contract IPresaleLockForwarder",
          "name": "",
          "type": "address"
        }
      ],
      "stateMutability": "view",
      "type": "function",
      "constant": true
    },
    {
      "inputs": [],
      "name": "PRESALE_SETTINGS",
      "outputs": [
        {
          "internalType": "contract IPresaleSettings",
          "name": "",
          "type": "address"
        }
      ],
      "stateMutability": "view",
      "type": "function",
      "constant": true
    },
    {
      "inputs": [],
      "name": "STATUS",
      "outputs": [
        {
          "internalType": "bool",
          "name": "WHITELIST_ONLY",
          "type": "bool"
        },
        {
          "internalType": "bool",
          "name": "LIST_ON_UNISWAP",
          "type": "bool"
        },
        {
          "internalType": "bool",
          "name": "IS_TRANSFERED_FEE",
          "type": "bool"
        },
        {
          "internalType": "bool",
          "name": "IS_OWNER_WITHDRAWN",
          "type": "bool"
        },
        {
          "internalType": "uint256",
          "name": "TOTAL_BASE_COLLECTED",
          "type": "uint256"
        },
        {
          "internalType": "uint256",
          "name": "TOTAL_TOKENS_SOLD",
          "type": "uint256"
        },
        {
          "internalType": "uint256",
          "name": "TOTAL_TOKENS_WITHDRAWN",
          "type": "uint256"
        },
        {
          "internalType": "uint256",
          "name": "TOTAL_BASE_WITHDRAWN",
          "type": "uint256"
        },
        {
          "internalType": "uint256",
          "name": "NUM_BUYERS",
          "type": "uint256"
        }
      ],
      "stateMutability": "view",
      "type": "function",
      "constant": true
    },
    {
      "inputs": [],
      "name": "TOTAL_FEE",
      "outputs": [
        {
          "internalType": "uint256",
          "name": "",
          "type": "uint256"
        }
      ],
      "stateMutability": "view",
      "type": "function",
      "constant": true
    },
    {
      "inputs": [],
      "name": "TOTAL_FEES_REFUNDED",
      "outputs": [
        {
          "internalType": "uint256",
          "name": "",
          "type": "uint256"
        }
      ],
      "stateMutability": "view",
      "type": "function",
      "constant": true
    },
    {
      "inputs": [],
      "name": "TOTAL_TOKENS_REFUNDED",
      "outputs": [
        {
          "internalType": "uint256",
          "name": "",
          "type": "uint256"
        }
      ],
      "stateMutability": "view",
      "type": "function",
      "constant": true
    },
    {
      "inputs": [],
      "name": "UNI_FACTORY",
      "outputs": [
        {
          "internalType": "contract IUniswapV2Factory",
          "name": "",
          "type": "address"
        }
      ],
      "stateMutability": "view",
      "type": "function",
      "constant": true
    },
    {
      "inputs": [
        {
          "internalType": "address",
          "name": "",
          "type": "address"
        }
      ],
      "name": "USER_FEES",
      "outputs": [
        {
          "internalType": "uint256",
          "name": "",
          "type": "uint256"
        }
      ],
      "stateMutability": "view",
      "type": "function",
      "constant": true
    },
    {
      "inputs": [],
      "name": "VESTING_PERIOD",
      "outputs": [
        {
          "internalType": "uint256",
          "name": "firstDistributionType",
          "type": "uint256"
        },
        {
          "internalType": "uint256",
          "name": "firstUnlockRate",
          "type": "uint256"
        },
        {
          "internalType": "uint256",
          "name": "distributionInterval",
          "type": "uint256"
        },
        {
          "internalType": "uint256",
          "name": "unlockRateEachTime",
          "type": "uint256"
        },
        {
          "internalType": "uint256",
          "name": "maxPeriod",
          "type": "uint256"
        }
      ],
      "stateMutability": "view",
      "type": "function",
      "constant": true
    },
    {
      "inputs": [],
      "name": "WETH",
      "outputs": [
        {
          "internalType": "contract IWETH",
          "name": "",
          "type": "address"
        }
      ],
      "stateMutability": "view",
      "type": "function",
      "constant": true
    },
    {
      "inputs": [
        {
          "internalType": "address",
          "name": "",
          "type": "address"
        }
      ],
      "name": "admins",
      "outputs": [
        {
          "internalType": "bool",
          "name": "",
          "type": "bool"
        }
      ],
      "stateMutability": "view",
      "type": "function",
      "constant": true
    },
    {
      "inputs": [
        {
          "internalType": "address payable",
          "name": "_presaleOwner",
          "type": "address"
        },
        {
          "internalType": "uint256[11]",
          "name": "data",
          "type": "uint256[11]"
        }
      ],
      "name": "init1",
      "outputs": [],
      "stateMutability": "nonpayable",
      "type": "function"
    },
    {
      "inputs": [
        {
          "internalType": "contract IERC20Custom",
          "name": "_baseToken",
          "type": "address"
        },
        {
          "internalType": "contract IERC20Custom",
          "name": "_presaleToken",
          "type": "address"
        },
        {
          "internalType": "uint256[3]",
          "name": "data",
          "type": "uint256[3]"
        },
        {
          "internalType": "address payable",
          "name": "_baseFeeAddress",
          "type": "address"
        },
        {
          "internalType": "address payable",
          "name": "_tokenFeeAddress",
          "type": "address"
        }
      ],
      "name": "init2",
      "outputs": [],
      "stateMutability": "nonpayable",
      "type": "function"
    },
    {
      "inputs": [
        {
          "internalType": "bool",
          "name": "is_white_list",
          "type": "bool"
        },
        {
          "internalType": "address payable",
          "name": "_caller",
          "type": "address"
        },
        {
          "internalType": "uint256[5]",
          "name": "data",
          "type": "uint256[5]"
        },
        {
          "internalType": "uint8",
          "name": "_addLP",
          "type": "uint8"
        },
        {
          "internalType": "uint8",
          "name": "_percentFee",
          "type": "uint8"
        }
      ],
      "name": "init3",
      "outputs": [],
      "stateMutability": "nonpayable",
      "type": "function"
    },
    {
      "inputs": [],
      "name": "presaleStatus",
      "outputs": [
        {
          "internalType": "uint256",
          "name": "",
          "type": "uint256"
        }
      ],
      "stateMutability": "view",
      "type": "function",
      "constant": true
    },
    {
      "inputs": [
        {
          "internalType": "uint256",
          "name": "_amount",
          "type": "uint256"
        },
        {
          "internalType": "uint8",
          "name": "_v",
          "type": "uint8"
        },
        {
          "internalType": "bytes32",
          "name": "_r",
          "type": "bytes32"
        },
        {
          "internalType": "bytes32",
          "name": "_s",
          "type": "bytes32"
        }
      ],
      "name": "userDeposit",
      "outputs": [],
      "stateMutability": "payable",
      "type": "function",
      "payable": true
    },
    {
      "inputs": [],
      "name": "userWithdrawTokens",
      "outputs": [],
      "stateMutability": "nonpayable",
      "type": "function"
    },
    {
      "inputs": [],
      "name": "userWithdrawBaseTokens",
      "outputs": [],
      "stateMutability": "nonpayable",
      "type": "function"
    }
  ],
  "bytecode": "0x608060405260405162003cf138038062003cf18339818101604052810190620000299190620003cd565b600160008190555081601b60006101000a81548173ffffffffffffffffffffffffffffffffffffffff021916908373ffffffffffffffffffffffffffffffffffffffff16021790555073ca143ce32fe78f1f7019d7d551a6402fc5350c73601e60006101000a81548173ffffffffffffffffffffffffffffffffffffffff021916908373ffffffffffffffffffffffffffffffffffffffff16021790555073bb4cdb9cbd36b01bd1cbaebf2de08d9173bc095c601f60006101000a81548173ffffffffffffffffffffffffffffffffffffffff021916908373ffffffffffffffffffffffffffffffffffffffff16021790555073cfb2cb97028c4e2fe6b868d685c00ab96e6ec370601d60006101000a81548173ffffffffffffffffffffffffffffffffffffffff021916908373ffffffffffffffffffffffffffffffffffffffff1602179055507357f443f5a891fc53c43b6d9fb850fc068af76bf4601c60006101000a81548173ffffffffffffffffffffffffffffffffffffffff021916908373ffffffffffffffffffffffffffffffffffffffff160217905550604051806040016040528062030d408152602001623d0900815250602260008201518160000155602082015181600101559050507375d69272c5a9d6fcec0d68c547776c7195f73fea602460006101000a81548173ffffffffffffffffffffffffffffffffffffffff021916908373ffffffffffffffffffffffffffffffffffffffff16021790555060005b81518110156200030b576001602a60008484815181106200029c577f4e487b7100000000000000000000000000000000000000000000000000000000600052603260045260246000fd5b602002602001015173ffffffffffffffffffffffffffffffffffffffff1673ffffffffffffffffffffffffffffffffffffffff16815260200190815260200160002060006101000a81548160ff02191690831515021790555080806200030290620004c8565b91505062000252565b5050506200058e565b60006200032b62000325846200045b565b62000427565b905080838252602082019050828560208602820111156200034b57600080fd5b60005b858110156200037f578162000364888262000389565b8452602084019350602083019250506001810190506200034e565b5050509392505050565b6000815190506200039a8162000574565b92915050565b600082601f830112620003b257600080fd5b8151620003c484826020860162000314565b91505092915050565b60008060408385031215620003e157600080fd5b6000620003f18582860162000389565b925050602083015167ffffffffffffffff8111156200040f57600080fd5b6200041d85828601620003a0565b9150509250929050565b6000604051905081810181811067ffffffffffffffff8211171562000451576200045062000545565b5b8060405250919050565b600067ffffffffffffffff82111562000479576200047862000545565b5b602082029050602081019050919050565b600062000497826200049e565b9050919050565b600073ffffffffffffffffffffffffffffffffffffffff82169050919050565b6000819050919050565b6000620004d582620004be565b91507fffffffffffffffffffffffffffffffffffffffffffffffffffffffffffffffff8214156200050b576200050a62000516565b5b600182019050919050565b7f4e487b7100000000000000000000000000000000000000000000000000000000600052601160045260246000fd5b7f4e487b7100000000000000000000000000000000000000000000000000000000600052604160045260246000fd5b6200057f816200048a565b81146200058b57600080fd5b50565b613753806200059e6000396000f3fe6080604052600436106101665760003560e01c806388bb1cf5116100d1578063acfb23551161008a578063c870279e11610064578063c870279e146104f9578063e33865b314610524578063f329c9cf14610557578063fe8121de1461059457610166565b8063acfb23551461048c578063ad5c4648146104b7578063c39e7dbb146104e257610166565b806388bb1cf51461039a57806389fc0056146103b6578063900f11ef146103e1578063973571241461040c5780639c221f9714610435578063a5d0de8c1461045e57610166565b8063429b62e511610123578063429b62e51461028857806356662d56146102c557806363db7eae146102f057806367766e811461031b5780637bfc660014610344578063863dabb41461036f57610166565b80630197d9721461016b578063091d27881461019a5780630a75da19146101c65780630bbebba4146101f157806310c55f2b1461021c5780633fa1c85c1461025d575b600080fd5b34801561017757600080fd5b506101806105ab565b60405161019195949392919061318b565b60405180910390f35b3480156101a657600080fd5b506101af6105cf565b6040516101bd9291906130ca565b60405180910390f35b3480156101d257600080fd5b506101db6105e1565b6040516101e89190612c92565b60405180910390f35b3480156101fd57600080fd5b50610206610607565b6040516102139190612e3e565b60405180910390f35b34801561022857600080fd5b50610243600480360381019061023e9190612491565b61062d565b604051610254959493929190613138565b60405180910390f35b34801561026957600080fd5b5061027261066f565b60405161027f91906131de565b60405180910390f35b34801561029457600080fd5b506102af60048036038101906102aa9190612491565b610682565b6040516102bc9190612d36565b60405180910390f35b3480156102d157600080fd5b506102da6106a2565b6040516102e791906130af565b60405180910390f35b3480156102fc57600080fd5b506103056106a8565b60405161031291906130af565b60405180910390f35b34801561032757600080fd5b50610342600480360381019061033d9190612599565b6106ae565b005b34801561035057600080fd5b50610359610999565b6040516103669190612e23565b60405180910390f35b34801561037b57600080fd5b506103846109bf565b6040516103919190612c92565b60405180910390f35b6103b460048036038101906103af9190612610565b6109e5565b005b3480156103c257600080fd5b506103cb610eae565b6040516103d89190612e59565b60405180910390f35b3480156103ed57600080fd5b506103f6610ed4565b60405161040391906130af565b60405180910390f35b34801561041857600080fd5b50610433600480360381019061042e9190612520565b610eda565b005b34801561044157600080fd5b5061045c600480360381019061045791906124ba565b611170565b005b34801561046a57600080fd5b50610473611560565b60405161048394939291906130f3565b60405180910390f35b34801561049857600080fd5b506104a16115be565b6040516104ae91906130af565b60405180910390f35b3480156104c357600080fd5b506104cc611661565b6040516104d99190612e74565b60405180910390f35b3480156104ee57600080fd5b506104f7611687565b005b34801561050557600080fd5b5061050e611844565b60405161051b9190612c77565b60405180910390f35b34801561053057600080fd5b5061053961186a565b60405161054e99989796959493929190612d51565b60405180910390f35b34801561056357600080fd5b5061057e60048036038101906105799190612491565b6118da565b60405161058b91906130af565b60405180910390f35b3480156105a057600080fd5b506105a96118f2565b005b60258060000154908060010154908060020154908060030154908060040154905085565b60228060000154908060010154905082565b602460009054906101000a900473ffffffffffffffffffffffffffffffffffffffff1681565b601d60009054906101000a900473ffffffffffffffffffffffffffffffffffffffff1681565b602080528060005260406000206000915090508060000154908060010154908060020154908060030154908060040160009054906101000a900460ff16905085565b602c60009054906101000a900460ff1681565b602a6020528060005260406000206000915054906101000a900460ff1681565b602e5481565b602b5481565b601b60009054906101000a900473ffffffffffffffffffffffffffffffffffffffff1673ffffffffffffffffffffffffffffffffffffffff163373ffffffffffffffffffffffffffffffffffffffff161461073e576040517f08c379a000000000000000000000000000000000000000000000000000000000815260040161073590612faf565b60405180910390fd5b601f60009054906101000a900473ffffffffffffffffffffffffffffffffffffffff1673ffffffffffffffffffffffffffffffffffffffff168573ffffffffffffffffffffffffffffffffffffffff16146001600f0160006101000a81548160ff021916908315150217905550836001800160006101000a81548173ffffffffffffffffffffffffffffffffffffffff021916908373ffffffffffffffffffffffffffffffffffffffff16021790555084600160020160006101000a81548173ffffffffffffffffffffffffffffffffffffffff021916908373ffffffffffffffffffffffffffffffffffffffff1602179055508260006003811061086c577f4e487b7100000000000000000000000000000000000000000000000000000000600052603260045260246000fd5b6020020151601160000181905550826001600381106108b4577f4e487b7100000000000000000000000000000000000000000000000000000000600052603260045260246000fd5b6020020151601160010181905550826002600381106108fc577f4e487b7100000000000000000000000000000000000000000000000000000000600052603260045260246000fd5b60200201516001600e018190555081601160020160006101000a81548173ffffffffffffffffffffffffffffffffffffffff021916908373ffffffffffffffffffffffffffffffffffffffff16021790555080601160030160006101000a81548173ffffffffffffffffffffffffffffffffffffffff021916908373ffffffffffffffffffffffffffffffffffffffff1602179055505050505050565b601c60009054906101000a900473ffffffffffffffffffffffffffffffffffffffff1681565b602160009054906101000a900473ffffffffffffffffffffffffffffffffffffffff1681565b828282601560000160009054906101000a900460ff1615610a4c57610a0c33848484611d54565b610a4b576040517f08c379a0000000000000000000000000000000000000000000000000000000008152600401610a4290612f8f565b60405180910390fd5b5b60026000541415610a92576040517f08c379a0000000000000000000000000000000000000000000000000000000008152600401610a899061306f565b60405180910390fd5b60026000819055506001610aa46115be565b14610ae4576040517f08c379a0000000000000000000000000000000000000000000000000000000008152600401610adb90612f4f565b60405180910390fd5b6000602060003373ffffffffffffffffffffffffffffffffffffffff1673ffffffffffffffffffffffffffffffffffffffff168152602001908152602001600020905060006001600f0160009054906101000a900460ff16610b465788610b48565b345b905060008190506000601560000160009054906101000a900460ff16610bb5576103e8602c60009054906101000a900460ff1660ff166103e8610b8b91906133af565b61ffff1683610b9a9190613355565b610ba49190613324565b91508183610bb291906133e3565b90505b600160050154821015610bfd576040517f08c379a0000000000000000000000000000000000000000000000000000000008152600401610bf490612f6f565b60405180910390fd5b60008460000154600160040154610c1491906133e3565b90506000601560010154600160070154610c2e91906133e3565b9050808211610c3d5781610c3f565b805b915081841115610c4d578193505b600060016003015485610c609190613355565b905060008111610ca5576040517f08c379a0000000000000000000000000000000000000000000000000000000008152600401610c9c9061308f565b60405180910390fd5b600087600001541415610cce5760156005016000815480929190610cc89061356b565b91905055505b8385610cda91906132ce565b876000016000828254610ced91906132ce565b9250508190555080876001016000828254610d0891906132ce565b925050819055508460156001016000828254610d2491906132ce565b925050819055508060156002016000828254610d4091906132ce565b9250508190555083602d60003373ffffffffffffffffffffffffffffffffffffffff1673ffffffffffffffffffffffffffffffffffffffff1681526020019081526020016000206000828254610d9691906132ce565b9250508190555083602b6000828254610daf91906132ce565b925050819055506001600f0160009054906101000a900460ff168015610ddf5750348486610ddd91906132ce565b105b15610e42573373ffffffffffffffffffffffffffffffffffffffff166108fc858734610e0b91906133e3565b610e1591906133e3565b9081150290604051600060405180830381858888f19350505050158015610e40573d6000803e3d6000fd5b505b6001600f0160009054906101000a900460ff16610e9657610e95600160020160009054906101000a900473ffffffffffffffffffffffffffffffffffffffff1633308789610e9091906132ce565b611e53565b5b50505050505050600160008190555050505050505050565b601e60009054906101000a900473ffffffffffffffffffffffffffffffffffffffff1681565b602f5481565b601b60009054906101000a900473ffffffffffffffffffffffffffffffffffffffff1673ffffffffffffffffffffffffffffffffffffffff163373ffffffffffffffffffffffffffffffffffffffff1614610f6a576040517f08c379a0000000000000000000000000000000000000000000000000000000008152600401610f6190612faf565b60405180910390fd5b84601560000160006101000a81548160ff02191690831515021790555083602160006101000a81548173ffffffffffffffffffffffffffffffffffffffff021916908373ffffffffffffffffffffffffffffffffffffffff16021790555082600060058110611002577f4e487b7100000000000000000000000000000000000000000000000000000000600052603260045260246000fd5b60200201516025600001819055508260016005811061104a577f4e487b7100000000000000000000000000000000000000000000000000000000600052603260045260246000fd5b602002015160256001018190555082600260058110611092577f4e487b7100000000000000000000000000000000000000000000000000000000600052603260045260246000fd5b6020020151602560020181905550826003600581106110da577f4e487b7100000000000000000000000000000000000000000000000000000000600052603260045260246000fd5b602002015160256003018190555082600460058110611122577f4e487b7100000000000000000000000000000000000000000000000000000000600052603260045260246000fd5b6020020151602560040181905550816001600f0160016101000a81548160ff021916908360ff16021790555080602c60006101000a81548160ff021916908360ff1602179055505050505050565b601b60009054906101000a900473ffffffffffffffffffffffffffffffffffffffff1673ffffffffffffffffffffffffffffffffffffffff163373ffffffffffffffffffffffffffffffffffffffff1614611200576040517f08c379a00000000000000000000000000000000000000000000000000000000081526004016111f790612faf565b60405180910390fd5b81600160000160006101000a81548173ffffffffffffffffffffffffffffffffffffffff021916908373ffffffffffffffffffffffffffffffffffffffff160217905550806000600b811061127e577f4e487b7100000000000000000000000000000000000000000000000000000000600052603260045260246000fd5b6020020151600160060181905550806001600b81106112c6577f4e487b7100000000000000000000000000000000000000000000000000000000600052603260045260246000fd5b6020020151600160030181905550806002600b811061130e577f4e487b7100000000000000000000000000000000000000000000000000000000600052603260045260246000fd5b6020020151600160040181905550806003600b8110611356577f4e487b7100000000000000000000000000000000000000000000000000000000600052603260045260246000fd5b6020020151600160050181905550806004600b811061139e577f4e487b7100000000000000000000000000000000000000000000000000000000600052603260045260246000fd5b6020020151600160070181905550806005600b81106113e6577f4e487b7100000000000000000000000000000000000000000000000000000000600052603260045260246000fd5b6020020151600160080181905550806006600b811061142e577f4e487b7100000000000000000000000000000000000000000000000000000000600052603260045260246000fd5b6020020151600160090181905550806007600b8110611476577f4e487b7100000000000000000000000000000000000000000000000000000000600052603260045260246000fd5b60200201516001600a0181905550806008600b81106114be577f4e487b7100000000000000000000000000000000000000000000000000000000600052603260045260246000fd5b60200201516001600b0181905550806009600b8110611506577f4e487b7100000000000000000000000000000000000000000000000000000000600052603260045260246000fd5b60200201516001600c018190555080600a600b811061154e577f4e487b7100000000000000000000000000000000000000000000000000000000600052603260045260246000fd5b60200201516001600d01819055505050565b60118060000154908060010154908060020160009054906101000a900473ffffffffffffffffffffffffffffffffffffffff16908060030160009054906101000a900473ffffffffffffffffffffffffffffffffffffffff16905084565b60006001600c0154421180156115dd5750600160080154601560010154105b156115eb576003905061165e565b60016007015460156001015410611605576002905061165e565b6001600c015442118015611623575060016008015460156001015410155b15611631576002905061165e565b6001600b0154421015801561164b57506001600c01544211155b15611659576001905061165e565b600090505b90565b601f60009054906101000a900473ffffffffffffffffffffffffffffffffffffffff1681565b600260005414156116cd576040517f08c379a00000000000000000000000000000000000000000000000000000000081526004016116c49061306f565b60405180910390fd5b600260008190555060036116df6115be565b1461171f576040517f08c379a000000000000000000000000000000000000000000000000000000000815260040161171690612fef565b60405180910390fd5b6000602060003373ffffffffffffffffffffffffffffffffffffffff1673ffffffffffffffffffffffffffffffffffffffff16815260200190815260200160002090508060040160009054906101000a900460ff16156117b4576040517f08c379a00000000000000000000000000000000000000000000000000000000081526004016117ab90612eaf565b60405180910390fd5b8060000154601560040160008282546117cd91906132ce565b9250508190555061181c600160020160009054906101000a900473ffffffffffffffffffffffffffffffffffffffff163383600001546001600f0160009054906101000a900460ff1615611f8c565b60018160040160006101000a81548160ff021916908315150217905550506001600081905550565b601b60009054906101000a900473ffffffffffffffffffffffffffffffffffffffff1681565b60158060000160009054906101000a900460ff16908060000160019054906101000a900460ff16908060000160029054906101000a900460ff16908060000160039054906101000a900460ff16908060010154908060020154908060030154908060040154908060050154905089565b602d6020528060005260406000206000915090505481565b60026000541415611938576040517f08c379a000000000000000000000000000000000000000000000000000000000815260040161192f9061306f565b60405180910390fd5b6002600081905550600261194a6115be565b1461198a576040517f08c379a000000000000000000000000000000000000000000000000000000000815260040161198190612eef565b60405180910390fd5b6025600001544210156119d2576040517f08c379a00000000000000000000000000000000000000000000000000000000081526004016119c990612fcf565b60405180910390fd5b60006015600301546015600201546119ea91906133e3565b11611a2a576040517f08c379a0000000000000000000000000000000000000000000000000000000008152600401611a219061302f565b60405180910390fd5b60026001600f0160019054906101000a900460ff1660ff161415611a83576040517f08c379a0000000000000000000000000000000000000000000000000000000008152600401611a7a90612f2f565b60405180910390fd5b6000602060003373ffffffffffffffffffffffffffffffffffffffff1673ffffffffffffffffffffffffffffffffffffffff16815260200190815260200160002090508060040160009054906101000a900460ff1615611b18576040517f08c379a0000000000000000000000000000000000000000000000000000000008152600401611b0f90612ecf565b60405180910390fd5b600080602560040154421115611b35576025600401549050611b39565b4290505b60008360010154905060646025600101541415611ba0578084600301541415611b97576040517f08c379a0000000000000000000000000000000000000000000000000000000008152600401611b8e90612f0f565b60405180910390fd5b60649250611c88565b600060256002015460256000015484611bb991906133e3565b611bc39190613324565b9050600085600201541415611bfa5760256001015460256003015482611be99190613355565b611bf391906132ce565b9350611c86565b60006025600201546025600001548760020154611c1791906133e3565b611c219190613324565b90506025600301548183611c3591906133e3565b611c3f9190613355565b945060008511611c84576040517f08c379a0000000000000000000000000000000000000000000000000000000008152600401611c7b9061300f565b60405180910390fd5b505b505b818460020181905550600060648483611ca19190613355565b611cab9190613324565b90508460010154818660030154611cc291906132ce565b1115611cdf5784600301548560010154611cdc91906133e3565b90505b8060156003016000828254611cf491906132ce565b9250508190555080856003016000828254611d0f91906132ce565b92505081905550611d456001800160009054906101000a900473ffffffffffffffffffffffffffffffffffffffff163383612115565b50505050506001600081905550565b6000803086604051602001611d6a929190612c0e565b604051602081830303815290604052805190602001209050600181604051602001611d959190612c51565b6040516020818303038152906040528051906020012086868660405160008152602001604052604051611dcb9493929190612dde565b6020604051602081039080840390855afa158015611ded573d6000803e3d6000fd5b5050506020604051035173ffffffffffffffffffffffffffffffffffffffff16602460009054906101000a900473ffffffffffffffffffffffffffffffffffffffff1673ffffffffffffffffffffffffffffffffffffffff161415915050949350505050565b6000808573ffffffffffffffffffffffffffffffffffffffff166323b872dd868686604051602401611e8793929190612cd6565b6040516020818303038152906040529060e01b6020820180517bffffffffffffffffffffffffffffffffffffffffffffffffffffffff8381831617835250505050604051611ed59190612c3a565b6000604051808303816000865af19150503d8060008114611f12576040519150601f19603f3d011682016040523d82523d6000602084013e611f17565b606091505b5091509150818015611f455750600081511480611f44575080806020019051810190611f4391906124f7565b5b5b611f84576040517f08c379a0000000000000000000000000000000000000000000000000000000008152600401611f7b9061304f565b60405180910390fd5b505050505050565b80611fdd578273ffffffffffffffffffffffffffffffffffffffff166108fc839081150290604051600060405180830381858888f19350505050158015611fd7573d6000803e3d6000fd5b5061210f565b6000808573ffffffffffffffffffffffffffffffffffffffff1663a9059cbb868660405160240161200f929190612cad565b6040516020818303038152906040529060e01b6020820180517bffffffffffffffffffffffffffffffffffffffffffffffffffffffff838183161783525050505060405161205d9190612c3a565b6000604051808303816000865af19150503d806000811461209a576040519150601f19603f3d011682016040523d82523d6000602084013e61209f565b606091505b50915091508180156120cd57506000815114806120cc5750808060200190518101906120cb91906124f7565b5b5b61210c576040517f08c379a000000000000000000000000000000000000000000000000000000000815260040161210390612e8f565b60405180910390fd5b50505b50505050565b6000808473ffffffffffffffffffffffffffffffffffffffff1663a9059cbb8585604051602401612147929190612d0d565b6040516020818303038152906040529060e01b6020820180517bffffffffffffffffffffffffffffffffffffffffffffffffffffffff83818316178352505050506040516121959190612c3a565b6000604051808303816000865af19150503d80600081146121d2576040519150601f19603f3d011682016040523d82523d6000602084013e6121d7565b606091505b5091509150818015612205575060008151148061220457508080602001905181019061220391906124f7565b5b5b612244576040517f08c379a000000000000000000000000000000000000000000000000000000000815260040161223b90612e8f565b60405180910390fd5b5050505050565b600061225e6122598461322a565b6131f9565b9050808285602086028201111561227457600080fd5b60005b858110156122a4578161228a8882612467565b845260208401935060208301925050600181019050612277565b5050509392505050565b60006122c16122bc84613250565b6131f9565b905080828560208602820111156122d757600080fd5b60005b8581101561230757816122ed8882612467565b8452602084019350602083019250506001810190506122da565b5050509392505050565b600061232461231f84613276565b6131f9565b9050808285602086028201111561233a57600080fd5b60005b8581101561236a57816123508882612467565b84526020840193506020830192505060018101905061233d565b5050509392505050565b6000813590506123838161367c565b92915050565b60008135905061239881613693565b92915050565b600082601f8301126123af57600080fd5b600b6123bc84828561224b565b91505092915050565b600082601f8301126123d657600080fd5b60036123e38482856122ae565b91505092915050565b600082601f8301126123fd57600080fd5b600561240a848285612311565b91505092915050565b600081359050612422816136aa565b92915050565b600081519050612437816136aa565b92915050565b60008135905061244c816136c1565b92915050565b600081359050612461816136d8565b92915050565b600081359050612476816136ef565b92915050565b60008135905061248b81613706565b92915050565b6000602082840312156124a357600080fd5b60006124b184828501612374565b91505092915050565b60008061018083850312156124ce57600080fd5b60006124dc85828601612389565b92505060206124ed8582860161239e565b9150509250929050565b60006020828403121561250957600080fd5b600061251784828501612428565b91505092915050565b6000806000806000610120868803121561253957600080fd5b600061254788828901612413565b955050602061255888828901612389565b9450506040612569888289016123ec565b93505060e061257a8882890161247c565b92505061010061258c8882890161247c565b9150509295509295909350565b600080600080600060e086880312156125b157600080fd5b60006125bf88828901612452565b95505060206125d088828901612452565b94505060406125e1888289016123c5565b93505060a06125f288828901612389565b92505060c061260388828901612389565b9150509295509295909350565b6000806000806080858703121561262657600080fd5b600061263487828801612467565b94505060206126458782880161247c565b93505060406126568782880161243d565b92505060606126678782880161243d565b91505092959194509250565b61267c81613429565b82525050565b61268b81613417565b82525050565b6126a261269d82613417565b6135b4565b82525050565b6126b18161343b565b82525050565b6126c081613447565b82525050565b6126d76126d282613447565b6135c6565b82525050565b60006126e88261329c565b6126f281856132a7565b9350612702818560208601613538565b80840191505092915050565b612717816134a8565b82525050565b612726816134cc565b82525050565b612735816134f0565b82525050565b61274481613514565b82525050565b6000612757601f836132b2565b91507f5472616e7366657248656c7065723a205452414e534645525f4641494c4544006000830152602082019050919050565b60006127976011836132b2565b91507f4e4f5448494e4720544f20524546554e440000000000000000000000000000006000830152602082019050919050565b60006127d7601c836132c3565b91507f19457468657265756d205369676e6564204d6573736167653a0a3332000000006000830152601c82019050919050565b60006128176010836132b2565b91507f4e4f5448494e4720544f20434c41494d000000000000000000000000000000006000830152602082019050919050565b6000612857600b836132b2565b91507f4e4f5420535543434553530000000000000000000000000000000000000000006000830152602082019050919050565b60006128976014836132b2565b91507f416c726561647920776974686472617720616c6c0000000000000000000000006000830152602082019050919050565b60006128d7600e836132b2565b91507f4f46462d434841494e204d4f44450000000000000000000000000000000000006000830152602082019050919050565b6000612917600a836132b2565b91507f4e4f5420414354495645000000000000000000000000000000000000000000006000830152602082019050919050565b60006129576010836132b2565b91507f4e4f5420454e4f5547482056414c5545000000000000000000000000000000006000830152602082019050919050565b6000612997600f836132b2565b91507f4e4f542057484954454c495354454400000000000000000000000000000000006000830152602082019050919050565b60006129d76009836132b2565b91507f464f5242494444454e00000000000000000000000000000000000000000000006000830152602082019050919050565b6000612a176007836132b2565b91507f4e4f54204e4f57000000000000000000000000000000000000000000000000006000830152602082019050919050565b6000612a57600a836132b2565b91507f4e4f54204641494c4544000000000000000000000000000000000000000000006000830152602082019050919050565b6000612a97600e836132b2565b91507f494e56414c4944204d4f4d454e540000000000000000000000000000000000006000830152602082019050919050565b6000612ad7601c836132b2565b91507f414c4c20544f4b454e20484153204245454e2057495448445241574e000000006000830152602082019050919050565b6000612b176024836132b2565b91507f5472616e7366657248656c7065723a205452414e534645525f46524f4d5f464160008301527f494c4544000000000000000000000000000000000000000000000000000000006020830152604082019050919050565b6000612b7d601f836132b2565b91507f5265656e7472616e637947756172643a207265656e7472616e742063616c6c006000830152602082019050919050565b6000612bbd600b836132b2565b91507f5a45524f20544f4b454e530000000000000000000000000000000000000000006000830152602082019050919050565b612bf981613491565b82525050565b612c088161349b565b82525050565b6000612c1a8285612691565b601482019150612c2a8284612691565b6014820191508190509392505050565b6000612c4682846126dd565b915081905092915050565b6000612c5c826127ca565b9150612c6882846126c6565b60208201915081905092915050565b6000602082019050612c8c6000830184612682565b92915050565b6000602082019050612ca76000830184612673565b92915050565b6000604082019050612cc26000830185612673565b612ccf6020830184612bf0565b9392505050565b6000606082019050612ceb6000830186612682565b612cf86020830185612682565b612d056040830184612bf0565b949350505050565b6000604082019050612d226000830185612682565b612d2f6020830184612bf0565b9392505050565b6000602082019050612d4b60008301846126a8565b92915050565b600061012082019050612d67600083018c6126a8565b612d74602083018b6126a8565b612d81604083018a6126a8565b612d8e60608301896126a8565b612d9b6080830188612bf0565b612da860a0830187612bf0565b612db560c0830186612bf0565b612dc260e0830185612bf0565b612dd0610100830184612bf0565b9a9950505050505050505050565b6000608082019050612df360008301876126b7565b612e006020830186612bff565b612e0d60408301856126b7565b612e1a60608301846126b7565b95945050505050565b6000602082019050612e38600083018461270e565b92915050565b6000602082019050612e53600083018461271d565b92915050565b6000602082019050612e6e600083018461272c565b92915050565b6000602082019050612e89600083018461273b565b92915050565b60006020820190508181036000830152612ea88161274a565b9050919050565b60006020820190508181036000830152612ec88161278a565b9050919050565b60006020820190508181036000830152612ee88161280a565b9050919050565b60006020820190508181036000830152612f088161284a565b9050919050565b60006020820190508181036000830152612f288161288a565b9050919050565b60006020820190508181036000830152612f48816128ca565b9050919050565b60006020820190508181036000830152612f688161290a565b9050919050565b60006020820190508181036000830152612f888161294a565b9050919050565b60006020820190508181036000830152612fa88161298a565b9050919050565b60006020820190508181036000830152612fc8816129ca565b9050919050565b60006020820190508181036000830152612fe881612a0a565b9050919050565b6000602082019050818103600083015261300881612a4a565b9050919050565b6000602082019050818103600083015261302881612a8a565b9050919050565b6000602082019050818103600083015261304881612aca565b9050919050565b6000602082019050818103600083015261306881612b0a565b9050919050565b6000602082019050818103600083015261308881612b70565b9050919050565b600060208201905081810360008301526130a881612bb0565b9050919050565b60006020820190506130c46000830184612bf0565b92915050565b60006040820190506130df6000830185612bf0565b6130ec6020830184612bf0565b9392505050565b60006080820190506131086000830187612bf0565b6131156020830186612bf0565b6131226040830185612673565b61312f6060830184612673565b95945050505050565b600060a08201905061314d6000830188612bf0565b61315a6020830187612bf0565b6131676040830186612bf0565b6131746060830185612bf0565b61318160808301846126a8565b9695505050505050565b600060a0820190506131a06000830188612bf0565b6131ad6020830187612bf0565b6131ba6040830186612bf0565b6131c76060830185612bf0565b6131d46080830184612bf0565b9695505050505050565b60006020820190506131f36000830184612bff565b92915050565b6000604051905081810181811067ffffffffffffffff821117156132205761321f613640565b5b8060405250919050565b600067ffffffffffffffff82111561324557613244613640565b5b602082029050919050565b600067ffffffffffffffff82111561326b5761326a613640565b5b602082029050919050565b600067ffffffffffffffff82111561329157613290613640565b5b602082029050919050565b600081519050919050565b600081905092915050565b600082825260208201905092915050565b600081905092915050565b60006132d982613491565b91506132e483613491565b9250827fffffffffffffffffffffffffffffffffffffffffffffffffffffffffffffffff03821115613319576133186135e2565b5b828201905092915050565b600061332f82613491565b915061333a83613491565b92508261334a57613349613611565b5b828204905092915050565b600061336082613491565b915061336b83613491565b9250817fffffffffffffffffffffffffffffffffffffffffffffffffffffffffffffffff04831182151516156133a4576133a36135e2565b5b828202905092915050565b60006133ba82613463565b91506133c583613463565b9250828210156133d8576133d76135e2565b5b828203905092915050565b60006133ee82613491565b91506133f983613491565b92508282101561340c5761340b6135e2565b5b828203905092915050565b600061342282613471565b9050919050565b600061343482613471565b9050919050565b60008115159050919050565b6000819050919050565b600061345c82613417565b9050919050565b600061ffff82169050919050565b600073ffffffffffffffffffffffffffffffffffffffff82169050919050565b6000819050919050565b600060ff82169050919050565b60006134b3826134ba565b9050919050565b60006134c582613471565b9050919050565b60006134d7826134de565b9050919050565b60006134e982613471565b9050919050565b60006134fb82613502565b9050919050565b600061350d82613471565b9050919050565b600061351f82613526565b9050919050565b600061353182613471565b9050919050565b60005b8381101561355657808201518184015260208101905061353b565b83811115613565576000848401525b50505050565b600061357682613491565b91507fffffffffffffffffffffffffffffffffffffffffffffffffffffffffffffffff8214156135a9576135a86135e2565b5b600182019050919050565b60006135bf826135d0565b9050919050565b6000819050919050565b60006135db8261366f565b9050919050565b7f4e487b7100000000000000000000000000000000000000000000000000000000600052601160045260246000fd5b7f4e487b7100000000000000000000000000000000000000000000000000000000600052601260045260246000fd5b7f4e487b7100000000000000000000000000000000000000000000000000000000600052604160045260246000fd5b60008160601b9050919050565b61368581613417565b811461369057600080fd5b50565b61369c81613429565b81146136a757600080fd5b50565b6136b38161343b565b81146136be57600080fd5b50565b6136ca81613447565b81146136d557600080fd5b50565b6136e181613451565b81146136ec57600080fd5b50565b6136f881613491565b811461370357600080fd5b50565b61370f8161349b565b811461371a57600080fd5b5056fea264697066735822122059189a5ab50c9e1bc905e228bfddf1cf1d0852a12e6bdb39ca7d7ee9c651295664736f6c63430008000033",
  "immutableReferences": {},
  "source": "// SPDX-License-Identifier: UNLICENSED\r\n\r\npragma solidity ^0.8.0;\r\nimport \"../unitls/ReentrancyGuard.sol\";\r\nimport \"../common/TransferHelper.sol\";\r\nimport \"../common/IUniswapV2Factory.sol\";\r\nimport \"../common/IPresaleLockForwarder.sol\";\r\nimport \"../common/IWETH.sol\";\r\nimport \"../common/IPresaleSettings.sol\";\r\nimport \"../common/IERC20Custom.sol\";\r\n\r\ncontract Presale01 is ReentrancyGuard {\r\n    struct PresaleInfo {\r\n        address payable PRESALE_OWNER;\r\n        IERC20Custom S_TOKEN; // sale token\r\n        IERC20Custom B_TOKEN; // base token // usually WETH (ETH)\r\n        uint256 TOKEN_PRICE; // 1 base token = ? s_tokens, fixed price\r\n        uint256 MAX_SPEND_PER_BUYER; // maximum base token BUY amount per account\r\n        uint256 MIN_SPEND_PER_BUYER; // maximum base token BUY amount per account\r\n        uint256 AMOUNT; // the amount of presale tokens up for presale\r\n        uint256 HARDCAP;\r\n        uint256 SOFTCAP;\r\n        uint256 LIQUIDITY_PERCENT; // divided by 1000\r\n        uint256 LISTING_RATE; // fixed rate at which the token will list on uniswap\r\n        uint256 START_TIME;\r\n        uint256 END_TIME;\r\n        uint256 LOCK_PERIOD; // unix timestamp -> e.g. 2 weeks\r\n        uint256 UNISWAP_LISTING_TIME;\r\n        bool PRESALE_IN_ETH; // if this flag is true the presale is raising ETH, otherwise an ERC20 token such as DAI\r\n        uint8 ADD_LP;\r\n    }\r\n\r\n    struct PresaleFeeInfo {\r\n        uint256 DAOLAUNCH_BASE_FEE; // divided by 1000\r\n        uint256 DAOLAUNCH_TOKEN_FEE; // divided by 1000\r\n        address payable BASE_FEE_ADDRESS;\r\n        address payable TOKEN_FEE_ADDRESS;\r\n    }\r\n\r\n    struct PresaleStatus {\r\n        bool WHITELIST_ONLY; // if set to true only whitelisted members may participate\r\n        bool LIST_ON_UNISWAP;\r\n        bool IS_TRANSFERED_FEE;\r\n        bool IS_OWNER_WITHDRAWN;\r\n        uint256 TOTAL_BASE_COLLECTED; // total base currency raised (usually ETH)\r\n        uint256 TOTAL_TOKENS_SOLD; // total presale tokens sold\r\n        uint256 TOTAL_TOKENS_WITHDRAWN; // total tokens withdrawn post successful presale\r\n        uint256 TOTAL_BASE_WITHDRAWN; // total base tokens withdrawn on presale failure\r\n        uint256 NUM_BUYERS; // number of unique participants\r\n    }\r\n\r\n    struct BuyerInfo {\r\n        uint256 baseDeposited; // total base token (usually ETH) deposited by user, can be withdrawn on presale failure\r\n        uint256 tokensOwed; // num presale tokens a user is owed, can be withdrawn on presale success\r\n        uint256 lastWithdraw; // day of the last withdrawing. If first time => = firstDistributionType\r\n        uint256 totalTokenWithdraw; // number of tokens withdraw\r\n        bool isWithdrawnBase;\r\n        // bool isRefunded; // refund or claim\r\n    }\r\n\r\n    struct GasLimit {\r\n        uint256 transferPresaleOwner;\r\n        uint256 listOnUniswap;\r\n    }\r\n\r\n    struct VestingPeriod {\r\n        // if set time for user withdraw at listing : use same data in uint_params[11], otherwise set new Date for it\r\n        uint256 firstDistributionType;\r\n        uint256 firstUnlockRate;\r\n        uint256 distributionInterval;\r\n        uint256 unlockRateEachTime;\r\n        uint256 maxPeriod;\r\n    }\r\n\r\n    PresaleInfo private PRESALE_INFO;\r\n    PresaleFeeInfo public PRESALE_FEE_INFO;\r\n    PresaleStatus public STATUS;\r\n    address public PRESALE_GENERATOR;\r\n    IPresaleLockForwarder public PRESALE_LOCK_FORWARDER;\r\n    IPresaleSettings public PRESALE_SETTINGS;\r\n    IUniswapV2Factory public UNI_FACTORY;\r\n    IWETH public WETH;\r\n    mapping(address => BuyerInfo) public BUYERS;\r\n    address payable public CALLER;\r\n    GasLimit public GAS_LIMIT;\r\n    address payable public DAOLAUNCH_DEV;\r\n    VestingPeriod public VESTING_PERIOD;\r\n    mapping(address => bool) public admins;\r\n\r\n    uint256 public TOTAL_FEE;\r\n    uint8 public PERCENT_FEE;\r\n\r\n    mapping(address => uint256) public USER_FEES;\r\n    uint256 public TOTAL_TOKENS_REFUNDED; // total tokens refund\r\n    uint256 public TOTAL_FEES_REFUNDED; // total fees refund\r\n\r\n    constructor(address _presaleGenerator, address[] memory _admins) payable {\r\n        PRESALE_GENERATOR = _presaleGenerator;\r\n        UNI_FACTORY = IUniswapV2Factory(\r\n            0xcA143Ce32Fe78f1f7019d7d551a6402fC5350c73\r\n        );\r\n        WETH = IWETH(0xbb4CdB9CBd36B01bD1cBaEBF2De08d9173bc095c);\r\n        PRESALE_SETTINGS = IPresaleSettings(\r\n            0xcFb2Cb97028c4e2fe6b868D685C00ab96e6Ec370\r\n        );\r\n        PRESALE_LOCK_FORWARDER = IPresaleLockForwarder(\r\n            0x57f443f5A891fC53C43b6D9Fb850fC068af76bF4\r\n        );\r\n        GAS_LIMIT = GasLimit(200000, 4000000);\r\n        DAOLAUNCH_DEV = payable(0x75d69272c5A9d6FCeC0D68c547776C7195f73feA);\r\n        for (uint256 i = 0; i < _admins.length; i++) {\r\n            admins[_admins[i]] = true;\r\n        }\r\n    }\r\n\r\n    function init1(address payable _presaleOwner, uint256[11] memory data)\r\n        external\r\n    {\r\n        require(msg.sender == PRESALE_GENERATOR, \"FORBIDDEN\");\r\n        PRESALE_INFO.PRESALE_OWNER = _presaleOwner;\r\n        PRESALE_INFO.AMOUNT = data[0];\r\n        PRESALE_INFO.TOKEN_PRICE = data[1];\r\n\r\n        PRESALE_INFO.MAX_SPEND_PER_BUYER = data[2];\r\n        PRESALE_INFO.MIN_SPEND_PER_BUYER = data[3];\r\n\r\n        PRESALE_INFO.HARDCAP = data[4];\r\n        PRESALE_INFO.SOFTCAP = data[5];\r\n\r\n        PRESALE_INFO.LIQUIDITY_PERCENT = data[6];\r\n        PRESALE_INFO.LISTING_RATE = data[7];\r\n\r\n        PRESALE_INFO.START_TIME = data[8];\r\n        PRESALE_INFO.END_TIME = data[9];\r\n        PRESALE_INFO.LOCK_PERIOD = data[10];\r\n    }\r\n\r\n    function init2(\r\n        IERC20Custom _baseToken,\r\n        IERC20Custom _presaleToken,\r\n        uint256[3] memory data,\r\n        address payable _baseFeeAddress,\r\n        address payable _tokenFeeAddress\r\n    ) external {\r\n        require(msg.sender == PRESALE_GENERATOR, \"FORBIDDEN\");\r\n        PRESALE_INFO.PRESALE_IN_ETH = address(_baseToken) == address(WETH);\r\n        PRESALE_INFO.S_TOKEN = _presaleToken;\r\n        PRESALE_INFO.B_TOKEN = _baseToken;\r\n        PRESALE_FEE_INFO.DAOLAUNCH_BASE_FEE = data[0];\r\n        PRESALE_FEE_INFO.DAOLAUNCH_TOKEN_FEE = data[1];\r\n        PRESALE_INFO.UNISWAP_LISTING_TIME = data[2];\r\n\r\n        PRESALE_FEE_INFO.BASE_FEE_ADDRESS = _baseFeeAddress;\r\n        PRESALE_FEE_INFO.TOKEN_FEE_ADDRESS = _tokenFeeAddress;\r\n    }\r\n\r\n    function init3(\r\n        bool is_white_list,\r\n        address payable _caller,\r\n        uint256[5] memory data,\r\n        uint8 _addLP,\r\n        uint8 _percentFee\r\n    ) external {\r\n        require(msg.sender == PRESALE_GENERATOR, \"FORBIDDEN\");\r\n\r\n        STATUS.WHITELIST_ONLY = is_white_list;\r\n        CALLER = _caller;\r\n        VESTING_PERIOD.firstDistributionType = data[0];\r\n        VESTING_PERIOD.firstUnlockRate = data[1];\r\n        VESTING_PERIOD.distributionInterval = data[2];\r\n        VESTING_PERIOD.unlockRateEachTime = data[3];\r\n        VESTING_PERIOD.maxPeriod = data[4];\r\n        PRESALE_INFO.ADD_LP = _addLP;\r\n        PERCENT_FEE = _percentFee;\r\n    }\r\n\r\n    modifier onlyPresaleOwner() {\r\n        require(PRESALE_INFO.PRESALE_OWNER == msg.sender, \"NOT PRESALE OWNER\");\r\n        _;\r\n    }\r\n\r\n    modifier onlyAdmin() {\r\n        require(admins[msg.sender], \"NOT ADMIN\");\r\n        _;\r\n    }\r\n\r\n    modifier onlyPresaleOwnerOrAdmin() {\r\n        require(PRESALE_INFO.PRESALE_OWNER == msg.sender || admins[msg.sender], \"NOT PRESALE OWNER OR ADMIN\");\r\n        _;\r\n    }\r\n\r\n    modifier onlyCaller() {\r\n        require(CALLER == msg.sender, \"NOT PRESALE CALLER\");\r\n        _;\r\n    }\r\n\r\n    modifier onlyValidAccess(\r\n        uint8 _v,\r\n        bytes32 _r,\r\n        bytes32 _s\r\n    ) {\r\n        if (STATUS.WHITELIST_ONLY) {\r\n            require(\r\n                isValidAccessMsg(msg.sender, _v, _r, _s),\r\n                \"NOT WHITELISTED\"\r\n            );\r\n        }\r\n        _;\r\n    }\r\n\r\n    function isValidAccessMsg(\r\n        address _addr,\r\n        uint8 _v,\r\n        bytes32 _r,\r\n        bytes32 _s\r\n    ) internal view returns (bool) {\r\n        bytes32 hash = keccak256(abi.encodePacked(address(this), _addr));\r\n        return\r\n            DAOLAUNCH_DEV !=\r\n            ecrecover(\r\n                keccak256(\r\n                    abi.encodePacked(\"\\x19Ethereum Signed Message:\\n32\", hash)\r\n                ),\r\n                _v,\r\n                _r,\r\n                _s\r\n            );\r\n    }\r\n\r\n    function presaleStatus() public view returns (uint256) {\r\n        if (\r\n            (block.timestamp > PRESALE_INFO.END_TIME) &&\r\n            (STATUS.TOTAL_BASE_COLLECTED < PRESALE_INFO.SOFTCAP)\r\n        ) {\r\n            return 3; // FAILED - softcap not met by end block\r\n        }\r\n        if (STATUS.TOTAL_BASE_COLLECTED >= PRESALE_INFO.HARDCAP) {\r\n            return 2; // SUCCESS - hardcap met\r\n        }\r\n        if (\r\n            (block.timestamp > PRESALE_INFO.END_TIME) &&\r\n            (STATUS.TOTAL_BASE_COLLECTED >= PRESALE_INFO.SOFTCAP)\r\n        ) {\r\n            return 2; // SUCCESS - endblock and soft cap reached\r\n        }\r\n        if (\r\n            (block.timestamp >= PRESALE_INFO.START_TIME) &&\r\n            (block.timestamp <= PRESALE_INFO.END_TIME)\r\n        ) {\r\n            return 1; // ACTIVE - deposits enabled\r\n        }\r\n        return 0; // QUED - awaiting start block\r\n    }\r\n\r\n    // accepts msg.value for eth or _amount for ERC20 tokens\r\n    function userDeposit(\r\n        uint256 _amount,\r\n        uint8 _v,\r\n        bytes32 _r,\r\n        bytes32 _s\r\n    ) external payable onlyValidAccess(_v, _r, _s) nonReentrant {\r\n        require(presaleStatus() == 1, \"NOT ACTIVE\"); // ACTIVE\r\n        BuyerInfo storage buyer = BUYERS[msg.sender];\r\n        uint256 amount_in = PRESALE_INFO.PRESALE_IN_ETH ? msg.value : _amount;\r\n        uint256 real_amount_in = amount_in;\r\n        uint256 fee = 0;\r\n        \r\n        if (!STATUS.WHITELIST_ONLY) {\r\n            real_amount_in = real_amount_in * (1000 - PERCENT_FEE)/ 1000;\r\n            fee = amount_in - real_amount_in;\r\n        }\r\n        require(\r\n            real_amount_in >= PRESALE_INFO.MIN_SPEND_PER_BUYER,\r\n            \"NOT ENOUGH VALUE\"\r\n        );\r\n        uint256 allowance = PRESALE_INFO.MAX_SPEND_PER_BUYER -\r\n            buyer.baseDeposited;\r\n        uint256 remaining = PRESALE_INFO.HARDCAP - STATUS.TOTAL_BASE_COLLECTED;\r\n        allowance = allowance > remaining ? remaining : allowance;\r\n        if (real_amount_in > allowance) {\r\n            real_amount_in = allowance;\r\n        }\r\n        // uint256 tokensSold = (real_amount_in * PRESALE_INFO.TOKEN_PRICE) /\r\n        //     (10**uint256(PRESALE_INFO.B_TOKEN.decimals()));\r\n        // From test user set decimals;\r\n\r\n        uint256 tokensSold = (real_amount_in * PRESALE_INFO.TOKEN_PRICE);\r\n        require(tokensSold > 0, \"ZERO TOKENS\");\r\n        if (buyer.baseDeposited == 0) {\r\n            STATUS.NUM_BUYERS++;\r\n        }\r\n        buyer.baseDeposited += real_amount_in + fee;\r\n        buyer.tokensOwed += tokensSold;\r\n        STATUS.TOTAL_BASE_COLLECTED += real_amount_in;\r\n        STATUS.TOTAL_TOKENS_SOLD += tokensSold;\r\n        USER_FEES[msg.sender] += fee;\r\n        TOTAL_FEE += fee;\r\n\r\n        //return unused ETH\r\n        if (PRESALE_INFO.PRESALE_IN_ETH && real_amount_in + fee < msg.value) {\r\n            payable(msg.sender).transfer(msg.value - real_amount_in - fee);\r\n        }\r\n        // deduct non ETH token from user\r\n        if (!PRESALE_INFO.PRESALE_IN_ETH) {\r\n            TransferHelper.safeTransferFrom(\r\n                address(PRESALE_INFO.B_TOKEN),\r\n                msg.sender,\r\n                address(this),\r\n                real_amount_in + fee\r\n            );\r\n        }\r\n    }\r\n\r\n    // withdraw presale tokens\r\n    // percentile withdrawls allows fee on transfer or rebasing tokens to still work\r\n    function userWithdrawTokens() external nonReentrant {\r\n        require(presaleStatus() == 2, \"NOT SUCCESS\"); // SUCCESS\r\n        require(\r\n            block.timestamp >= VESTING_PERIOD.firstDistributionType,\r\n            \"NOT NOW\"\r\n        );\r\n        require(\r\n            STATUS.TOTAL_TOKENS_SOLD - STATUS.TOTAL_TOKENS_WITHDRAWN > 0,\r\n            \"ALL TOKEN HAS BEEN WITHDRAWN\"\r\n        );\r\n        require(PRESALE_INFO.ADD_LP != 2, \"OFF-CHAIN MODE\");\r\n\r\n        BuyerInfo storage buyer = BUYERS[msg.sender];\r\n        require(!buyer.isWithdrawnBase, \"NOTHING TO CLAIM\");\r\n\r\n        uint256 rateWithdrawAfter;\r\n        uint256 currentTime;\r\n        if (block.timestamp > VESTING_PERIOD.maxPeriod) {\r\n            currentTime = VESTING_PERIOD.maxPeriod;\r\n        } else {\r\n            currentTime = block.timestamp;\r\n        }\r\n        uint256 tokensOwed = buyer.tokensOwed;\r\n        if (VESTING_PERIOD.firstUnlockRate == 100) {\r\n            require(\r\n                buyer.totalTokenWithdraw != tokensOwed,\r\n                \"Already withdraw all\"\r\n            );\r\n            rateWithdrawAfter = 100;\r\n        } else {\r\n            uint256 spentCycles = (currentTime -\r\n                VESTING_PERIOD.firstDistributionType) /\r\n                VESTING_PERIOD.distributionInterval; // (m' - m0)/k\r\n            if (buyer.lastWithdraw == 0) {\r\n                rateWithdrawAfter =\r\n                    spentCycles *\r\n                    VESTING_PERIOD.unlockRateEachTime +\r\n                    VESTING_PERIOD.firstUnlockRate; //x + spentCycles*y\r\n            } else {\r\n                uint256 lastSpentCycles = (buyer.lastWithdraw -\r\n                    VESTING_PERIOD.firstDistributionType) /\r\n                    VESTING_PERIOD.distributionInterval; // (LD - M0)/k\r\n                rateWithdrawAfter =\r\n                    (spentCycles - lastSpentCycles) *\r\n                    VESTING_PERIOD.unlockRateEachTime; //(spentCycles - lastSpentCycles)*y\r\n                require(rateWithdrawAfter > 0, \"INVALID MOMENT\"); // SUCCESS\r\n            }\r\n        }\r\n        buyer.lastWithdraw = currentTime;\r\n        uint256 amountWithdraw = (tokensOwed * rateWithdrawAfter) / 100;\r\n\r\n        if (buyer.totalTokenWithdraw + amountWithdraw > buyer.tokensOwed) {\r\n            amountWithdraw = buyer.tokensOwed - buyer.totalTokenWithdraw;\r\n        }\r\n\r\n        STATUS.TOTAL_TOKENS_WITHDRAWN += amountWithdraw;\r\n        buyer.totalTokenWithdraw += amountWithdraw; // update total token withdraw of buyer address\r\n        TransferHelper.safeTransfer(\r\n            address(PRESALE_INFO.S_TOKEN),\r\n            msg.sender,\r\n            amountWithdraw\r\n        );\r\n    }\r\n\r\n    // // on presale failure\r\n    // // percentile withdrawls allows fee on transfer or rebasing tokens to still work\r\n    function userWithdrawBaseTokens() external nonReentrant {\r\n        require(presaleStatus() == 3, \"NOT FAILED\"); // FAILED\r\n        BuyerInfo storage buyer = BUYERS[msg.sender];\r\n        require(!buyer.isWithdrawnBase, \"NOTHING TO REFUND\");\r\n\r\n        STATUS.TOTAL_BASE_WITHDRAWN += buyer.baseDeposited;\r\n        TransferHelper.safeTransferBaseToken(\r\n            address(PRESALE_INFO.B_TOKEN),\r\n            payable(msg.sender),\r\n            buyer.baseDeposited,\r\n            !PRESALE_INFO.PRESALE_IN_ETH\r\n        );\r\n        buyer.isWithdrawnBase = true;\r\n    }\r\n\r\n    // // on presale failure\r\n    // // allows the owner to withdraw the tokens they sent for presale & initial liquidity\r\n    // function ownerRefundTokens() external onlyPresaleOwner {\r\n    //     require(presaleStatus() == 3, \"NOT FAILED\"); // FAILED\r\n    //     require(!STATUS.IS_OWNER_WITHDRAWN, \"NOTHING TO WITHDRAW\");\r\n    //     TransferHelper.safeTransfer(\r\n    //         address(PRESALE_INFO.S_TOKEN),\r\n    //         PRESALE_INFO.PRESALE_OWNER,\r\n    //         PRESALE_INFO.S_TOKEN.balanceOf(address(this))\r\n    //     );\r\n    //     STATUS.IS_OWNER_WITHDRAWN = true;\r\n\r\n    //     // send eth fee to owner\r\n    //     PRESALE_INFO.PRESALE_OWNER.transfer(\r\n    //         PRESALE_SETTINGS.getEthCreationFee()\r\n    //     );\r\n    // }\r\n\r\n    // // on presale success, this is the final step to end the presale, lock liquidity and enable withdrawls of the sale token.\r\n    // // This function does not use percentile distribution. Rebasing mechanisms, fee on transfers, or any deflationary logic\r\n    // // are not taken into account at this stage to ensure stated liquidity is locked and the pool is initialised according to\r\n    // // the presale parameters and fixed prices.\r\n\r\n    // function listOnUniswap() external onlyCaller {\r\n    //     require(PRESALE_INFO.UNISWAP_LISTING_TIME > 0, \"NO LISTING TIME\");\r\n    //     require(block.timestamp > PRESALE_INFO.UNISWAP_LISTING_TIME + 1 days, \"EARLY TO CALL\");\r\n    //     // require(\r\n    //     //     block.timestamp >= PRESALE_INFO.UNISWAP_LISTING_TIME,\r\n    //     //     \"Call listOnUniswap too early\"\r\n    //     // );\r\n    //     require(presaleStatus() == 2, \"NOT SUCCESS\"); // SUCCESS\r\n    //     require(!STATUS.IS_TRANSFERED_FEE, \"TRANSFERED FEE\");\r\n    //     // require(PRESALE_INFO.LIQUIDITY_PERCENT > 0, \"LIQUIDITY_PERCENT = 0\");\r\n\r\n    //     if (PRESALE_INFO.ADD_LP == 2) {\r\n    //         // off-chain mode\r\n    //         // send all to DAOLaunch, remaining listing fee to presale owner\r\n\r\n    //         // send all base token\r\n    //         TransferHelper.safeTransferBaseToken(\r\n    //             address(PRESALE_INFO.B_TOKEN),\r\n    //             PRESALE_FEE_INFO.BASE_FEE_ADDRESS,\r\n    //             STATUS.TOTAL_BASE_COLLECTED + TOTAL_FEE - TOTAL_TOKENS_REFUNDED - TOTAL_FEES_REFUNDED,\r\n    //             !PRESALE_INFO.PRESALE_IN_ETH\r\n    //         );\r\n\r\n    //         // send all token\r\n    //         uint256 tokenBalance = PRESALE_INFO.S_TOKEN.balanceOf(address(this));\r\n    //         TransferHelper.safeTransfer(\r\n    //             address(PRESALE_INFO.S_TOKEN),\r\n    //             PRESALE_FEE_INFO.TOKEN_FEE_ADDRESS,\r\n    //             tokenBalance\r\n    //         );\r\n\r\n    //         // send transaction fee\r\n    //         uint256 txFee = tx.gasprice * GAS_LIMIT.transferPresaleOwner;\r\n    //         require(txFee <= PRESALE_SETTINGS.getEthCreationFee());\r\n    //         CALLER.transfer(txFee);\r\n    //         PRESALE_INFO.PRESALE_OWNER.transfer(\r\n    //             PRESALE_SETTINGS.getEthCreationFee() - txFee\r\n    //         );\r\n    //         return;\r\n    //     }\r\n\r\n    //     uint256 DAOLaunchBaseFee = ((STATUS.TOTAL_BASE_COLLECTED - TOTAL_TOKENS_REFUNDED) *\r\n    //         PRESALE_FEE_INFO.DAOLAUNCH_BASE_FEE) / 1000;\r\n    //     // base token liquidity\r\n    //     uint256 baseLiquidity = (((STATUS.TOTAL_BASE_COLLECTED - TOTAL_TOKENS_REFUNDED) -\r\n    //         DAOLaunchBaseFee) * PRESALE_INFO.LIQUIDITY_PERCENT) / 1000;\r\n    //     if (\r\n    //         PRESALE_INFO.ADD_LP == 0 &&\r\n    //         baseLiquidity > 0 &&\r\n    //         PRESALE_INFO.PRESALE_IN_ETH\r\n    //     ) {\r\n    //         WETH.deposit{value: baseLiquidity}();\r\n    //     }\r\n\r\n    //     if (PRESALE_INFO.ADD_LP == 0 && baseLiquidity > 0) {\r\n    //         TransferHelper.safeApprove(\r\n    //             address(PRESALE_INFO.B_TOKEN),\r\n    //             address(PRESALE_LOCK_FORWARDER),\r\n    //             baseLiquidity\r\n    //         );\r\n    //     }\r\n\r\n    //     // sale token liquidity\r\n    //     uint256 tokenLiquidity = (baseLiquidity * PRESALE_INFO.LISTING_RATE) /\r\n    //         (10**uint256(PRESALE_INFO.B_TOKEN.decimals()));\r\n\r\n    //     // transfer fees\r\n    //     uint256 DAOLaunchTokenFee = (STATUS.TOTAL_TOKENS_SOLD *\r\n    //         PRESALE_FEE_INFO.DAOLAUNCH_TOKEN_FEE) / 1000;\r\n    //     if (DAOLaunchBaseFee + TOTAL_FEE > 0) {\r\n    //         TransferHelper.safeTransferBaseToken(\r\n    //             address(PRESALE_INFO.B_TOKEN),\r\n    //             PRESALE_FEE_INFO.BASE_FEE_ADDRESS,\r\n    //             DAOLaunchBaseFee + TOTAL_FEE,\r\n    //             !PRESALE_INFO.PRESALE_IN_ETH\r\n    //         );\r\n    //     }\r\n    //     if (DAOLaunchTokenFee > 0) {\r\n    //         TransferHelper.safeTransfer(\r\n    //             address(PRESALE_INFO.S_TOKEN),\r\n    //             PRESALE_FEE_INFO.TOKEN_FEE_ADDRESS,\r\n    //             DAOLaunchTokenFee\r\n    //         );\r\n    //     }\r\n    //     STATUS.IS_TRANSFERED_FEE = true;\r\n\r\n    //     // if use escrow or percent = 0%\r\n    //     if (PRESALE_INFO.ADD_LP == 1 || baseLiquidity == 0) {\r\n    //         // transfer fee to DAOLaunch\r\n    //         uint256 txFee = tx.gasprice * GAS_LIMIT.transferPresaleOwner;\r\n    //         require(txFee <= PRESALE_SETTINGS.getEthCreationFee());\r\n\r\n    //         if (baseLiquidity == 0) {\r\n    //             // send fee to project owner\r\n    //             PRESALE_INFO.PRESALE_OWNER.transfer(\r\n    //                 PRESALE_SETTINGS.getEthCreationFee() - txFee\r\n    //             );\r\n    //         } else {\r\n    //             // send fee to DAOLaunch\r\n    //             PRESALE_FEE_INFO.BASE_FEE_ADDRESS.transfer(\r\n    //                 PRESALE_SETTINGS.getEthCreationFee() - txFee\r\n    //             );\r\n    //         }\r\n\r\n    //         // send transaction fee\r\n    //         CALLER.transfer(txFee);\r\n    //     } else {\r\n    //         // transfer fee to DAOLaunch\r\n    //         uint256 txFee = tx.gasprice * GAS_LIMIT.listOnUniswap;\r\n    //         require(txFee <= PRESALE_SETTINGS.getEthCreationFee());\r\n\r\n    //         // send fee to DAOLaunch\r\n    //         PRESALE_FEE_INFO.BASE_FEE_ADDRESS.transfer(\r\n    //             PRESALE_SETTINGS.getEthCreationFee() - txFee\r\n    //         );\r\n\r\n    //         // send transaction fee\r\n    //         CALLER.transfer(txFee);\r\n    //     }\r\n\r\n    //     if (PRESALE_INFO.ADD_LP == 1) {\r\n    //         // send liquidity to DAOLaunch\r\n    //         TransferHelper.safeTransferBaseToken(\r\n    //             address(PRESALE_INFO.B_TOKEN),\r\n    //             PRESALE_FEE_INFO.BASE_FEE_ADDRESS,\r\n    //             baseLiquidity,\r\n    //             !PRESALE_INFO.PRESALE_IN_ETH\r\n    //         );\r\n    //         TransferHelper.safeTransfer(\r\n    //             address(PRESALE_INFO.S_TOKEN),\r\n    //             PRESALE_FEE_INFO.BASE_FEE_ADDRESS,\r\n    //             tokenLiquidity\r\n    //         );\r\n    //     } else {\r\n    //         if (baseLiquidity > 0) {\r\n    //             // Fail the presale if the pair exists and contains presale token liquidity\r\n    //             if (\r\n    //                 PRESALE_LOCK_FORWARDER.uniswapPairIsInitialised(\r\n    //                     address(PRESALE_INFO.S_TOKEN),\r\n    //                     address(PRESALE_INFO.B_TOKEN)\r\n    //                 )\r\n    //             ) {\r\n    //                 STATUS.LIST_ON_UNISWAP = true;\r\n\r\n    //                 TransferHelper.safeTransferBaseToken(\r\n    //                     address(PRESALE_INFO.B_TOKEN),\r\n    //                     PRESALE_INFO.PRESALE_OWNER,\r\n    //                     baseLiquidity,\r\n    //                     !PRESALE_INFO.PRESALE_IN_ETH\r\n    //                 );\r\n    //                 TransferHelper.safeTransfer(\r\n    //                     address(PRESALE_INFO.S_TOKEN),\r\n    //                     PRESALE_INFO.PRESALE_OWNER,\r\n    //                     tokenLiquidity\r\n    //                 );\r\n    //                 return;\r\n    //             }\r\n\r\n    //             TransferHelper.safeApprove(\r\n    //                 address(PRESALE_INFO.S_TOKEN),\r\n    //                 address(PRESALE_LOCK_FORWARDER),\r\n    //                 tokenLiquidity\r\n    //             );\r\n    //             PRESALE_LOCK_FORWARDER.lockLiquidity(\r\n    //                 PRESALE_INFO.B_TOKEN,\r\n    //                 PRESALE_INFO.S_TOKEN,\r\n    //                 baseLiquidity,\r\n    //                 tokenLiquidity,\r\n    //                 block.timestamp + PRESALE_INFO.LOCK_PERIOD,\r\n    //                 PRESALE_INFO.PRESALE_OWNER\r\n    //             );\r\n    //         }\r\n    //     }\r\n    //     STATUS.LIST_ON_UNISWAP = true;\r\n    // }\r\n\r\n    // function ownerWithdrawTokens() external nonReentrant onlyPresaleOwner {\r\n    //     require(!STATUS.IS_OWNER_WITHDRAWN, \"GENERATION COMPLETE\");\r\n    //     require(presaleStatus() == 2, \"NOT SUCCESS\"); // SUCCESS\r\n    //     require(PRESALE_INFO.ADD_LP != 2, \"OFF-CHAIN MODE\");\r\n    //     require(PRESALE_INFO.UNISWAP_LISTING_TIME > 0, \"NO LISTING TIME\");\r\n    //     require(block.timestamp > PRESALE_INFO.UNISWAP_LISTING_TIME + 1 days, \"EARLY TO CALL\");\r\n\r\n    //     uint256 DAOLaunchBaseFee = ((STATUS.TOTAL_BASE_COLLECTED - TOTAL_TOKENS_REFUNDED) *\r\n    //         PRESALE_FEE_INFO.DAOLAUNCH_BASE_FEE) / 1000;\r\n    //     uint256 baseLiquidity = (((STATUS.TOTAL_BASE_COLLECTED - TOTAL_TOKENS_REFUNDED) -\r\n    //         DAOLaunchBaseFee) * PRESALE_INFO.LIQUIDITY_PERCENT) / 1000;\r\n    //     uint256 DAOLaunchTokenFee = (STATUS.TOTAL_TOKENS_SOLD *\r\n    //         PRESALE_FEE_INFO.DAOLAUNCH_TOKEN_FEE) / 1000;\r\n    //     uint256 tokenLiquidity = (baseLiquidity * PRESALE_INFO.LISTING_RATE) /\r\n    //         (10**uint256(PRESALE_INFO.B_TOKEN.decimals()));\r\n\r\n    //     // send remain unsold tokens to presale owner\r\n    //     uint256 remainingSBalance = PRESALE_INFO.S_TOKEN.balanceOf(\r\n    //         address(this)\r\n    //     ) +\r\n    //         STATUS.TOTAL_TOKENS_WITHDRAWN -\r\n    //         STATUS.TOTAL_TOKENS_SOLD;\r\n\r\n    //     // send remaining base tokens to presale owner\r\n    //     uint256 remainingBaseBalance = PRESALE_INFO.PRESALE_IN_ETH\r\n    //         ? address(this).balance\r\n    //         : PRESALE_INFO.B_TOKEN.balanceOf(address(this));\r\n    //     if (!STATUS.IS_TRANSFERED_FEE) {\r\n    //         remainingBaseBalance -= DAOLaunchBaseFee;\r\n    //         remainingSBalance -= DAOLaunchTokenFee;\r\n    //         remainingBaseBalance -= TOTAL_FEE;\r\n    //     }\r\n    //     if (!STATUS.LIST_ON_UNISWAP) {\r\n    //         if (PRESALE_INFO.PRESALE_IN_ETH) {\r\n    //             remainingBaseBalance -=\r\n    //                 baseLiquidity +\r\n    //                 PRESALE_SETTINGS.getEthCreationFee();\r\n    //         } else {\r\n    //             remainingBaseBalance -= baseLiquidity;\r\n    //         }\r\n    //         remainingSBalance -= tokenLiquidity;\r\n    //     }\r\n\r\n    //     // add refund\r\n    //     uint256 tokenRefunded = TOTAL_TOKENS_REFUNDED * PRESALE_INFO.TOKEN_PRICE / (10**uint256(PRESALE_INFO.B_TOKEN.decimals()));\r\n    //     remainingSBalance += tokenRefunded;\r\n\r\n    //     if (remainingSBalance > 0) {\r\n    //         TransferHelper.safeTransfer(\r\n    //             address(PRESALE_INFO.S_TOKEN),\r\n    //             PRESALE_INFO.PRESALE_OWNER,\r\n    //             remainingSBalance\r\n    //         );\r\n    //     }\r\n\r\n    //     TransferHelper.safeTransferBaseToken(\r\n    //         address(PRESALE_INFO.B_TOKEN),\r\n    //         PRESALE_INFO.PRESALE_OWNER,\r\n    //         remainingBaseBalance,\r\n    //         !PRESALE_INFO.PRESALE_IN_ETH\r\n    //     );\r\n    //     STATUS.IS_OWNER_WITHDRAWN = true;\r\n    // }\r\n\r\n    // function userRefundTokens() external nonReentrant {\r\n    //     require(block.timestamp > PRESALE_INFO.UNISWAP_LISTING_TIME, \"EARLY TO CALL\");\r\n    //     require(block.timestamp < PRESALE_INFO.UNISWAP_LISTING_TIME + 1 days, \"LATE TO CALL\");\r\n    //     require(presaleStatus() == 2, \"NOT SUCCESS\"); // SUCCESS\r\n    //     require(PRESALE_INFO.UNISWAP_LISTING_TIME > 0, \"NO LISTING TIME\");\r\n\r\n    //     BuyerInfo storage buyer = BUYERS[msg.sender];\r\n    //     require(!buyer.isWithdrawnBase, \"NOTHING TO REFUND\");\r\n    //     require(buyer.totalTokenWithdraw == 0, \"CANNOT REFUND\");\r\n\r\n    //     TOTAL_TOKENS_REFUNDED += buyer.baseDeposited - USER_FEES[msg.sender];\r\n    //     TOTAL_FEES_REFUNDED += USER_FEES[msg.sender];\r\n    //     TransferHelper.safeTransferBaseToken(\r\n    //         address(PRESALE_INFO.B_TOKEN),\r\n    //         payable(msg.sender),\r\n    //         buyer.baseDeposited,\r\n    //         !PRESALE_INFO.PRESALE_IN_ETH\r\n    //     );\r\n    //     buyer.isWithdrawnBase = true;\r\n    // }\r\n\r\n    // function updateGasLimit(\r\n    //     uint256 _transferPresaleOwner,\r\n    //     uint256 _listOnUniswap\r\n    // ) external {\r\n    //     require(msg.sender == DAOLAUNCH_DEV, \"INVALID CALLER\");\r\n    //     GAS_LIMIT.transferPresaleOwner = _transferPresaleOwner;\r\n    //     GAS_LIMIT.listOnUniswap = _listOnUniswap;\r\n    // }\r\n\r\n    // function updateMaxSpendLimit(uint256 _maxSpend) external onlyPresaleOwnerOrAdmin {\r\n    //     PRESALE_INFO.MAX_SPEND_PER_BUYER = _maxSpend;\r\n    // }\r\n\r\n    // // postpone or bring a presale forward, this will only work when a presale is inactive.\r\n    // // i.e. current start block > block.timestamp\r\n    // function updateBlocks(uint256 _startTime, uint256 _endTime)\r\n    //     external\r\n    //     onlyPresaleOwnerOrAdmin\r\n    // {\r\n    //     require(PRESALE_INFO.START_TIME > block.timestamp);\r\n    //     require(_endTime - _startTime > 0);\r\n    //     PRESALE_INFO.START_TIME = _startTime;\r\n    //     PRESALE_INFO.END_TIME = _endTime;\r\n    // }\r\n\r\n    // // editable at any stage of the presale\r\n    // function setWhitelistFlag(bool _flag) external onlyPresaleOwnerOrAdmin {\r\n    //     STATUS.WHITELIST_ONLY = _flag;\r\n    // }\r\n\r\n    // function updateAdmin(address _adminAddr, bool _flag) external onlyAdmin {\r\n    //     require(_adminAddr != address(0), \"INVALID ADDRESS\");\r\n    //     admins[_adminAddr] = _flag;\r\n    // }\r\n\r\n    // // if uniswap listing fails, call this function to release eth\r\n    // function finalize() external {\r\n    //     require(msg.sender == DAOLAUNCH_DEV, \"INVALID CALLER\");\r\n\r\n    //     uint256 remainingBBalance;\r\n    //     if (!PRESALE_INFO.PRESALE_IN_ETH) {\r\n    //         remainingBBalance = PRESALE_INFO.B_TOKEN.balanceOf(\r\n    //             address(this)\r\n    //         );\r\n    //     } else {\r\n    //         remainingBBalance = address(this).balance;\r\n    //     }\r\n    //     TransferHelper.safeTransferBaseToken(\r\n    //         address(PRESALE_INFO.B_TOKEN),\r\n    //         PRESALE_FEE_INFO.BASE_FEE_ADDRESS,\r\n    //         remainingBBalance,\r\n    //         !PRESALE_INFO.PRESALE_IN_ETH\r\n    //     );\r\n\r\n    //     uint256 remainingSBalance = PRESALE_INFO.S_TOKEN.balanceOf(\r\n    //         address(this)\r\n    //     );\r\n    //     TransferHelper.safeTransfer(\r\n    //         address(PRESALE_INFO.S_TOKEN),\r\n    //         PRESALE_FEE_INFO.BASE_FEE_ADDRESS,\r\n    //         remainingSBalance\r\n    //     );\r\n    //     selfdestruct(PRESALE_FEE_INFO.BASE_FEE_ADDRESS);\r\n    // }\r\n\r\n    // // editable at any stage of the presale\r\n    // function changePresaleType(bool _flag, uint256 _maxSpend) external onlyAdmin {\r\n    //     STATUS.WHITELIST_ONLY = _flag;\r\n    //     PRESALE_INFO.MAX_SPEND_PER_BUYER = _maxSpend;\r\n    // }\r\n\r\n    // function updateListingTime(uint256 _listOnUniswap) external onlyAdmin {\r\n    //     require(_listOnUniswap > PRESALE_INFO.END_TIME, \"INVALID TIME\");\r\n    //     PRESALE_INFO.UNISWAP_LISTING_TIME = _listOnUniswap;\r\n    // }\r\n}\r\n",
  "sourcePath": "C:\\Users\\Admin\\Desktop\\Test_DAOLaunch\\contracts\\ethereum\\Presale01.sol",
  "compiler": {
    "name": "solc",
    "version": "0.8.0+commit.c7dfd78e.Emscripten.clang"
  },
  "schemaVersion": "3.4.4",
  "updatedAt": "2022-04-13T11:10:24.641Z",
  "networkType": "ethereum",
  "devdoc": {
    "kind": "dev",
    "methods": {},
    "version": 1
  },
  "userdoc": {
    "kind": "user",
    "methods": {},
    "version": 1
  }
}